:100000000C944A030C9469030C9469030C94450402
:100010000C9469030C9469030C9469030C946903B0
:100020000C9469030C9469030C9469030C946903A0
:100030000C9469030C9469030C9469030C94690390
:100040000C9469030C9469030C9469030C94690380
:100050000C9469030C9469030C9469030C9495083F
:100060000C9469030C9469030C9469030C94690360
:100070000C9469030C9469030C9469030C94690350
:100080000C9469030C9469030C9469030C94690340
:100090000C9469030C9469030C9469030C94690330
:1000A0000C9469030C9469030C9469030C94690320
:1000B0000C9469030C9469030C9469030C94690310
:1000C0000C9469030C9469030C9469030C94690300
:1000D0000C9469030C9469030C9469030C946903F0
:1000E0000C9469030C9469030C9469030C946903E0
:1000F0000C9469030C9469030C9469030C946903D0
:100100000C9469030C9469030C9469030C946903BF
:100110000C9469030C9469030C9469030C946903AF
:100120000000000000000000065F0600000703005A
:10013000070300247E247E2400242B6A120000631F
:10014000130864630036495620500000070300007E
:1001500000003E4100000000413E000000083E1C3F
:100160003E080008083E08080000E06000000008A3
:100170000808080800006060000000201008040261
:10018000003E5149453E0000427F40000062514917
:100190004946002249494936001814127F10002FA1
:1001A00049494931003C4A49493000017109050378
:1001B00000364949493600064949291E00006C6C41
:1001C00000000000EC6C0000000814224100002434
:1001D00024242424000041221408000201590906A5
:1001E000003E415D551E007E1111117E007F494980
:1001F0004936003E41414122007F4141413E007F5E
:1002000049494941007F09090901003E4149497AAC
:10021000007F0808087F0000417F41000030404017
:10022000403F007F08142241007F40404040007F53
:100230000204027F007F0204087F003E4141413EEC
:10024000007F09090906003E4151215E007F09092E
:1002500019660026494949320001017F0101003F2A
:100260004040403F001F2040201F003F403C403F97
:1002700000631408146300070870080700714945FB
:10028000430000007F4141000002040810200000EC
:1002900041417F00000402010204008080808080D0
:1002A000000003070000002054545478007F4444A9
:1002B000443800384444442800384444447F0038DB
:1002C0005454540800087E0909000018A4A4A47C12
:1002D000007F040478000000007D4000004080841E
:1002E0007D00007F102844000000007F4000007C5B
:1002F00004180478007C040478000038444444382E
:1003000000FC444444380038444444FC00447844ED
:10031000040800085454542000043E442400003CC7
:1003200040207C00001C2040201C003C6030603CD1
:10033000006C10106C00009CA0603C0000645454E1
:100340004C0000083E414100000000770000000022
:1003500041413E08000201020100003C2623263CE8
:1003600000000000000000000000065F5F060000C3
:100370000007070007070000147F7F147F7F140029
:10038000242E2A6B6B3A1200466630180C66620007
:10039000307A4F5D377A4800000407030000000000
:1003A000001C3E63410000000041633E1C00000051
:1003B000082A3E1C1C3E2A080008083E3E08080089
:1003C000000080E06000000000080808080808003D
:1003D00000000060600000006030180C060301009F
:1003E0003E7F594D477F3E0040427F7F40400000A6
:1003F000627359496F660000226349497F360000E5
:10040000181C16537F7F5000276745457D39000033
:100410003C7E4B4979300000030371790F070000DF
:10042000367F49497F360000064F49693F1E00006C
:100430000000006666000000000080E66600000024
:10044000081C366341000000001414141414140036
:10045000004163361C080000000203595D070200DA
:100460003E7F415D5D5F0E007C7E13137E7C00004D
:10047000417F7F49497F36001C3E63414163220032
:10048000417F7F41633E1C00417F7F495D416300A6
:10049000417F7F491D0103001C3E634151337200BF
:1004A0007F7F08087F7F000000417F7F41000000C0
:1004B000307040417F3F0100417F7F081C7763001F
:1004C000417F7F41406070007F7F0E1C0E7F7F0068
:1004D0007F7F060C187F7F001C3E6341633E1C003B
:1004E000417F7F49090F06001E3F2131617F5E0079
:1004F000417F7F09197F6600266F4D49597332008D
:1005000003417F7F410300007F7F40407F7F0000E9
:100510001F3F60603F1F00003F7F6030607F3F00F3
:1005200063771C081C776300074F78784F0700003B
:10053000476371594D677300007F7F4141000000A0
:100540000103060C183060000041417F7F0000006D
:10055000080C0603060C0800808080808080808064
:100560000000030704000000207454543C7840004D
:10057000417F3F4848783000387C44446C28000074
:10058000307848493F7F4000387C54545C18000064
:10059000487E7F490306000098BCA4A4F87C0400B0
:1005A000417F7F08047C780000447D7D400000008E
:1005B00060E08084FD7D0000417F7F10386C440046
:1005C00000417F7F400000007C7C18781C7C780014
:1005D0007C7804047C780000387C44447C3800003B
:1005E00084FCF8A4243C1800183C24A4F8FC8400E3
:1005F000447C784C040C1800485C5474642400005B
:1006000004043E7F442400003C7C40403C7C40008D
:100610001C3C60603C1C00003C7C6030607C3C000A
:10062000446C3810386C44009CBCA0A0FC7C0000DA
:100630004C64745C4C64000008083E774141000043
:1006400000000077770000004141773E0808000075
:10065000020301030203010070784C464C787000DD
:100660000101637801110128633203C0F80002C35D
:100670000402C40502D01D02B30002B58B0138028A
:100680003A0202360002B09F05F012121212012047
:100690000129000011241FBECFEFD1E4DEBFCDBF82
:1006A00012E0A0E0B2E0E4EDF3E100E00BBF02C035
:1006B00007900D92A031B107D9F722E0A0E1B2E096
:1006C00001C01D92AC31B207E1F70E94A0090C9461
:1006D000E8090C940000982FFB01DA018770907FE5
:1006E000903D29F128F4903A41F0903BA1F0089513
:1006F000903E49F1903F99F10895232B49F424E36A
:1007000030E02D933C9323E330E031832083089540
:1007100022E330E0F6CF232B39F425E230E02D93AD
:100720003C9324E230E0F1CF23E230E0F8CF232BFA
:1007300039F42BE230E02D933C932AE230E0E5CF10
:1007400029E230E0F8CF232B39F42EE230E02D936C
:100750003C932DE230E0D9CF2CE230E0F8CF232BD0
:1007600039F421E330E02D933C9320E330E0CDCF0A
:100770002FE230E0F8CF1F93CF93DF9300D000D06B
:10078000CDB7DEB7162F30E020E0AE014D5F5F4FF2
:10079000BE016F5F7F4F0E946B031130A9F150F0D3
:1007A0001230C1F00F900F900F900F90DF91CF910A
:1007B0001F910895E981FA81408121E030E0B9017B
:1007C00002C0660F771F8A95E2F7CB0180958423DC
:1007D0008083E8CFE981FA81408121E030E0B901EE
:1007E00002C0660F771F8A95E2F7CB01942F982BF2
:1007F0009083EB81FC819081982B9083E981FA8131
:10080000908180958923E4CFE981FA81908121E06C
:1008100030E001C0220F8A95EAF7892F822BD8CFCA
:100820001F93CF93DF9300D000D0CDB7DEB7162F44
:1008300030E020E0AE014D5F5F4FBE016F5F7F4F44
:100840000E946B03EB81FC81111115C0408121E0F6
:1008500030E0B90102C0660F771F8A95E2F7CB013D
:100860008095842380830F900F900F900F90DF91DD
:10087000CF911F910895908121E030E001C0220FB7
:100880008A95EAF7892F822BEDCF1F920F920FB630
:100890000F9211248F9383B78E7F83BF8F910F9018
:1008A0000FBE0F901F90189561E080EB0E9410041E
:1008B00061E080EB0E94BB0381E58CBD8DB58EB5F8
:1008C00061E081EB0E94BB0361E082EB0C94BB030F
:1008D000CF93DF931F92CDB7DEB7898389818EBD19
:1008E0000DB407FEFDCF8EB50F90DF91CF91089527
:1008F0001F93CF93DF93182FC091120260E08C2FCB
:100900000E941004D091110260E08D2F0E9410040B
:10091000812F0E94680461E08D2F0E94100461E025
:100920008C2FDF91CF911F910C941004CF92DF9206
:10093000EF92FF921F93CF93DF937C016B01109195
:10094000120260E0812F0E941004E701CE018E198F
:100950009F098C159D0524F489910E946804F6CFA7
:1009600061E0812FDF91CF911F91FF90EF90DF9099
:10097000CF900C941004CF92DF92EF92FF920F93DE
:100980001F93CF93DF9300D000D0CDB7DEB78C019B
:10099000E62E6A01F22E8AE20E947804198223E090
:1009A00030E0C801B9010E94C4096A831B82C801F2
:1009B0008C0D9D1D0197B9010E94C4096C8364E0F0
:1009C00070E0CE0101960E9496048BE20E947804AA
:1009D0001982EA821B82FA94FE0CFC8264E070E0C9
:1009E000CE0101960E9496048CE20E9478040F903A
:1009F0000F900F900F90DF91CF911F910F91FF906B
:100A0000EF90DF90CF900895EF92FF920F931F9396
:100A1000CF93DF9300D000D0CDB7DEB780E6E82ECD
:100A200086E0F82EC7010196F7010491033659F4C8
:100A3000F2E0EF0EF11CFC01649170E090E080E0C8
:100A40000E940409EFCF0023C1F0F2E0EF0EF11C89
:100A5000FC0184910E947804015021F310E0A80168
:100A6000B701CE0101960E94D809E00EF11EB8012F
:100A7000CE0101960E949604D5CF0F900F900F9053
:100A80000F90DF91CF911F910F91FF90EF900895FC
:100A90008038E1E09E0764F4603A71054CF4413817
:100AA000E1E05E072CF4213A310514F40C94BB0408
:100AB00008952F923F924F925F926F927F928F9202
:100AC0009F92AF92BF92CF92DF92EF92FF920F93DD
:100AD0001F93CF93DF93CDB7DEB7CD56D1090FB6B5
:100AE000F894DEBF0FBECDBF4C01A3967FAF6EAFB3
:100AF000A3971A016901F701E430F10514F0E3E06E
:100B0000F0E0033011050CF097C0702E102F1295F5
:100B1000110F110F107C000F000F000FE050FE4F5F
:100B2000A080D1010D900020E9F7CD010197821935
:100B300093092C019601225031092230310508F029
:100B400037C1B3E0CB16D10409F47BC05CE0E52EDD
:100B5000F12CE4E0F0E0A196FFAFEEAFA1978E9DFF
:100B600090018F9D300D9E9D300D1124280D391D53
:100B70002138314054F080E891E088199909B70193
:100B80000E94C4092B0177FD1FC2A196AEADBFAD77
:100B9000A19724E0AA0FBB1F2A95E1F7A796BFAF44
:100BA000AEAFA797C701049763E070E00E94B00959
:100BB0006E5F7F4FFB01EE0FFF1FA996FFAFEEAFF9
:100BC000A9976F963FAE2EAE6F97912F902B8A2DDF
:100BD0008370982BAA969FAFAA978A2D8F71182B96
:100BE000AB961FAFAB970729AC960FAFAC976F963C
:100BF0008EAD9FAD6F9782199309841595055CF1B1
:100C000090E080E0C359DF4F0FB6F894DEBF0FBE0F
:100C1000CDBFDF91CF911F910F91FF90EF90DF90AB
:100C2000CF90BF90AF909F908F907F906F905F908C
:100C30004F903F902F90089563E0762E0CE110EED8
:100C40006DCF4FE0E42EF12C25E030E0A1963FAFD0
:100C50002EAFA19784CF6F96AEADBFAD6F978D913C
:100C60006F96BFAFAEAF6F978052990BB3E0CB16C4
:100C7000D10409F06EC0BC0193E0660F771F9A950E
:100C8000E1F7605A7C4F48E050E0CE018B5A9F4F0D
:100C90000E94D809AE014F5F5F4F68E070E0BB244F
:100CA000B394F7013697A596FFAFEEAFA5979A01DB
:100CB000A1960EAD1FADA197040F151FAE961FAFE5
:100CC0000EAFAE97FE01EB5AFF4F90E080E0A59685
:100CD000AEADBFADA5978A179B070CF047C010813A
:100CE0001B21AA960FADAA97111101C00A2D1181DF
:100CF0001B21D1F10C7F0729AB961FADAB9762800A
:100D00006B2029F0107EAC966FACAC971629AE968E
:100D1000AEADBFADAE970C93D9010C938630910563
:100D200049F0AE96AEADBFADAE9711961C93D9010A
:100D300011961C932E5F3F4F0396AE960EAD1FADDE
:100D4000AE970E5F1F4FAE961FAF0EAFAE973396A6
:100D5000BECF26E0289FB001299F700D1124605E50
:100D60007E4F46E050E091CF1A2DC9CFBB0C6150A9
:100D70007109A9960EAD1FADA997400F511F6115BE
:100D8000710509F094CF20E130E0A701A3966EAD84
:100D90007FADA397C4010E944805A7966EAD7FADB5
:100DA000A797CE0101960E9496048E0C9F1C1FCF20
:100DB000CD2809F07BC049E0489F9001499F300D44
:100DC0001124280D391D213831405CF080E891E074
:100DD0008819990969E070E00E94C4092B0177FD28
:100DE000F3C07101BB24B3948A2D8F71182BC701F6
:100DF00082199309841595050CF002CFD7016D91E6
:100E00007D016052770B83E0660F771F8A95E1F7CB
:100E1000605A7C4F48E050E0CE018B5A9F4F0E94B1
:100E2000D80930E020E0CE0101966C017B2D022E26
:100E300001C0770F0A94EAF7FE01EB5AFF4FDC017D
:100E400050E040E06081672379F1612F6180672283
:100E500011F0637E602B4630510529F062806722D5
:100E600011F06C7F67296D934D5F5F4F339649306A
:100E7000510541F703962F5F3F4F28303105B1F6FA
:100E800028E030E049E050E0A3966EAD7FADA39737
:100E9000C4010E944805B9E08B0E911C68E170E026
:100EA000C6010E949604A3CF6A2DD0CF46E0489F8A
:100EB0009001499F300D1124280D391D21383140F2
:100EC0005CF080E891E08819990966E070E00E9482
:100ED000C4092B0177FD78C061018A2D8F71182B11
:100EE000C60182199309841595050CF089CED601A7
:100EF0008D916D018052990BB6E0B89FB001B99FFA
:100F0000700D1124605E7E4F46E050E0CE018B5A9A
:100F10009F4F0E94D80966967FAD669767966FAD22
:100F2000679768969FAD68976996AFAD69976A961F
:100F3000BFAD6A976B966FAC6B97FE01319650E030
:100F400040E07F0121E030E0042E01C0220F0A942E
:100F5000EAF7872F8223A1F1812FB62EB22211F05A
:100F6000837E802BB92EB22211F08C7F872980835B
:100F70008A2F822339F1812FBB2EB22211F0837E7A
:100F8000802B262111F08C7F8729818332964F5F39
:100F90005F4F48305105B1F628E030E046E050E0C0
:100FA000A3966EAD7FADA397C4010E944805E6E00D
:100FB0008E0E911C60E170E0C7010E94960490CFF4
:100FC0008A2DCBCF8A2DD8CF8FEF9FEF1BCEEF92FC
:100FD000FF920F931F93CF93DF93CDB7DEB7C05827
:100FE000D1090FB6F894DEBF0FBECDBFE82E28E8BA
:100FF00030E040E851E070E060E090E080E00E9486
:10100000BB0408E810E0F12C40E850E0B701CE0145
:1010100001960E94E10960E870E0CE0101960E940D
:1010200096040150110981F7C058DF4F0FB6F894AC
:10103000DEBF0FBECDBFDF91CF911F910F91FF900B
:10104000EF9008951F93CF93DF93D82F162FC42FBF
:101050008093120260931102409310020E94540484
:1010600061E08D2F0E94BB0361E083ED0E94BB0312
:1010700061E08D2F0E94100461E0812F0E94BB036C
:1010800061E08C2F0E94BB0361E08C2F0E94100452
:1010900062E370E080E090E00E94040960E08091EB
:1010A00010020E94100465E070E080E090E00E9471
:1010B000040961E0809110020E94100466E970E06A
:1010C00080E090E00E9404090E94040580E00E94F4
:1010D000E70790E080E0DF91CF911F910895EF92B4
:1010E000FF920F931F9342EA50E066ED70E087EEA7
:1010F00090E00E94220868EB7BE080E090E00E9494
:101100000409F12CE12C03E010E022E030E044E09F
:1011100052E060E670E090E080E00E9459051F9187
:101120000F91FF90EF90089508951F920F920FB6C0
:101130000F9211242F933F938F939F93AF93BF935D
:101140008091140290911502A0911602B09117029D
:101150003091130223E0230F2D3758F50196A11D7E
:10116000B11D209313028093140290931502A09353
:101170001602B09317028091180290911902A09163
:101180001A02B0911B020196A11DB11D8093180295
:1011900090931902A0931A02B0931B02BF91AF91D2
:1011A0009F918F913F912F910F900FBE0F901F90A5
:1011B000189526E8230F0296A11DB11DD2CF3FB787
:1011C000F8948091180290911902A0911A02B0919E
:1011D0001B0226B5A89B05C02F3F19F00196A11D43
:1011E000B11D3FBFBA2FA92F982F8827BC01CD0171
:1011F000620F711D811D911D42E0660F771F881FD0
:10120000991F4A95D1F708958F929F92AF92BF92FE
:10121000CF92DF92EF92FF926B017C010E94DF0878
:101220004B015C01C114D104E104F104E9F00E9416
:10123000AF090E94DF08681979098A099B09683E8D
:1012400073408105910570F321E0C21AD108E108CD
:10125000F10888EE880E83E0981EA11CB11CC11411
:10126000D104E104F10429F7FF90EF90DF90CF90D3
:10127000BF90AF909F908F900895789484B58260CE
:1012800084BD84B5816084BD85B5826085BD85B52A
:10129000816085BDEEE6F0E0808181608083E1E8D9
:1012A000F0E0108280818260808380818160808311
:1012B000E0E8F0E0808181608083E1EBF0E0808114
:1012C00084608083E0EBF0E0808181608083E1E9ED
:1012D000F0E0808182608083808181608083E0E9AA
:1012E000F0E0808181608083E1EAF0E080818260CB
:1012F0008083808181608083E0EAF0E0808181608A
:101300008083E1E2F1E0808182608083808181607E
:101310008083E0E2F1E0808181608083EAE7F0E0B1
:10132000808184608083808182608083808181600D
:1013300080838081806880831092C1000895089521
:101340000E943D090E949F090E946F08C0E0D0E002
:101350000E9494082097E1F30E940000F9CF0895BD
:10136000AA1BBB1B51E107C0AA1FBB1FA617B707CB
:1013700010F0A61BB70B881F991F5A95A9F78095E7
:101380009095BC01CD01089597FB072E16F40094AB
:1013900007D077FD09D00E94B00907FC05D03EF4C4
:1013A000909581959F4F0895709561957F4F089511
:1013B000FB01DC0102C005900D9241505040D8F76E
:1013C0000895DC0101C06D9341505040E0F708954D
:0413D000F894FFCFBF
:1013D400004992FF48656C6C6F20576F726C640013
:00000001FF
