:020000022000DC
:100000000D9411010D9437010D9437010D943701B2
:100010000D9437010D9437010D9437010D9437017C
:100020000D9437010D9437010D9437010D9437016C
:100030000D9437010D9437010D9437010D9437015C
:100040000D9437010D9437010D9437010D9437014C
:100050000D9437010D9437010D9437010D9437013C
:100060000D9437010D9437010D9437010D9437012C
:100070000D9437010D9437010D9437010D9437011C
:100080000D9437010D9437010D9437010D9437010C
:100090000D9437010D9437010D9437010D943701FC
:1000A0000D9437010D9437010D9437010D943701EC
:1000B0000D9437010D9437010D9437010D943701DC
:1000C0000D9437010D9437010D9437010D943701CC
:1000D0000D9437010D9437010D9437010D943701BC
:1000E0000D9437010D9437010D9437010D943701AC
:1000F0000D9437010D9437010D9437010D9437019C
:100100000D9437010D9437010D9437010D9437018B
:100110000D9437010D9437010D9437010D9437017B
:100120000D9437010D9437010D9437010D9437016B
:100130000D9437010D9437010D9437010D9437015B
:100140000D9437010D9437010D9437010D940F0371
:100150000D9437010D9437010D9437010D9437013B
:100160000D9437010D9437010D9437010D9437012B
:100170000D9437010D9437010D9437010D9437011B
:100180000D9437010D9437010D9437010D9437010B
:100190000D9437010D9437010D9437010D943701FB
:1001A0000D9437010D9437010D9437010D943701EB
:1001B0000D9437010D9437010D9437010D943701DB
:1001C0000D9437010D9437010D9437010D943701CB
:1001D0000D9437010D9437010D9437010D943701BB
:1001E0000D9437010D9437010D9444010D94550A77
:1001F0000D9437010A0D0A0D526F626F6E692D69F9
:1002000020322E390D0A46572000424F4F542020ED
:100210000030313233343536373839414243444582
:10022000460011241FBECFEFDFE3DEBFCDBF01E0EC
:100230000CBF18BE19BE1ABE1BBE10E2A0E0B0E291
:10024000E4E3FEE102E00BBF02C007900D92A03094
:10025000B107D9F71BBE14E2A0E0B0E201C01D92C5
:10026000AE3EB107E1F70F9455070D94180F0D94AA
:100270000000E0EAF6E080E281838583089580E271
:10028000E0EAF6E0828308951F920F920FB60F9274
:1002900008B60F9209B60F920BB60F92112418BE32
:1002A00019BE1BBE2F933F938F939F93AF93BF9322
:1002B000EF93FF93E0912E20F0912F2020812D309D
:1002C000C9F02A30B9F08091DA249091DB24885D5E
:1002D000944230F5E0EAF6E080E281838583A091E4
:1002E000DA24B091DB242D93A093DA24B093DB249D
:1002F000828316C08091DA249091DB248254944248
:1003000079F081E080934024A0912E20B0912F209D
:10031000E0912E20F0912F2083818F7C13968C9377
:10032000FF91EF91BF91AF919F918F913F912F914D
:100330000F900BBE0F9009BE0F9008BE0F900FBE1E
:100340000F901F901895982F80912C20882331F0C2
:100350008091B10B85FFFCCF9093B00B0895F8947A
:1003600081E08CBFE0910220F0910320199508955F
:100370001092402482E494E28093DA249093DB2468
:10038000A0EAB6E090E211969C93119715969C9383
:10039000159720912E2030912F20E0912E20F09162
:1003A0002F2083818F7C8061F901838312969C9337
:1003B000089590912520E92FF0E0EE5BFB4D8081C0
:1003C0008A3318F4282F205302C0282F27539F5F09
:1003D000E92FF0E0EE5BFB4D80818A3318F4E82FC3
:1003E000E05302C0E82FE753822F8295807F8E0F63
:1003F0009F5F909325209091D824980F9093D824B4
:1004000008958A3310F48053089587530895809196
:10041000B10B87FFFCCF8091B00B089580912B200A
:100420008F5F80932B2080912B20853128F081E0F5
:1004300080932D2010922B200895E0E4F9E0808134
:10044000807F8160808380E090E486A397A386818B
:100450008C7F82608683089580912C20882339F0D8
:100460008091B10B85FFFCCF8DE08093B00B809124
:100470002C20882339F08091B10B85FFFCCF8AE0D6
:100480008093B00B0895EF92FF920F931F93611525
:1004900071058105910569F418C080912C2088238D
:1004A00031F08091B10B85FFFCCF9093B00BC80168
:1004B000B7017B018C010894E11CF11C011D111D89
:1004C0000F948A0A982F882341F71F910F91FF906C
:1004D000EF900895282F61E172E082E099272F7054
:1004E000620F711D811D911D0F948A0A982F8091B2
:1004F0002C20882331F08091B10B85FFFCCF9093A5
:10050000B00B08951F93182F82958F700F946A0275
:10051000812F0F946A021F910895CF93DF93C0EA51
:10052000D6E08091AC0680FF1DC021E020932C20F6
:1005300088E790E080930020909301202C8780E84A
:1005400090E061E00F94A60D84E090E060E00F94ED
:10055000A60DE0912E20F0912F2084818860848365
:1005600088E924C08091002090910120892B51F0CE
:10057000809100209091012001978093002090931A
:10058000012015C010922C2080E890E060E00F94CC
:10059000A60D84E090E061E00F94A60DE0912E207E
:1005A000F0912F208481877F848380E88C8BDF917A
:1005B000CF910895882349F48FEF9FEF60E00F9467
:1005C000A60D80E290E062E01AC0813049F48FEF1E
:1005D0009FEF60E00F94A60D80E690E061E00FC011
:1005E000833041F48FEF9FEF60E00F94A60D80E21F
:1005F00090E004C0823031F480E190E063E00F9439
:10060000A60D0895843051F48FEF9FEF60E00F94B2
:10061000A60D80E690E062E00F94A60D08951F926B
:100620000F920FB60F9208B60F9209B60F920BB643
:100630000F92112418BE19BE1BBE2F933F934F93E8
:100640005F936F937F938F939F93AF93BF93EF933A
:10065000FF938091D9248F5F8093D9240F948D02CA
:100660008091D9248B3090F01092D92480912B2046
:100670008F5F80932B2080912B20853128F081E0A3
:1006800080932D2010922B200F94A70EFF91EF91B5
:10069000BF91AF919F918F917F916F915F914F919A
:1006A0003F912F910F900BBE0F9009BE0F9008BE87
:1006B0000F900FBE0F901F901895FF920F931F93EE
:1006C00000E416E0F8018081806180838081806889
:1006D000808380818160808380818062808380814B
:1006E0008860808380818F7B8083FF24F394F182F4
:1006F000F682EF93FF93F8EDE0E4F4BFE093A200FD
:10070000FF91EF910F94820D80E00F94DA02E0E404
:10071000F9E08081807F8160808380E090E486A31F
:1007200097A386818C7F82608683F801F5820F947F
:10073000EF0BE0EAF0E08281846082838281826054
:100740008283828181608283109200201092012036
:1007500078941F910F91FF900895E0912E20F091D1
:100760002F2084818F7E8483E0912E20F0912F2092
:100770008481877F8483E0EAF6E080EF828388E9E2
:10078000848B81E9858B20E8268B278B81E0809301
:100790002C208AEF90E080930020909301208285A6
:1007A00080628287218380E482838EE290E260EB24
:1007B0007BE041E00F943C0BE0912E20F0912F2044
:1007C00083E08583A0912E20B0912F20E0912E20F0
:1007D000F0912F2083818F7C806113968C93E0EBC6
:1007E000FBE080E186831782E0912E20F0912F209C
:1007F000848184608483E0912E20F0912F20848175
:1008000080618483E0912E20F0912F208481886084
:100810008483089581E00F94DA02F894A0912E2049
:10082000B0912F20E0912E20F0912F2083818F7C9A
:1008300013968C938EE290E260EB7BE040E00F94A5
:100840003C0BEF93FF93F8EDE0E0F4BFE093A200E0
:10085000FF91EF9188ED84BF109240001CBEE091A3
:100860000220F09103201995089580E492E26FEF41
:1008700070E040E052E00F94110F10923922109274
:100880003A2208950F94C40A089580E492E20F94E6
:10089000C40A0F94150B60913B2270913C22809109
:1008A0003D2290913E220F94EE0A0F9435040F944E
:1008B000150B08956F927F928F929F92AF92BF9285
:1008C000CF92DF92EF92FF920F931F93CF93DF931C
:1008D00010922520809142248A3309F0ACC181E036
:1008E000809325201092D8240F94D901782E20E2ED
:1008F000281758F480912C20882309F4A7C18091EF
:10090000B10B85FFFCCF8CE49FC183E0781659F4CE
:1009100080912C20882339F08091B10B85FFFCCF8A
:1009200083E38093B00B0F94D901082F0F94D90162
:10093000C82FD0E080FF0BC080912C20882309F4C1
:1009400085C18091B10B85FFFCCF8AE27DC10F94F8
:10095000D901182F8130B9F48091392290913A222F
:10096000892B11F00F94450480912C20882339F0B5
:100970008091B10B85FFFCCF84E28093B00B81E0C6
:100980008093042065C1843019F0823009F077C06B
:1009900022E07216B1F080912C20882339F08091EA
:1009A000B10B85FFFCCF81E48093B00B80912C20AC
:1009B000882309F44BC18091B10B85FFFCCF84E201
:1009C00043C10F94D901982F123009F580912C2042
:1009D000882339F08091B10B85FFFCCF83E58093AC
:1009E000B00B892F90E0A0E0B0E07CE0880F991F69
:1009F000AA1FBB1F7A95D1F78093DC249093DD2446
:100A0000A093DE24B093DF240F94D90101C180911B
:100A10002C20882339F08091B10B85FFFCCF88E52D
:100A20008093B00B892F90E0A0E0B0E08093DC24AD
:100A30009093DD24A093DE24B093DF240F94D9019A
:100A400090E0A0E0B0E02091DC243091DD244091E2
:100A5000DE245091DF24542F432F322F2227822B64
:100A6000932BA42BB52BDC01992788278093DC24BA
:100A70009093DD24A093DE24B093DF24C9C083309B
:100A800069F480912C20882309F4E2C08091B10B95
:100A900085FFFCCF84E48093B00BDAC0882359F043
:100AA00080912C20882309F4D1C08091B10B85FF5F
:100AB000FCCF82E7C9C0902F80E08C2B9D2B7C015E
:100AC00000E010E08091DC249091DD24A091DE24F0
:100AD000B091DF24E80EF91E0A1F1B1F80912A2007
:100AE000833029F5D801C7018050904EA140B04015
:100AF00080302CE1920720E0A20720E0B20758F0F6
:100B000080912C20882309F4A1C08091B10B85FF2E
:100B1000FCCF86E499C0E0902620F0902720009139
:100B2000282010912920E80EF91E0A1F1B1F5701CB
:100B300068018824992480E5682E67C0A601950184
:100B400020703E7F20933522309336224093372207
:100B50005093382280913B2290913C22A0913D22DB
:100B6000B0913E22281739074A075B0791F0809120
:100B7000392290913A22892B61F080912C20882390
:100B800031F08091B10B85FFFCCF6092B00B0F94D8
:100B900045048091352290913622A0913722B09160
:100BA000382280933B2290933C22A0933D22B09325
:100BB0003E22E701C81BD90BC80DD91D0894811C22
:100BC000911C0894A11CB11CC11CD11C82E0C03036
:100BD000D80768F080912C20882339F08091B10BE0
:100BE00085FFFCCF8AE58093B00B89E032C00F947B
:100BF000D901C05CDD4D88838091392290913A22E1
:100C000001968093392290933A22871408F496CF64
:100C10001091D82411951092D8240F94D9018117DE
:100C2000B9F080912C20882389F08091B10B85FF49
:100C3000FCCF83E409C080912C20882339F0809177
:100C4000B10B85FFFCCF8FE38093B00B81E001C037
:100C500080E0DF91CF911F910F91FF90EF90DF9097
:100C6000CF90BF90AF909F908F907F906F9008959E
:100C70004F925F926F927F928F929F92AF92BF92AC
:100C8000CF92DF92EF92FF920F931F93CF93DF9358
:100C9000843010F081E0BBC090E020E03CE1AC018A
:100CA000429FC001439F900D529F900D11242C0133
:100CB0006624772480E09CE8A1E0B0E0480E591E4D
:100CC0006A1E7B1E53014201C12CF0EEDF2EF1E0C3
:100CD000EF2EF12CC0E0D0E001E0C501B4010F948B
:100CE0008A0A182FC701B6010F948A0A181719F03B
:100CF000C0E0DCE100E021969CE1C030D90758F467
:100D00000894811C911CA11CB11C0894C11CD11C0D
:100D1000E11CF11CE2CF013009F478C080E090EED4
:100D2000A1E0B0E080933B2290933C22A0933D222F
:100D3000B0933E22C12CE0EEDE2EE1E0EE2EF12C4F
:100D4000A701960120703E7F2093352230933622F2
:100D5000409337225093382280913B2290913C223D
:100D6000A0913D22B0913E22281739074A075B0720
:100D7000C1F08091392290913A22892B11F00F9481
:100D800045048091352290913622A0913722B0916E
:100D9000382280933B2290933C22A0933D22B09333
:100DA0003E228091352290913622E601C81BD90B54
:100DB000A2E0C030DA0710F082E029C0C301B2011E
:100DC0000F948A0AC05CDD4D88838091392290910E
:100DD0003A2201968093392290933A22BFEFCB16A4
:100DE000BBEFDB06B1E0EB06B0E0FB0659F0089480
:100DF000411C511C611C711C0894C11CD11CE11CBC
:100E0000F11C9ECF892B11F00F94450480E0DF91F7
:100E1000CF911F910F91FF90EF90DF90CF90BF90F7
:100E2000AF909F908F907F906F905F904F900895BC
:100E3000EF92FF920F931F937B018C0180E0E816E5
:100E400088E6F80681E0080780E0180710F481E0E2
:100E500009C00F94150BC801B7010F94EE0A0F9447
:100E6000150B80E01F910F91FF90EF900895EF9286
:100E7000FF920F931F937B018C0180E0E81688E6B8
:100E8000F80681E0080780E0180710F481E008C048
:100E90000F94150BC801B7010F94B90A0F94150BE5
:100EA0001F910F91FF90EF900895DF93CF930F92D2
:100EB0000F92CDB7DEB70F945D030F94AD03809111
:100EC000352290913622A0913722B091382280931A
:100ED0003B2290933C22A0933D22B0933E2210925D
:100EE0002A20109241240F94350410922D208091D5
:100EF0002D208823E1F310922D2064EF71E082E031
:100F000099270F94430260E07EEF81E090E00F9418
:100F10008A0A0F94820280912C20882339F08091D4
:100F2000B10B85FFFCCF8EE28093B00B61E07EEFCA
:100F300081E090E00F948A0A0F94820280912C2025
:100F4000882339F08091B10B85FFFCCF82E7809335
:100F5000B00B62E07EEF81E090E00F948A0AF82EF9
:100F60000F94820280912C20882339F08091B10B5C
:100F700085FFFCCF8DE08093B00B80912C208823DF
:100F800039F08091B10B85FFFCCF8AE08093B00BE4
:100F90001092402402E414E20093DA241093DB243C
:100FA000A0EAB6E090E211969C93119715969C9357
:100FB000159720912E2030912F20E0912E20F09136
:100FC0002F2083818F7C8061F901838312969C930B
:100FD00060E070E080E090E00F948A0A8F3F19F0A3
:100FE000FFEFFF1621F482E00F94DA0278C0198235
:100FF00089E38A836AE072E082E099270F944302D2
:1010000029E030E078E040EA56E060E280912C2070
:10101000882309F44BC080912D208823E1F09A8128
:1010200091509A839F5F80912C20882331F080918A
:10103000B10B85FFFCCF9093B00B80912C208823BF
:1010400031F08091B10B85FFFCCF7093B00B215034
:10105000304010922D208091DA249091DB2482542C
:10106000944201F18091422489831092402400939C
:10107000DA241093DB24FA0161836583A0912E208A
:10108000B0912F20E0912E20F0912F2083818F7C32
:10109000806113968C93FA0162838981893611F4F9
:1010A00011E005C02115310509F0B0CF10E08091A5
:1010B0002C20882339F08091B10B85FFFCCF8DE087
:1010C0008093B00B80912C20882339F08091B10B54
:1010D00085FFFCCF8AE08093B00B112311F011E063
:1010E00002C00F940A0480912C20882339F080914B
:1010F000B10B85FFFCCF8EE38093B00BB2E48B2E57
:10110000B4E29B2EA0EAEA2EA6E0FA2EF0E2CF2E61
:10111000DD24D39405E4E3E36E2E72E3572E61E3FE
:10112000762EA12C5CE1B52E112311F40F940A0444
:101130008091DA249091DB248254944209F4DDC03A
:10114000809142248983109240248092DA249092E4
:10115000DB24F701C182C582A0912E20B0912F20FF
:10116000E0912E20F0912F2083818F7C8061139657
:101170008C93F701C28289818B3518F48981803381
:1011800058F4998180912C20882331F08091B10B03
:1011900085FFFCCF9093B00B80914124882391F17F
:1011A0008981815380933F22833050F583E080937F
:1011B0002A20998180912C20882331F08091B10BD5
:1011C00085FFFCCF9093B00B84E00F94DA028091FE
:1011D0003F2290E09C012A9DC0012B9D900D3A9DDD
:1011E000900D1124A0E0B0E080509447AE4FBF4F67
:1011F0008093262090932720A0932820B093292025
:101200001092412489818132D1F480E00F94380614
:10121000882359F480912C20882389F08091B10B88
:1012200085FFFCCF7092B00B0AC080912C208823E0
:1012300031F08091B10B85FFFCCF0093B00B898119
:101240008034D1F481E00F943806882359F48091DA
:101250002C20882389F08091B10B85FFFCCF509220
:10126000B00B0AC080912C20882331F08091B10B03
:1012700085FFFCCF0093B00B89818332D1F482E0EB
:101280000F943806882359F480912C20882389F004
:101290008091B10B85FFFCCF6092B00B0AC08091AA
:1012A0002C20882331F08091B10B85FFFCCF009377
:1012B000B00B8981863659F4D0922A2083E00F94AE
:1012C000DA0260E07EEF81E090E00F94B90A898154
:1012D000883629F4D0922A2083E00F94DA0289819B
:1012E000803711F4D09241248981873609F410E0C7
:1012F0008981873411F40F940A0480912A2088236D
:1013000009F412CF80912C20882339F08091B10B01
:1013100085FFFCCF8DE08093B00B80912C2088233B
:1013200039F08091B10B85FFFCCF8AE08093B00B40
:101330001092402442E454E24093DA245093DB2498
:10134000A0EAB6E090E211969C93119715969C93B3
:10135000159720912E2030912F20E0912E20F09192
:101360002F2083818F7C8061F901838312969C9367
:101370006A0100EA16E040E2E42E3DE0F32E2AE0A6
:10138000922E9FE4692E8BE4782EB2E3AB2EB12C23
:10139000A2E58A2E809140248823E1F3C092DA24CA
:1013A000D092DB2480912A20813011F08330D1F457
:1013B0000F945A048823B1F080912C20882331F0B7
:1013C0008091B10B85FFFCCF8092B00B80912C20D7
:1013D000882331F08091B10B85FFFCCFF092B00BE8
:1013E0000F94AF0180910420882309F445C08091B7
:1013F0002C20882331F08091B10B85FFFCCFF09237
:10140000B00B80912C20882331F08091B10B85FFA7
:10141000FCCF9092B00B80912C20882331F08091EA
:10142000B10B85FFFCCF6092B00B80912C208823FC
:1014300031F08091B10B85FFFCCF7092B00B8091A1
:101440002C20882331F08091B10B85FFFCCFF092E6
:10145000B00B80912C20882331F08091B10B85FF57
:10146000FCCF9092B00B80E197E2F5013197F1F754
:101470000197D9F70F94AF0110924024C092DA245B
:10148000D092DB24F801E182E582E0912E20F091F8
:101490002F20A0912E20B0912F2013968C918F7C1D
:1014A00080618383F801E28275CF1F920F920FB69D
:1014B0000F9208B60F9209B60F920BB60F92112435
:1014C00018BE19BE1BBE2F933F934F935F936F932C
:1014D0007F938F939F93AF93BF93EF93FF938EE28E
:1014E00090E20F94B20BFF91EF91BF91AF919F915A
:1014F0008F917F916F915F914F913F912F910F90BD
:101500000BBE0F9009BE0F9008BE0F900FBE0F903C
:101510001F9018953BB78BBFFB0186913BBF089589
:101520003BB78BBFFB01879196913BBF089542E08B
:1015300094C041E092C08093C00188278093C1018C
:101540008093C20147E079D0CB0108958093C40114
:1015500048E073C08091D00108953BB748E10D94F5
:10156000320B3BB74AE10D94320B3BB740E20D948E
:10157000320B3BB78BBFCB0142E20D94320B3BB732
:101580000B0143E20D94320BEE27FF2719BEDC015D
:1015900043E24093CA0150E02DE90D901D90209345
:1015A0003400E89532965A95C1F7112408953BB757
:1015B0006BBFFA0119BEDC0140E04093CA0150E064
:1015C000879197918D939D935A95D1F73BBF08953D
:1015D0003BB78BBFCB0144E20D94320B3BB78BBFC3
:1015E000CB0145E20D94320B3BB746E20D94320B32
:1015F0003BB78BBFCB014AE20D94320B3BB78BBF9D
:10160000CB014CE20D94320B3BB78BBFCB014DE2CB
:101610000D94320B48E311C049E30FC028ED20932D
:10162000340021E02093CC0108952091CF0127FDC3
:10163000FCCF22272093CA0108954093CA0128EDC8
:1016400031E0209334003093CB016091C40170915C
:10165000C5018091C60199270895FC014093CA01F4
:1016600084910895FC014093CA012DE92093340030
:10167000E89511243BBF0895FC0160837183428388
:10168000EC5FFD4F108212923396108212920895F1
:10169000FC0162830895FC01EB5FFD4F8191908115
:1016A00020E08F5F891321E0822F0895CF93DF938D
:1016B000DC01EC01CB5FDD4F8881AA5FBD4F9C91BF
:1016C000A650B24020E08F5F891799F021E0888111
:1016D000FD01E80FF11DED5FFE4F60838F5F888392
:1016E000ED91FC91119783818C7F12969C91892BAF
:1016F0008383822FDF91CF910895FC01ED5FFD4F31
:101700009191808120E0981321E0822F0895FC01BF
:10171000DC01AC5FBD4F8C91E80FF11D83819C9182
:101720009F5F9C930895CF93DF93DC01EC01CD5F25
:10173000DD4F98819F5FAC5FBD4F8C91A450B2404C
:10174000ED91FC911197E081981711F480E007C0AA
:101750008881A80FB11D1396EC93988381E0DF91E7
:10176000CF910895CF93DF93FC01EC01CA5FDD4F69
:101770009881EB5FFD4F8081E550F240A081B181FF
:10178000891739F413968C9113978C7F13968C9349
:101790000AC08881E80FF11DED5FFE4F80818C93B8
:1017A00088818F5F8883DF91CF910895FC0170FF5E
:1017B00003C08481816002C084818E7F84836083C2
:1017C0000895FC01848180FF05C08081282F30E0CE
:1017D000316003C08081282F30E0C9010895E0E422
:1017E000F6E081E081838683E0E5F0E0128288E024
:1017F000809350008FED85838091510083FFFCCF53
:10180000809150008061809350008091510084FF4E
:10181000FCCF98ED94BF84E0E0E4F0E0818394BFD6
:1018200080934000089587E0E0EAF0E08283089525
:10183000F89488ED84BF83E080938000FFCF282F49
:101840008091CF0187FDFCCF8091CF0181FF12C035
:1018500086E3E0ECF1E08287EF93FF930F932F9301
:10186000EBECF1E008ED21E004BF20832F910F9114
:10187000FF91EF91E0ECF1E083E382872093C001D8
:101880009F7191831282648385E38287EF93FF9334
:101890000F932F93EBECF1E008ED21E004BF2083E0
:1018A0002F910F91FF91EF910895282FE0ECF1E037
:1018B0008091CF0187FDFACF2093C0019F71918362
:1018C000128286E08287EF93FF930F932F93EBECC6
:1018D000F1E008ED21E004BF20832F910F91FF91EB
:1018E000EF918091C40108958091CF0187FDFCCFD5
:1018F00008958091CF0187FDFCCF8091CF0181FFBA
:1019000012C086E3E0ECF1E08287EF93FF930F9340
:101910002F93EBECF1E008ED21E004BF20832F9141
:101920000F91FF91EF910895982FE0ECF1E08091F5
:10193000CF0187FDFACF83E382879093C0011182A4
:10194000128264830895DC01E0ECF1E08091CF0124
:1019500087FDFACF83E382871182128290E0909311
:10196000C0018D9184839F5F9032C9F70895982FAD
:10197000E0ECF1E08091CF0187FDFACF892F90E074
:1019800025E0880F991F2A95E1F78093C001892FE0
:101990008F718183128285E38287EF93FF930F9388
:1019A0002F93EBECF1E008ED21E004BF20832F91B1
:1019B0000F91FF91EF910895982FE0ECF1E0809165
:1019C000CF0187FDFACF892F90E035E0880F991F6E
:1019D0003A95E1F78093C001892F8F71818312823C
:1019E00082E38287EF93FF930F932F93EBECF1E069
:1019F00008ED21E004BF20832F910F91FF91EF911B
:101A00000895982FE0ECF1E08091CF0187FDFACFA7
:101A1000892F90E045E0880F991F4A95E1F7809360
:101A2000C001892F8F718183128284E38287EF93B3
:101A3000FF930F932F93EBECF1E008ED21E004BF4F
:101A400020832F910F91FF91EF9108958091CF0105
:101A500087FDFCCF80E3E0ECF1E08287EF93FF931A
:101A60000F932F93EBECF1E008ED21E004BF20830E
:101A70002F910F91FF91EF910895582F8091CF01F1
:101A800087FDFCCF8091CF0181FF12C086E3E0EC9F
:101A9000F1E08287EF93FF930F932F93EBECF1E04C
:101AA00008ED21E004BF20832F910F91FF91EF916A
:101AB00083E3E0ECF1E08287252F392FC901DC01B7
:101AC00090E00BC06093C001872F8F7181831282D9
:101AD0008D9184836F5F7F4F9F5F941798F385E3A9
:101AE000E0ECF1E08287EF93FF930F932F93EBEC01
:101AF000F1E008ED21E004BF20832F910F91FF91C9
:101B0000EF91089580E090E0FC01EC51FB4D1082D4
:101B1000FC01E751FB4D1082019685309105A1F73C
:101B20001092E0241092E3241092E1241092E22417
:101B3000E0E2F7E01482E0ECF7E08091C4078C7FEC
:101B400084831092200783E08283089585FF02C07A
:101B50006093E92486FF02C06093EA2487FF02C0F5
:101B60006093EB2490FF02C06093EC2491FF02C0CD
:101B70006093ED2480FF02C06093E42481FF02C0E3
:101B80006093E52482FF02C06093E62483FF02C0D5
:101B90006093E72484FF02C06093E8240895FB016A
:101BA000813061F0823029F48091E124882331F47E
:101BB0000895833021F48091E224811141830895B6
:101BC0001092200783E0E0ECF7E082838091E92423
:101BD000813059F0823019F48091E12404C08330BF
:101BE00041F48091E224882321F081E0E0E2F7E0F3
:101BF00081838091EA24813059F0823019F48091F8
:101C0000E12404C0833041F48091E224882321F050
:101C100084E0E0E2F7E081838091EB24813059F0A9
:101C2000823019F48091E12404C0833041F4809122
:101C3000E224882321F080E1E0E2F7E081838091D3
:101C4000EC24813059F0823019F48091E12404C0F1
:101C5000833041F48091E224882321F080E4E0E2A3
:101C6000F7E081838091ED24813059F0823019F4BE
:101C70008091E12404C0833041F48091E2248823E0
:101C800021F081E0E0ECF7E081838091E424813071
:101C900059F0823019F48091E12404C0833041F47A
:101CA0008091E224882321F082E0E0E2F7E0818362
:101CB0008091E524813059F0823019F48091E1243B
:101CC00004C0833041F48091E224882321F088E02D
:101CD000E0E2F7E081838091E624813059F08230A0
:101CE00019F48091E12404C0833041F48091E2240E
:101CF000882321F080E2E0E2F7E081838091E7240D
:101D0000813059F0823019F48091E12404C083308D
:101D100041F48091E224882321F080E8E0E2F7E0BA
:101D200081838091E824813069F0823029F48091A8
:101D3000E124882339F40895833041F48091E2242A
:101D4000882321F082E0E0ECF7E081830895909110
:101D5000E0249F5F9093E0249B3048F081E08093E3
:101D6000E1249F3120F01092E1241092E024909120
:101D7000E3249F5F9093E324983048F081E08093C0
:101D8000E2249B3020F01092E2241092E3240F947E
:101D9000E00D08950F94E00D08959C011092200726
:101DA00083E0E0ECF7E0828325FF04C081E0E0E21D
:101DB000F7E0818320FF04C082E0E0E2F7E0818366
:101DC00026FF04C084E0E0E2F7E0818321FF04C045
:101DD00088E0E0E2F7E0818327FF04C080E1E0E2F1
:101DE000F7E0818322FF04C080E2E0E2F7E0818334
:101DF00030FF04C080E4E0E2F7E0818323FF04C009
:101E000080E8E0E2F7E0818331FF04C081E0E0ECAC
:101E1000F7E0818324FF04C082E0E0ECF7E08183F7
:101E20000895DC0101C06D9341505040E0F70895E2
:041E3000F894FFCF54
:081FC000380642041807370738
:0400000320000000D9
:00000001FF
