:100000000C944B030C9475030C9475030C947404BA
:100010000C9475030C9475030C9475030C94750380
:100020000C9475030C9475030C9475030C94750370
:100030000C9475030C9475030C9475030C94750360
:100040000C9475030C9475030C9475030C94750350
:100050000C9475030C9475030C9475030C94D40FD5
:100060000C9475030C9427120C945D120C94750378
:100070000C9475030C9475030C9475030C94750320
:100080000C9475030C9475030C9475030C94750310
:100090000C9475030C9475030C9475030C94750300
:1000A0000C9475030C9475030C9475030C947503F0
:1000B0000C9475030C9475030C9475030C947503E0
:1000C0000C9475030C9475030C9475030C947503D0
:1000D0000C9475030C9475030C9475030C947503C0
:1000E0000C9475030C9475030C9475030C94320BEB
:1000F0000C94420B0C9475030C9475030C94260B12
:100100000C9475030C9475030C9475030C9475038F
:100110000C9475030C9475030C9475030C9475037F
:100120000000000000000000065F0600000703005A
:10013000070300247E247E2400242B6A120000631F
:10014000130864630036495620500000070300007E
:1001500000003E4100000000413E000000083E1C3F
:100160003E080008083E08080000E06000000008A3
:100170000808080800006060000000201008040261
:10018000003E5149453E0000427F40000062514917
:100190004946002249494936001814127F10002FA1
:1001A00049494931003C4A49493000017109050378
:1001B00000364949493600064949291E00006C6C41
:1001C00000000000EC6C0000000814224100002434
:1001D00024242424000041221408000201590906A5
:1001E000003E415D551E007E1111117E007F494980
:1001F0004936003E41414122007F4141413E007F5E
:1002000049494941007F09090901003E4149497AAC
:10021000007F0808087F0000417F41000030404017
:10022000403F007F08142241007F40404040007F53
:100230000204027F007F0204087F003E4141413EEC
:10024000007F09090906003E4151215E007F09092E
:1002500019660026494949320001017F0101003F2A
:100260004040403F001F2040201F003F403C403F97
:1002700000631408146300070870080700714945FB
:10028000430000007F4141000002040810200000EC
:1002900041417F00000402010204008080808080D0
:1002A000000003070000002054545478007F4444A9
:1002B000443800384444442800384444447F0038DB
:1002C0005454540800087E0909000018A4A4A47C12
:1002D000007F040478000000007D4000004080841E
:1002E0007D00007F102844000000007F4000007C5B
:1002F00004180478007C040478000038444444382E
:1003000000FC444444380038444444FC00447844ED
:10031000040800085454542000043E442400003CC7
:1003200040207C00001C2040201C003C6030603CD1
:10033000006C10106C00009CA0603C0000645454E1
:100340004C0000083E414100000000770000000022
:1003500041413E08000201020100003C2623263CE8
:1003600000000000000000000000065F5F060000C3
:100370000007070007070000147F7F147F7F140029
:10038000242E2A6B6B3A1200466630180C66620007
:10039000307A4F5D377A4800000407030000000000
:1003A000001C3E63410000000041633E1C00000051
:1003B000082A3E1C1C3E2A080008083E3E08080089
:1003C000000080E06000000000080808080808003D
:1003D00000000060600000006030180C060301009F
:1003E0003E7F594D477F3E0040427F7F40400000A6
:1003F000627359496F660000226349497F360000E5
:10040000181C16537F7F5000276745457D39000033
:100410003C7E4B4979300000030371790F070000DF
:10042000367F49497F360000064F49693F1E00006C
:100430000000006666000000000080E66600000024
:10044000081C366341000000001414141414140036
:10045000004163361C080000000203595D070200DA
:100460003E7F415D5D5F0E007C7E13137E7C00004D
:10047000417F7F49497F36001C3E63414163220032
:10048000417F7F41633E1C00417F7F495D416300A6
:10049000417F7F491D0103001C3E634151337200BF
:1004A0007F7F08087F7F000000417F7F41000000C0
:1004B000307040417F3F0100417F7F081C7763001F
:1004C000417F7F41406070007F7F0E1C0E7F7F0068
:1004D0007F7F060C187F7F001C3E6341633E1C003B
:1004E000417F7F49090F06001E3F2131617F5E0079
:1004F000417F7F09197F6600266F4D49597332008D
:1005000003417F7F410300007F7F40407F7F0000E9
:100510001F3F60603F1F00003F7F6030607F3F00F3
:1005200063771C081C776300074F78784F0700003B
:10053000476371594D677300007F7F4141000000A0
:100540000103060C183060000041417F7F0000006D
:10055000080C0603060C0800808080808080808064
:100560000000030704000000207454543C7840004D
:10057000417F3F4848783000387C44446C28000074
:10058000307848493F7F4000387C54545C18000064
:10059000487E7F490306000098BCA4A4F87C0400B0
:1005A000417F7F08047C780000447D7D400000008E
:1005B00060E08084FD7D0000417F7F10386C440046
:1005C00000417F7F400000007C7C18781C7C780014
:1005D0007C7804047C780000387C44447C3800003B
:1005E00084FCF8A4243C1800183C24A4F8FC8400E3
:1005F000447C784C040C1800485C5474642400005B
:1006000004043E7F442400003C7C40403C7C40008D
:100610001C3C60603C1C00003C7C6030607C3C000A
:10062000446C3810386C44009CBCA0A0FC7C0000DA
:100630004C64745C4C64000008083E774141000043
:1006400000000077770000004141773E0808000075
:10065000020301030203010070784C464C787000DD
:100660000101637801110128633203C0F80002C35D
:100670000402C40502D01D02B30002B58B0138028A
:100680003A0202360002B09F05F012121212012047
:1006900001290000911211241FBECFEFD1E4DEBF6B
:1006A000CDBF13E0A0E0B2E0E2E8FCE200E00BBF67
:1006B00002C007900D92AA39B107D9F726E0AAE93E
:1006C000B3E001C01D92A338B207E1F713E0CBE419
:1006D000D3E004C02197FE010E944613CA34D1071B
:1006E000C9F70E94EC120C943F160C940000982F4E
:1006F000FB01DA018770907F903D29F128F4903A50
:1007000041F0903BA1F00895903E49F1903F99F15E
:100710000895232B49F424E330E02D933C9323E305
:1007200030E031832083089522E330E0F6CF232B9D
:1007300039F425E230E02D933C9324E230E0F1CF10
:1007400023E230E0F8CF232B39F42BE230E02D9375
:100750003C932AE230E0E5CF29E230E0F8CF232BCA
:1007600039F42EE230E02D933C932DE230E0D9CFE6
:100770002CE230E0F8CF232B39F421E330E02D9345
:100780003C9320E330E0CDCF2FE230E0F8CF1F9351
:10079000CF93DF9300D000D0CDB7DEB7162F30E077
:1007A00020E0AE014D5F5F4FBE016F5F7F4F0E9443
:1007B00077031130A9F150F01230C1F00F900F9073
:1007C0000F900F90DF91CF911F910895E981FA81E9
:1007D000408121E030E0B90102C0660F771F8A95A1
:1007E000E2F7CB01809584238083E8CFE981FA8109
:1007F000408121E030E0B90102C0660F771F8A9581
:10080000E2F7CB01942F982B9083EB81FC819081B0
:10081000982B9083E981FA81908180958923E4CF98
:10082000E981FA81908121E030E001C0220F8A95B0
:10083000EAF7892F822BD8CF1F93CF93DF9300D075
:1008400000D0CDB7DEB7162F30E020E0AE014D5F0F
:100850005F4FBE016F5F7F4F0E947703EB81FC818A
:10086000111115C0408121E030E0B90102C0660FCE
:10087000771F8A95E2F7CB018095842380830F90C0
:100880000F900F900F90DF91CF911F91089590815D
:1008900021E030E001C0220F8A95EAF7892F822BF0
:1008A000EDCFCF93DF9300D000D0CDB7DEB721E0FE
:1008B00030E0AE014D5F5F4FBE016F5F7F4F0E9422
:1008C0007703EB81FC81208130E0A90102C05595BE
:1008D00047958A95E2F7CA0181700F900F900F90AB
:1008E0000F90DF91CF9108951F920F920FB60F9244
:1008F00011248F9383B78E7F83BF8F910F900FBE8C
:100900000F901F90189561E080EB0E941C0461E03D
:1009100080EB0E94C70381E58CBD8DB58EB561E08B
:1009200081EB0E94C70361E082EB0C94C703CF9375
:10093000DF931F92CDB7DEB7898389818EBD0DB459
:1009400007FEFDCF8EB50F90DF91CF9108951F93D5
:10095000CF93DF93182FC0919C0360E08C2F0E94EF
:100960001C04D0919B0360E08D2F0E941C04812FFA
:100970000E94970461E08D2F0E941C0461E08C2F7F
:10098000DF91CF911F910C941C04CF92DF92EF92D4
:10099000FF921F93CF93DF937C016B0110919C0317
:1009A00060E0812F0E941C04E701CE018E199F098F
:1009B0008C159D0524F489910E949704F6CF61E07F
:1009C000812FDF91CF911F91FF90EF90DF90CF901B
:1009D0000C941C04CF92DF92EF92FF920F931F931F
:1009E000CF93DF9300D000D0CDB7DEB78C01E62ED9
:1009F0006A01F22E8AE20E94A704198223E030E005
:100A0000C801B9010E9410136A831B82C8018C0DB2
:100A10009D1D0197B9010E9410136C8364E070E082
:100A2000CE0101960E94C5048BE20E94A7041982A0
:100A3000EA821B82FA94FE0CFC8264E070E0CE0134
:100A400001960E94C5048CE20E94A7040F900F90AB
:100A50000F900F90DF91CF911F910F91FF90EF902A
:100A6000DF90CF900895EF92FF920F931F93CF9353
:100A7000DF9300D000D0CDB7DEB780E6E82E86E069
:100A8000F82EC7010196F7010491033659F4F2E0FC
:100A9000EF0EF11CFC01649170E090E080E00E9498
:100AA0004310EFCF0023C1F0F2E0EF0EF11CFC0188
:100AB00084910E94A704015021F310E0A801B7011E
:100AC000CE0101960E944F13E00EF11EB801CE0137
:100AD00001960E94C504D5CF0F900F900F900F90F4
:100AE000DF91CF911F910F91FF90EF900895803883
:100AF000E1E09E0764F4603A71054CF44138E1E0AE
:100B00005E072CF4213A310514F40C94EA0408959C
:100B10002F923F924F925F926F927F928F929F920D
:100B2000AF92BF92CF92DF92EF92FF920F931F93FB
:100B3000CF93DF93CDB7DEB7CD56D1090FB6F8947A
:100B4000DEBF0FBECDBF4C01A3967FAF6EAFA397A4
:100B50001A016901F701E430F10514F0E3E0F0E077
:100B6000033011050CF097C0702E102F1295110F45
:100B7000110F107C000F000F000FEC54FD4FA080F0
:100B8000D1010D900020E9F7CD0101978219930959
:100B90002C019601225031092230310508F037C16D
:100BA000B3E0CB16D10409F47BC05CE0E52EF12C58
:100BB000E4E0F0E0A196FFAFEEAFA1978E9D90012B
:100BC0008F9D300D9E9D300D1124280D391D21382B
:100BD000314054F080E891E088199909B7010E94EA
:100BE00010132B0177FD1FC2A196AEADBFADA1972B
:100BF00024E0AA0FBB1F2A95E1F7A796BFAFAEAFBF
:100C0000A797C701049763E070E00E94FC126E5F33
:100C10007F4FFB01EE0FFF1FA996FFAFEEAFA99725
:100C20006F963FAE2EAE6F97912F902B8A2D8370CB
:100C3000982BAA969FAFAA978A2D8F71182BAB96E7
:100C40001FAFAB970729AC960FAFAC976F968EADE1
:100C50009FAD6F9782199309841595055CF190E01B
:100C600080E0C359DF4F0FB6F894DEBF0FBECDBF93
:100C7000DF91CF911F910F91FF90EF90DF90CF9078
:100C8000BF90AF909F908F907F906F905F904F90AC
:100C90003F902F90089563E0762E0CE110EE6DCF1B
:100CA0004FE0E42EF12C25E030E0A1963FAF2EAFCF
:100CB000A19784CF6F96AEADBFAD6F978D916F96B4
:100CC000BFAFAEAF6F978052990BB3E0CB16D10494
:100CD00009F06EC0BC0193E0660F771F9A95E1F7AB
:100CE000605A7C4F48E050E0CE018B5A9F4F0E94E3
:100CF0004F13AE014F5F5F4F68E070E0BB24B394C9
:100D0000F7013697A596FFAFEEAFA5979A01A1968A
:100D10000EAD1FADA197040F151FAE961FAF0EAFFE
:100D2000AE97FE01EB5AFF4F90E080E0A596AEAD86
:100D3000BFADA5978A179B070CF047C010811B21F8
:100D4000AA960FADAA97111101C00A2D11811B217E
:100D5000D1F10C7F0729AB961FADAB9762806B205A
:100D600029F0107EAC966FACAC971629AE96AEAD5E
:100D7000BFADAE970C93D9010C938630910549F025
:100D8000AE96AEADBFADAE9711961C93D90111963C
:100D90001C932E5F3F4F0396AE960EAD1FADAE97E0
:100DA0000E5F1F4FAE961FAF0EAFAE973396BECFFE
:100DB00026E0289FB001299F700D1124605E7E4FB0
:100DC00046E050E091CF1A2DC9CFBB0C615071099C
:100DD000A9960EAD1FADA997400F511F6115710562
:100DE00009F094CF20E130E0A701A3966EAD7FAD6E
:100DF000A397C4010E947705A7966EAD7FADA79714
:100E0000CE0101960E94C5048E0C9F1C1FCFCD28D9
:100E100009F07BC049E0489F9001499F300D1124A3
:100E2000280D391D213831405CF080E891E08819A7
:100E3000990969E070E00E9410132B0177FDF3C05F
:100E40007101BB24B3948A2D8F71182BC7018219AD
:100E50009309841595050CF002CFD7016D917D01A2
:100E60006052770B83E0660F771F8A95E1F7605A2F
:100E70007C4F48E050E0CE018B5A9F4F0E944F13A9
:100E800030E020E0CE0101966C017B2D022E01C0E6
:100E9000770F0A94EAF7FE01EB5AFF4FDC0150E0AE
:100EA00040E06081672379F1612F6180672211F052
:100EB000637E602B4630510529F06280672211F075
:100EC0006C7F67296D934D5F5F4F339649305105B5
:100ED00041F703962F5F3F4F28303105B1F628E0E8
:100EE00030E049E050E0A3966EAD7FADA397C4011A
:100EF0000E947705B9E08B0E911C68E170E0C60195
:100F00000E94C504A3CF6A2DD0CF46E0489F900130
:100F1000499F300D1124280D391D213831405CF0D6
:100F200080E891E08819990966E070E00E9410134A
:100F30002B0177FD78C061018A2D8F71182BC601B6
:100F400082199309841595050CF089CED6018D91EF
:100F50006D018052990BB6E0B89FB001B99F700D3A
:100F60001124605E7E4F46E050E0CE018B5A9F4FC9
:100F70000E944F1366967FAD669767966FAD679731
:100F800068969FAD68976996AFAD69976A96BFAD51
:100F90006A976B966FAC6B97FE01319650E040E01C
:100FA0007F0121E030E0042E01C0220F0A94EAF70D
:100FB000872F8223A1F1812FB62EB22211F0837EDA
:100FC000802BB92EB22211F08C7F872980838A2F43
:100FD000822339F1812FBB2EB22211F0837E802B28
:100FE000262111F08C7F8729818332964F5F5F4FD6
:100FF00048305105B1F628E030E046E050E0A396D5
:101000006EAD7FADA397C4010E947705E6E08E0E1A
:10101000911C60E170E0C7010E94C50490CF8A2D49
:10102000CBCF8A2DD8CF8FEF9FEF1BCEEF92FF92C1
:101030000F931F93CF93DF93CDB7DEB7C058D1097D
:101040000FB6F894DEBF0FBECDBFE82E28E830E023
:1010500040E851E070E060E090E080E00E94EA0447
:1010600008E810E0F12C40E850E0B701CE0101960D
:101070000E94611360E870E0CE0101960E94C504F1
:101080000150110981F7C058DF4F0FB6F894DEBF49
:101090000FBECDBFDF91CF911F910F91FF90EF90C9
:1010A00008951F93CF93DF93D82F162FC42F8093CB
:1010B0009C0360939B0340939A030E94830461E026
:1010C0008D2F0E94C70361E083ED0E94C70361E09A
:1010D0008D2F0E941C0461E0812F0E94C70361E0F4
:1010E0008C2F0E94C70361E08C2F0E941C0462E3D6
:1010F00070E080E090E00E94431060E080919A03ED
:101100000E941C0465E070E080E090E00E944310C3
:1011100061E080919A030E941C0466E970E080E01F
:1011200090E00E9443100E94330580E00E94160860
:1011300090E080E0DF91CF911F910895CF92DF92F0
:10114000EF92FF921F93CF93DF936B017C012FE00F
:10115000D222EE24FF24CD28CE28CF2851F090E0D3
:1011600080E0DF91CF911F91FF90EF90DF90CF90C3
:101170000895EA016B017C0160E083ED0E941C048C
:1011800085E00E94970480E00E949704182F61E098
:1011900083ED0E941C0410FDE2CF60E083ED0E940D
:1011A0001C0486E00E94970461E083ED0E941C0409
:1011B00060E083ED0E941C0480E20E9497048E2D63
:1011C0000E9497048D2D0E9497048C2D0E949704F5
:1011D00061E083ED0E941C04CD2B09F160E083EDFA
:1011E0000E941C04C8E7D0E011E010FF14C085E0A5
:1011F0000E94970480E00E949704182F61E070E03D
:1012000080E090E00E944310219779F761E083ED40
:101210000E941C04A4CF61E083ED0E941C0481E0C5
:1012200090E09FCFEF92FF920F931F93CF93DF93A6
:10123000662349F090E080E0DF91CF911F910F91FC
:10124000FF90EF9008958A01F82EEB0160E083EDA6
:101250000E941C0485E00E94970480E00E9497048D
:10126000E82E61E083ED0E941C04E0FCE3CF60E027
:1012700083ED0E941C0481E00E94970480E00E949C
:10128000970461E083ED0E941C0460E083ED0E94FE
:101290001C0486E00E94970461E083ED0E941C0418
:1012A00060E083ED0E941C0482E00E9497048F2D71
:1012B0000E9497048D2F0E9497048C2F0E94970400
:1012C000E801139589910E949704C017D107D1F7BF
:1012D00061E083ED0E941C0460E083ED0E941C0429
:1012E000C4E1D0E011E010FF14C085E00E94970433
:1012F00080E00E949704182F61E070E080E090E0A9
:101300000E944310219779F761E083ED0E941C044D
:1013100091CF61E083ED0E941C0481E090E08CCFCE
:10132000DF92EF92FF920F931F93CF93DF93EB0126
:10133000D82E8A01790160E083ED0E941C0483E0CD
:101340000E9497048D2D0E9497048D2F0E94970470
:101350008C2F0E949704E801CE01801B910B8E1503
:101360009F052CF480E00E9497048993F5CF61E0FB
:1013700083ED0E941C0481E090E0DF91CF911F91EA
:101380000F91FF90EF90DF9008958F929F92AF9210
:10139000BF92CF92DF92EF92FF921F93CF93DF9392
:1013A000C2ECD2E062E089910E94C70382E0C83CAF
:1013B000D807C1F78AE0E7EAF3E0ADE9B3E00190CE
:1013C0000D928A95E1F7C7EAD3E098EBC92E92E037
:1013D000D92E88248394912C1882F60111916F01E3
:1013E00061E0812F0E94C70360E0812F0E941C04EE
:1013F00082ECA82E82E0B82EF12CE12CF50181912F
:101400005F010E945104811109C0888194010E2C52
:1014100001C0220F0A94EAF7822B8883FFEFEF1AAC
:10142000FF0A86E0E816F10449F761E0812F0E9487
:101430001C0460E0812F0E94C7032196E2ECCE16C7
:10144000E2E0DE0649F6DF91CF911F91FF90EF9029
:10145000DF90CF90BF90AF909F908F900895EF92C4
:10146000FF920F931F93CF93DF930E94C509709152
:10147000A703172F18707071C7EAD3E0ADE9B3E086
:1014800030E020E080E00AE0F99050E040E061E0E8
:10149000E22E9F2D962396131DC09C919623D1F486
:1014A000E11004C09DEF940F9230A0F08CE392E025
:1014B000111106C080E092E0711102C088E792E04D
:1014C000049FF001059FF00D1124E80FF91FE20FB2
:1014D000F31F8081660F4F5F5F4F46305105C9F69D
:1014E0002F5F3F4F11962A30310571F6DF91CF9172
:1014F0001F910F91FF90EF900895DC01ED91FC9109
:101500000190F081E02D0994CF93C82F1092D2055D
:101510001092D1051092D5051092D6051092D305E0
:101520008091390181608093390110924E01809140
:101530004201807E88608093420161E070E080E03B
:1015400090E00E944310809141018F718830E1F456
:10155000809144018062809344018CE480934E0129
:1015600085EF8C0F803108F0CBE080914801807EC0
:101570008C2B8093480180914201807E866080930D
:10158000420181E0CF91089580E0FCCFFF920F935C
:101590001F93CF93DF938091D1059091D205892B32
:1015A00009F44EC080914201807E8960809342019F
:1015B000809141018970E1F305EB14E0FF24F3947D
:1015C0008091D1059091D205892BA1F18091D3050D
:1015D0008111FCCF8091D1059091D205CDE78E3756
:1015E000910520F4C091D105D091D20582E08C0FF5
:1015F00080938001D0E0AE01B80181E891E00E94C3
:1016000058130C0F1D1F8091D1059091D2058C1B92
:101610009D0B9093D2058093D10580913901826012
:1016200080933901809139018D7F80933901F09247
:10163000D305C6CF80914201807E866080934201AF
:10164000DF91CF911F910F91FF9008951F920F92FC
:101650000FB60F9211241092D3050F900FBE0F906A
:101660001F9018951F920F920FB60F9211248F930F
:10167000809146018093D4058F910F900FBE0F90FB
:101680001F9018951F920F920FB60F9211240BB650
:101690000F928F939F93AF93BF93EF93FF9380919C
:1016A000D4058770A1F080917B01A0E8B1E0833080
:1016B00070F0E091D60591E09E0F9093D6059C9135
:1016C000F0E0EB54FC4F908381501196F0CFFF91E6
:1016D000EF91BF91AF919F918F910F900BBE0F90A3
:1016E0000FBE0F901F901895EF92FF920F931F93CC
:1016F00080E00E9416081092D8051092D7058FEF4F
:101700009FEFDC018093B1039093B203A093B303E6
:10171000B093B403F12CE12C03E010E022E030E0C0
:1017200048EC52E070E060E090E080E00E948805C4
:1017300022E030E048EE52E060E270E090E080E0CD
:101740000E94880522E030E04FEF52E060E470E054
:1017500090E080E00E9488051092DA051092D90589
:101760001092DC051092DB051F910F91FF90EF9016
:101770000895AF92BF92CF92DF92EF92FF920F93B4
:101780001F93CF93DF93CDB7DEB7A0970FB6F89432
:10179000DEBF0FBECDBF892BB9F18091DB059091E3
:1017A000DC0530E2C32ED12C9F938F9385E293E02A
:1017B0009F938F93CE0101965C019F938F930E941C
:1017C0006813F12CE12C03E010E022E030E0A501E9
:1017D000B60180EC90E00E9488050F900F900F906A
:1017E0000F900F900F90A0960FB6F894DEBF0FBE2B
:1017F000CDBFDF91CF911F910F91FF90EF90DF90C0
:10180000CF90BF90AF9008958091D9059091DA055F
:1018100020E4C22ED12CC8CF2F923F924F925F92DC
:101820006F927F928F929F92AF92BF92CF92DF92F0
:10183000EF92FF920F931F93CF93DF93CDB7DEB755
:10184000C450D1400FB6F894DEBF0FBECDBFB12C4F
:10185000A12CD12CC12C9E012F5F3F4F490133E4B5
:10186000232E312C48E2442E43E0542E56E1652EBF
:1018700053E0752E8091DB059091DC05C816D906E2
:101880000CF0CCC03AE0A316B1040CF0FFC0B601D6
:101890000D2C000C880B990B982F872F762F66271D
:1018A00020E031E0A4010E949009740110E0C09290
:1018B000B5041093B60480E4F701A7EBB4E00190FF
:1018C0000D928A95E1F7E7EBF4E080E09191890FC2
:1018D00027EF34E02E173F07C9F78093F7043092C3
:1018E000D2052092D1050E94C60A1F5F30E4E30EA4
:1018F000F11C1430E1F6CF5FDE4F188219821A8294
:101900001B82C150D1409091D5058091D605981386
:1019100021C0CF5FDE4F88819981AA81BB81C150F0
:10192000D140803E9349A440B105A0F4CF5FDE4F83
:1019300088819981AA81BB81C150D1400196A11DA6
:10194000B11DCF5FDE4F88839983AA83BB83C150CB
:10195000D140D9CFCF5FDE4F88819981AA81BB81E9
:10196000C150D140803E9349A440B10500F18FEFB2
:10197000A81AB80ABF92AF92DF92CF927F926F926D
:101980009F928F920E946813F12CE12C03E010E0EB
:1019900022E030E0A40168E770E090E080E00E947F
:1019A00088050FB6F894DEBF0FBECDBF63CFE091C0
:1019B000D50581E08E0F8093D505F0E0EB54FC4F08
:1019C0008081803139F53FEFC31AD30ADF92CF927D
:1019D0005F924F929F928F920E946813F12CE12C9C
:1019E00003E010E022E030E0A40168E770E090E05E
:1019F00080E00E9488056CE370E080E090E00E9447
:101A000043100F900F900F900F900F900F90B12CEC
:101A1000A12C30CF8FEFA81AB80A2CCF8C159D05BA
:101A2000A9F581E58093B5041092B60482E090E0B8
:101A30009093D2058093D1050E94C60AF12CE12C27
:101A400003E010E022E030E049E353E068E770E0B3
:101A500090E080E00E948805CC5FDE4F0FB6F894DE
:101A6000DEBF0FBECDBFDF91CF911F910F91FF90D1
:101A7000EF90DF90CF90BF90AF909F908F907F902E
:101A80006F905F904F903F902F900895F12CE12C34
:101A900003E010E022E030E04CE453E0D7CF42EA2C
:101AA00050E066ED70E087EE90E00E9451080E94E1
:101AB000740B8AE10E94840A68EB7BE080E090E08E
:101AC0000E94431026E040E051EE60E070E086EEB8
:101AD00095E00C94C511CF93DF93CDB7DEB7DA95BF
:101AE0000FB6F894DEBF0FBECDBF212C312C2101E3
:101AF000D12C8091D7059091D805892B31F00E9487
:101B00002F0A823721F50E940C0C86EE95E00E9488
:101B1000DE10181619060CF019C286EE95E00E9428
:101B2000F810182F2AE02D1508F426C2ED2DF0E04C
:101B3000E456F24F0C944613A90E790FAC0D800FAA
:101B40004A0F7A0FC50D500E070EBC0F660F833774
:101B5000E1F60E94740BD9CF782E33E0D32E90910A
:101B6000D5058091D605981709F4C3CFE091D50526
:101B700081E08E0F8093D505F0E0EB54FC4F60813F
:101B800086EE95E00E947811EACF8091D105909180
:101B9000D2059C012F5F3F4F3093D2052093D10592
:101BA0008B549B4FFC0110838091D1059091D205FD
:101BB0000497A9F6103299F664E170E086EE95E09C
:101BC0000E947D0A60E170E086EE95E00E947D0A49
:101BD0001092D2051092D1058090B604912CB12CB0
:101BE000A12C880C991CAA1CBB1C8091B70490E006
:101BF000B0E0A0E029E0880F991FAA1FBB1F2A951B
:101C0000D1F7880E991EAA1EBB1ED12CA8CF809199
:101C1000D1059091D2059C012F5F3F4F3093D205A3
:101C20002093D1058B549B4FFC0110838091D105EB
:101C30009091D205059709F092CF103209F08FCF1D
:101C40008091D9059091DA0501969093DA058093F9
:101C5000D90590E080E00E94B90B1092D205109255
:101C6000D10564E170E086EE95E00E947D0A20E0F7
:101C700031E0AE014F5F5F4FC501B4010E94900992
:101C800040E051E0BE016F5F7F4F86EE95E00E941D
:101C9000BE1260E170E086EE95E00E947D0AB5CF4D
:101CA0008091D1059091D2059C012F5F3F4F3093D9
:101CB000D2052093D1058B549B4FFC01108380915A
:101CC000D1059091D2058530914009F048CF10326E
:101CD00009F045CF8091DB059091DC05019690934A
:101CE000DC058093DB0581E090E00E94B90B109247
:101CF000D2051092D10564E170E086EE95E00E9475
:101D00007D0A8091B1039091B203A091B303B09189
:101D1000B403B501A4014427507F481759076A0747
:101D20007B0771F041E050E0C501B4010E949E08BC
:101D30008092B1039092B203A092B303B092B40325
:101D400049EB54E0C501B4010E941209892BC1F38B
:101D5000A0CF813509F040C062E070E080E090E003
:101D60000E9443108091D1059091D2059C012F5F74
:101D70003F4F3093D2052093D1058B549B4FFC01EC
:101D8000108386EE95E00E94F8102091D1053091E5
:101D9000D205A9014F5F5F4F5093D2054093D10503
:101DA0002B543B4FF90180838091D7059091D80542
:101DB000892B09F4D4CEF12CE12C03E010E022E0D1
:101DC00030E04BE653E060E670E090E080E00E9497
:101DD00088050E940C0CC3CE853591F48091D10505
:101DE0009091D2059C012F5F3F4F3093D2052093F5
:101DF000D1058B549B4FFC01108316E0D12EAFCE42
:101E0000843691F48091D1059091D2059C012F5F89
:101E10003F4F3093D2052093D1058B549B4FFC014B
:101E20001083B7E0DB2E9BCE8437C1F48091D105BF
:101E30009091D2059C012F5F3F4F3093D2052093A4
:101E4000D1058B549B4FFC01108381E090E090936F
:101E5000D8058093D705A8E0DA2E81CE803309F427
:101E60008EC0813409F48EC0823409F48EC085346A
:101E700009F491C0863509F492C0853729F40E948F
:101E8000740BF4E0DF2E6BCE803509F068CEE5E010
:101E9000DE2E65CE803209F062CE64E170E086EE1F
:101EA00095E00E947D0A6EE170E086EE95E00E946A
:101EB0007D0A67EA70E086EE95E00E947D0A61E0A7
:101EC00070E086EE95E00E947D0AE3CECC2011F012
:101ED000CA9445CE803209F042CE64E170E086EECD
:101EE00095E00E947D0A70E060E0662009F4D1CEA2
:101EF000E8CF1F77103209F032CE64E170E0E1CF15
:101F0000803209F082CEF0E87F16A9F021E872163F
:101F1000A9F082E87816A9F0E8E97E1215C064E11C
:101F200070E086EE95E00E947D0A6D2D86EE95E0CC
:101F30000E947811AECE72E0D72EF1CFDD24D3947B
:101F4000EECF60E1D62EEBCFD12CE9CFFFEF2F1AE9
:101F50003F0A4F0A5F0A21E4221622E432062FE0EC
:101F60004206510408F4FBCD1092D2051092D1051F
:101F7000212C312C210149CE59E0D52EF0CDDD2484
:101F8000D394EDCD42E0D42EEACD6D2C34E1C32EB6
:101F90008AE0D82EE4CD6D2C25E0C22EF9CF662440
:101FA000639494E0C92EF4CF1F920F920FB60F9254
:101FB00011242F933F938F939F93AF93BF9380915F
:101FC000DE059091DF05A091E005B091E10530912B
:101FD000DD0523E0230F2D3758F50196A11DB11D16
:101FE0002093DD058093DE059093DF05A093E00547
:101FF000B093E1058091E2059091E305A091E4059D
:10200000B091E5050196A11DB11D8093E205909365
:10201000E305A093E405B093E505BF91AF919F91CF
:102020008F913F912F910F900FBE0F901F90189599
:1020300026E8230F0296A11DB11DD2CF3FB7F89419
:102040008091E2059091E305A091E405B091E5054A
:1020500026B5A89B05C02F3F19F00196A11DB11D03
:102060003FBFBA2FA92F982F8827BC01CD01620F3F
:10207000711D811D911D42E0660F771F881F991FFA
:102080004A95D1F708958F929F92AF92BF92CF92C7
:10209000DF92EF92FF926B017C010E941E104B01B8
:1020A0005C01C114D104E104F104E9F00E94FB12C7
:1020B0000E941E10681979098A099B09683E7340BD
:1020C0008105910570F321E0C21AD108E108F108F9
:1020D00088EE880E83E0981EA11CB11CC114D104A7
:1020E000E104F10429F7FF90EF90DF90CF90BF90CB
:1020F000AF909F908F900895789484B5826084BD4E
:1021000084B5816084BD85B5826085BD85B58160FB
:1021100085BDEEE6F0E0808181608083E1E8F0E05B
:102120001082808182608083808181608083E0E88A
:10213000F0E0808181608083E1EBF0E08081846069
:102140008083E0EBF0E0808181608083E1E9F0E072
:10215000808182608083808181608083E0E9F0E01B
:10216000808181608083E1EAF0E080818260808309
:10217000808181608083E0EAF0E0808181608083FB
:10218000E1E2F1E0808182608083808181608083F0
:10219000E0E2F1E0808181608083EAE7F0E0808125
:1021A000846080838081826080838081816080837D
:1021B0008081806880831092C1000895FC01918D18
:1021C000228D892F90E0805C9F4F821B91098F7335
:1021D00099270895FC01918D828D981731F0828D99
:1021E000E80FF11D858D90E008958FEF9FEF089522
:1021F000FC01918D828D981761F0A28DAE0FBF2FDB
:10220000B11D5D968C91928D9F5F9F73928F90E030
:1022100008958FEF9FEF0895FC01538D448D252F76
:1022200030E0842F90E0821B930B541710F0CF9670
:1022300008950197089587E892E1892B49F080E09D
:1022400090E0892B29F00E94871281110E940000E2
:1022500080E090E0892B49F080E090E0892B29F024
:102260000E94000081110C9400000895FC01A48DCF
:10227000A80FB92FB11DA35ABF4F2C91848D90E0A8
:1022800001968F739927848FA689B7892C93A0898B
:10229000B1898C91837080648C93938D848D981315
:1022A00006C00288F389E02D80818F7D80830895A8
:1022B000CF93DF93EC01888D8823B9F0AA89BB897D
:1022C000E889F9898C9185FD03C0808186FD0DC068
:1022D0000FB607FCF7CF8C9185FFF2CF808185FF89
:1022E000EDCFCE010E943611E9CFDF91CF91089555
:1022F000EF92FF920F931F93CF93DF93EC0181E056
:10230000888F9B8D8C8D98131AC0E889F9898081FC
:1023100085FF15C09FB7F894EE89FF896083E8892F
:10232000F98980818370806480839FBF81E090E021
:10233000DF91CF911F910F91FF90EF900895F62EAE
:102340000B8D10E00F5F1F4F0F731127E02E8C8D48
:102350008E110CC00FB607FCFACFE889F98980818D
:1023600085FFF5CFCE010E943611F1CFEB8DEC0F3A
:10237000FD2FF11DE35AFF4FF0829FB7F8940B8FAA
:10238000EA89FB8980818062CFCFCF92DF92EF9282
:10239000FF921F93CF93DF93EC016A017B01122F11
:1023A000E889F98982E08083C11481EED806E104CE
:1023B000F104A1F060E079E08DE390E0A7019601DF
:1023C0000E9424132150310941095109569547951E
:1023D00037952795211580E1380798F0E889F98924
:1023E000108260E874E88EE190E0A70196010E94F7
:1023F00024132150310941095109569547953795C4
:102400002795EC85FD853083EE85FF852083188E2A
:10241000EC89FD891083EA89FB8980818061808352
:10242000EA89FB89808188608083EA89FB898081D1
:1024300080688083EA89FB8980818F7D8083DF913A
:10244000CF911F91FF90EF90DF90CF9008951F9252
:102450000F920FB60F9211240BB60F922F938F93FA
:102460009F93EF93FF93E091F605F091F70580813C
:10247000E091FC05F091FD0582FD1DC090818091E9
:10248000FF058F5F8F7320910006821741F0E09166
:10249000FF05F0E0EA51FA4F958F8093FF05FF9119
:1024A000EF919F918F912F910F900BBE0F900FBEC8
:1024B0000F901F9018958081F2CF1F920F920FB648
:1024C0000F9211240BB60F922F933F934F935F936C
:1024D0006F937F938F939F93AF93BF93EF93FF93EC
:1024E00086EE95E00E943611FF91EF91BF91AF917A
:1024F0009F918F917F916F915F914F913F912F911C
:102500000F900BBE0F900FBE0F901F90189586EE88
:1025100095E00E94DE1021E0892B09F420E0822F53
:102520000895E6EEF5E01382128288EE93E0A0E0D3
:10253000B0E084839583A683B7838BE893E091838F
:10254000808385EC90E09587848784EC90E0978782
:10255000868780EC90E0918B808B81EC90E0938B70
:10256000828B82EC90E0958B848B86EC90E0978B4D
:10257000868B118E128E138E148E0895AF92BF9299
:10258000CF92DF92EF92FF920F931F93CF93DF933F
:102590006C017B018B01040F151FEB015E01AE186E
:1025A000BF08C017D10759F06991D601ED91FC9190
:1025B0000190F081E02DC6010995892B79F7C501BD
:1025C000DF91CF911F910F91FF90EF90DF90CF900F
:1025D000BF90AF90089508950E947C100E94EB1266
:1025E0000E944F0DCBE1D1E10E946B0D2097E1F3EA
:1025F0000E941B11F9CF0895AA1BBB1B51E107C014
:10260000AA1FBB1FA617B70710F0A61BB70B881F82
:10261000991F5A95A9F780959095BC01CD01089511
:1026200097FB072E16F4009407D077FD09D00E947F
:10263000FC1207FC05D03EF4909581959F4F0895BC
:10264000709561957F4F0895A1E21A2EAA1BBB1BBE
:10265000FD010DC0AA1FBB1FEE1FFF1FA217B3076E
:10266000E407F50720F0A21BB30BE40BF50B661F84
:10267000771F881F991F1A9469F760957095809548
:1026800090959B01AC01BD01CF010895EE0FFF1F96
:102690000024001C0BBE0790F691E02D0994FB016D
:1026A000DC0102C005900D9241505040D8F70895CA
:1026B000FB01DC0102C001900D9241505040D8F75F
:1026C0000895DC0101C06D9341505040E0F708953A
:1026D0000F931F93CF93DF93CDB7DEB72E970FB62F
:1026E000F894DEBF0FBECDBF0D891E8986E08C83B6
:1026F0001A8309838FEF9FE79E838D83AE01475E28
:102700005F4F6F89788DCE0101960E9498132F81BB
:102710003885020F131FF80110822E960FB6F89419
:10272000DEBF0FBECDBFDF91CF911F910F910895F6
:102730002F923F924F925F926F927F928F929F92D1
:10274000AF92BF92CF92DF92EF92FF920F931F93BF
:10275000CF93DF93CDB7DEB72B970FB6F894DEBFDC
:102760000FBECDBF7C013B018A01FC01178216829E
:10277000838181FFDDC1CE0101965C01F701938168
:10278000F30193FD859193FF81913F01882309F423
:1027900053C1853239F493FD859193FF81913F01B7
:1027A000853229F4B70190E00E94B115E7CF912C52
:1027B000212C312CFFE1F31538F08B3211F190F41C
:1027C000803209F1833229F137FC3CC020ED280F1B
:1027D0002A3050F536FE20C08AE0989E200D112444
:1027E000922E06C08D3291F0803371F7689430F8E4
:1027F000F30193FD859193FF81913F018111DACF20
:1028000021C0689431F8689432F8F2CF689433F8B4
:10281000EFCF689434F8ECCFEAE02E9E200D11241F
:10282000222E689435F8E4CF8E3229F436FC04C1A8
:10283000689436F8DDCF8C3619F4689437F8D8CF21
:102840008836B1F2982F9F7D95549330E0F083360F
:10285000A1F18337C1F1833509F063C02801F2E0AB
:102860004F0E511CF801C080D180692D70E036FCFC
:1028700002C06FEF7FEFC6010E949B154C01689468
:1028800037F882010AC00C5F1F4FFFE3F9838824E9
:102890008394912C6501E89437F833FE2DC0522CB7
:1028A0008114910471F5552009F468CFB70180E2D5
:1028B00090E00E94B1155A94F6CFF8018081898387
:1028C0000E5F1F4FE4CF2801F2E04F0E511CF801BC
:1028D000C080D180692D70E036FC02C06FEF7FEFC1
:1028E000C6010E94A6154C018201D5CFB70180E236
:1028F00090E00E94B1152A942814190409F0B0F749
:10290000CECFF60137FC859137FE81916F01B7017B
:1029100090E00E94B11551105A94F1E08F1A91087D
:10292000BFCF843619F0893609F077C0F80137FE39
:102930006BC060817181828193810C5F1F4FF32D89
:10294000FF763F2E97FF09C0909580957095619511
:102950007F4F8F4F9F4F689437F82AE030E0A501F2
:102960000E94E115C82ECA188C2C432C36FE0CC0D0
:10297000E89440F8C91440F434FE05C032FC03C0AA
:10298000F32DFE7E4F2E892C44FEAAC0FE01EC0DD5
:10299000F11D8081803309F09CC0242D297E422EB8
:1029A000842D8870582E43FCAAC040FEA4C09C2CE5
:1029B000821418F42C0C922C981844FEA6C0B7016F
:1029C00080E390E00E94B11542FE09C088E790E0E4
:1029D00041FE02C088E590E0B7010E94B115C9141C
:1029E00008F49FC0CA94D12C9FEFC91AD90ACA0C07
:1029F000DB1CF60182916F01B70190E00E94B115D6
:102A0000AC14BD04B1F74FCF60817181072E000C6B
:102A1000880B990B0E5F1F4F92CFD32CE894D4F8FC
:102A20002AE030E08537E1F1232D297FD22E8F3641
:102A3000A9F1F0F4883551F1F701868197812B9641
:102A40000FB6F894DEBF0FBECDBFDF91CF911F91BF
:102A50000F91FF90EF90DF90CF90BF90AF909F903D
:102A60008F907F906F905F904F903F902F90089540
:102A7000803749F0883701F7D4FE02C06894D2F855
:102A800020E130E00DC06894D4F8F6CF34FE03C0E6
:102A9000822F8660D82E20E132E002C028E030E0AC
:102AA000F801D7FE0FC060817181828193810C5F34
:102AB0001F4FA5010E94E115C82ECA183D2CE894AD
:102AC00037F852CF6081718190E080E00E5F1F4F38
:102AD000F0CF42FC02C0839463CF8394839460CF91
:102AE000842D867809F45CCFF6CFB70180E290E0C0
:102AF0000E94B11583948214C0F3512C5ECF522CE6
:102B00005818821408F459CFF8CF842D867809F428
:102B100066CF8BE241FE80E247FC8DE2B70190E098
:102B20005CCFB70180E390E00E94B1159A9457CF33
:102B30008FEF9FEF84CFFC01059061507040011032
:102B4000D8F7809590958E0F9F1F0895FC016150D6
:102B5000704001900110D8F7809590958E0F9F1FBF
:102B600008950F931F93CF93DF93182F092FEB0135
:102B70008B8181FD09C01FEF0FEF812F902FDF9117
:102B8000CF911F910F91089582FF14C02E813F8134
:102B90008C819D81281739073CF4E881F981CF01A8
:102BA00001969983888310838E819F8101969F83EC
:102BB0008E83E3CFE885F985812F0995892BA1F3D1
:102BC000DACFFA01AA27283051F1203181F1E894B7
:102BD0006F936E7F6E5F7F4F8F4F9F4FAF4FB1E010
:102BE0003ED0B4E03CD0670F781F891F9A1FA11D0B
:102BF000680F791F8A1F911DA11D6A0F711D811D0C
:102C0000911DA11D20D009F468943F912AE0269FD0
:102C100011243019305D3193DEF6CF010895462F2F
:102C20004770405D4193B3E00FD0C9F7F6CF462F10
:102C30004F70405D4A3318F0495D31FD4052419379
:102C400002D0A9F7EACFB4E0A69597958795779536
:102C50006795BA95C9F700976105710508959B01BD
:102C6000AC010A2E06945795479537952795BA9546
:102C7000C9F7620F731F841F951FA01D0895F89454
:022C8000FFCF84
:102C820021323324253627222829717765727479F7
:102C920075695B5D3D2B2D6667686A3A3F08007A6D
:102CA200786376626E050004000D0000013C3E6D03
:102CB2000203F0F1F2F3F4F5F6F7F8F931323334B6
:102CC20035363738393051574552545955494F5096
:102CD2004153444647484A4B4C08005A58435642CF
:102CE2004E050004000D00005F2C2E4D0203F0F192
:102CF200F2F3F4F5F6F7F8F9313233343536373882
:102D0200393071776572747975696F706173646651
:102D120067686A6B6C08007A786376626E050004F5
:102D2200000D0000202C2E6D0203F0F1F2F3F4F5F9
:102D3200F6F7F8F9004992FFE4F1F3E2E1D7A0A532
:102D4200D5D4E6B7B6B5B4E02A2A204C61727279BE
:102D5200277320576972656C6573732055706C6FA9
:102D620061646572202A2A00426C6F636B7320775C
:102D720072697474656E3A2030202020202000424F
:102D82006C6F636B7320726561642020203A20307F
:102D9200202020202000506167652025642C2052CD
:102DA20065747279202564005061676573207365CC
:102DB2006E743A2025642020005375636365737333
:102DC2002120202020202020202020004661696C24
:102DD2006564212028722965747279202F20287356
:102DE2002974617274206F7665720052656164792C
:102DF200212050726573732034206F6E2072656DCE
:102E02006F746520584500000000007811BE120C56
:0A2E1200115811DE10F810EA10004C
:00000001FF
