:100000000C944A030C9469030C9469030C948304C4
:100010000C9469030C9469030C9469030C946903B0
:100020000C9469030C9469030C9469030C946903A0
:100030000C9469030C9469030C9469030C94690390
:100040000C9469030C9469030C9469030C94690380
:100050000C9469030C9469030C9469030C94AD0827
:100060000C9469030C9469030C9469030C94690360
:100070000C9469030C9469030C9469030C94690350
:100080000C9469030C9469030C9469030C94690340
:100090000C9469030C9469030C9469030C94690330
:1000A0000C9469030C9469030C9469030C94690320
:1000B0000C9469030C9469030C9469030C94690310
:1000C0000C9469030C9469030C9469030C94690300
:1000D0000C9469030C9469030C9469030C946903F0
:1000E0000C9469030C9469030C9469030C946903E0
:1000F0000C9469030C9469030C9469030C946903D0
:100100000C9469030C9469030C9469030C946903BF
:100110000C9469030C9469030C9469030C946903AF
:100120000101637801110128633203C0F80002C3A2
:100130000402C40502D01D02B30002B58B013802CF
:100140003A0202360002B09F05F01212121201208C
:1001500001290000000000000000005E0000000017
:100160000E000E0000D070DC705800264AFF5222AC
:100170000000462A1A0E047E7642456B5100000E9E
:10018000020000007E8100000000817E000000006F
:100190001C0000000000207C2000000000806000A7
:1001A0000000101010000000400000000000FE00E1
:1001B000000000003048483000104878400000003F
:1001C0004262524A4600882838C000002050484801
:1001D000E0F02828C8480000384C46261A0888480D
:1001E000281808142A462A140000304848A8780025
:1001F0000048000000000080680000081422410050
:10020000000030303030004122140800000002525B
:100210000A060000384442A2BC2040621412146254
:100220007E4A4A34001C2242424224427E424224F8
:1002300018427E4A4A420000427E0A02001C2242C4
:1002400052E40000427E087E4200427E42000002EC
:10025000827E02000000427E08081600427E406056
:1002600000007E44081008007E420408087E2442F4
:10027000422418027E52120C0018244242A4184252
:100280007E460E1620F3C6464A370002027E020260
:100290000000023E403E02021E20402012020E20BC
:1002A00040221E42661A1E6642020A5060500A022E
:1002B00042624A42200000FE82000000FE00000070
:1002C000000082FE000000001C06180000808080F4
:1002D000808000000002000000285858784000404C
:1002E0003F484838003048483000003848483F40D0
:1002F00000306868300000487F0902000098686894
:10030000588400407F08487840007840000000088A
:10031000FA08000000407F081428487E40000000D2
:100320000048784878487848780848784030484805
:1003300030000008F048483000304848F0080040DD
:100340007800080000306868100000083E48482027
:100350000008783848000018402018080038403855
:10036000403840482810284800083848F80000481D
:1003700068584800000000106C820000007E0000F9
:10038000000000826C10000020102010000000000F
:1003900000000000000000000000005F5C000000A2
:1003A0000000000307000307000000143E3C143E59
:1003B0003C14006F6D49FF7D497B000103737F3F53
:1003C0007F79783F3F7D497F3F7C480307000000ED
:1003D000000000FFFF00000000000000FCFFFF0025
:1003E0000000001E1E1E0C3F0C1E1E08083E0808C2
:1003F000000000C0C000000000000008080808005D
:100400000000004040000000000000707E1F03005C
:100410000000003F7F7D417F3F0000027E7F0000A3
:1004200000000079794B4F0000000049497D7F00B2
:100430000000000F08087C7F0000004F4B497979CD
:100440000000007F7F7D497900000001017D7F0071
:100450000000007F7F7D497F0000004F4F497D7F76
:100460000000002828000000000000D0D00000009C
:10047000000000081C3622000000001414141400B0
:1004800000000022361C08000000000351590B0F29
:100490000000007EFF833D3F173F3F7F7F7D0909BE
:1004A0007F00007F7F6D6D7F3F00003F7F414100F7
:1004B0000000007F7D61617F3F00007F7F7D4949B3
:1004C0000000007F7F7D09090000007F7F7D497863
:1004D0000000007F7C08087F0000007F7C00000097
:1004E000000000FFFC0000000000007F7E0C0C7F7D
:1004F0007F00007F7C4040000000007F7D017F7F07
:100500007D7F7F7F7D01017F7F00003F7F61677F6F
:100510003F00007F7F0D0D0F0700003F7F61E7FF69
:10052000BF00007F7F0D0D7F7F00006F6D49497B0D
:1005300000000001017F7D010000003F7C40407F02
:100540000000001F3C7C60703F1F003F7C607F7C90
:10055000607F3F7F7E0C0C7F7F00000F5F585F7FC6
:100560003F00006171594D47000000FFFC00000092
:10057000000000031F7E7000000000000FFF00005D
:100580000000000203010302000000404040404020
:1005900000000001030200000000007F7F7D0909C8
:1005A0007F00007F7F6D6D7F3F00003F7F414100F6
:1005B0000000007F7D61617F3F00007F7F7D4949B2
:1005C0000000007F7F7D09090000007F7F7D497862
:1005D0000000007F7C08087F0000007F7C00000096
:1005E000000000FFFC0000000000007F7E0C0C7F7C
:1005F0007F00007F7C4040000000007F7D017F7F06
:100600007D7F7F7F7D01017F7F00003F7F61677F6E
:100610003F00007F7F0D0D0F0700003F7F61E7FF68
:10062000BF00007F7F0D0D7F7F00006F6D49497B0C
:1006300000000001017F7D010000003F7C40407F01
:100640000000001F3C7C60703F1F003F7C607F7C8F
:10065000607F3F7F7E0C0C7F7F00000F5F585F7FC5
:100660003F00006171594D4700000004FFFF00008A
:10067000000000FFFC00000000000000FCFFFF0481
:100680000000000203030100000000000000000061
:100690000000000011241FBECFEFD1E4DEBFCDBFAC
:1006A00012E0A0E0B2E0E4E0F4E100E00BBF02C041
:1006B00007900D92A031B107D9F722E0A0E1B2E096
:1006C00001C01D92AC31B207E1F70E94B8090C9449
:1006D000000A0C940000EF92FF920F931F9342EADE
:1006E00050E066ED70E087EE90E00E946008F12C2B
:1006F000E12C03E010E023E030E040E052E070E065
:1007000060E090E080E00E94970522E030E040E069
:1007100052E06EE170E090E080E00E94970530E0EA
:1007200020E040E052E06CE370E090E080E00E9466
:10073000970521E030E040E052E060E670E090E0B4
:1007400080E00E9497051F910F91FF90EF90089510
:100750000895982FFB01DA018770907F903D29F171
:1007600028F4903A41F0903BA1F00895903E49F171
:10077000903F99F10895232B49F424E330E02D9321
:100780003C9323E330E031832083089522E330E07B
:10079000F6CF232B39F425E230E02D933C9324E26D
:1007A00030E0F1CF23E230E0F8CF232B39F42BE215
:1007B00030E02D933C932AE230E0E5CF29E230E0AF
:1007C000F8CF232B39F42EE230E02D933C932DE229
:1007D00030E0D9CF2CE230E0F8CF232B39F421E3FD
:1007E00030E02D933C9320E330E0CDCF2FE230E09A
:1007F000F8CF1F93CF93DF9300D000D0CDB7DEB7F3
:10080000162F30E020E0AE014D5F5F4FBE016F5FFD
:100810007F4F0E94A9031130A9F150F01230C1F0AE
:100820000F900F900F900F90DF91CF911F9108952F
:10083000E981FA81408121E030E0B90102C0660F10
:10084000771F8A95E2F7CB01809584238083E8CFD8
:10085000E981FA81408121E030E0B90102C0660FF0
:10086000771F8A95E2F7CB01942F982B9083EB8129
:10087000FC819081982B9083E981FA819081809509
:100880008923E4CFE981FA81908121E030E001C041
:10089000220F8A95EAF7892F822BD8CF1F93CF9307
:1008A000DF9300D000D0CDB7DEB7162F30E020E0C8
:1008B000AE014D5F5F4FBE016F5F7F4F0E94A90386
:1008C000EB81FC81111115C0408121E030E0B901BC
:1008D00002C0660F771F8A95E2F7CB0180958423CB
:1008E00080830F900F900F900F90DF91CF911F9109
:1008F0000895908121E030E001C0220F8A95EAF747
:10090000892F822BEDCF1F920F920FB60F921124D9
:100910008F9383B78E7F83BF8F910F900FBE0F9001
:100920001F90189561E080EB0E944E0461E080EB1F
:100930000E94F90381E58CBD8DB58EB561E081EB38
:100940000E94F90361E082EB0C94F903CF93DF93EB
:100950001F92CDB7DEB7898389818EBD0DB407FEA6
:10096000FDCF8EB50F90DF91CF9108951F93CF9358
:10097000DF93182FC091120260E08C2F0E944E046A
:10098000D091110260E08D2F0E944E04812F0E94B1
:10099000A60461E08D2F0E944E0461E08C2FDF9150
:1009A000CF911F910C944E04CF92DF92EF92FF9261
:1009B0001F93CF93DF937C016B011091120260E0D3
:1009C000812F0E944E04E701CE018E199F098C15DC
:1009D0009D0524F489910E94A604F6CF61E0812F41
:1009E000DF91CF911F91FF90EF90DF90CF900C940B
:1009F0004E04CF92DF92EF92FF920F931F93CF930B
:100A0000DF9300D000D0CDB7DEB78C01E62E6A01AF
:100A1000F22E8AE20E94B604198223E030E0C80177
:100A2000B9010E94DC096A831B82C8018C0D9D1DDF
:100A30000197B9010E94DC096C8364E070E0CE018B
:100A400001960E94D4048BE20E94B6041982EA82C5
:100A50001B82FA94FE0CFC8264E070E0CE010196E9
:100A60000E94D4048CE20E94B6040F900F900F9065
:100A70000F90DF91CF911F910F91FF90EF90DF903A
:100A8000CF900895EF92FF920F931F93CF93DF9330
:100A900000D000D0CDB7DEB780E2E82E81E0F82E9E
:100AA000C7010196F7010491033659F4F2E0EF0E05
:100AB000F11CFC01649170E090E080E00E941C0950
:100AC000EFCF0023C1F0F2E0EF0EF11CFC018491A6
:100AD0000E94B604015021F310E0A801B701CE0135
:100AE00001960E94F009E00EF11EB801CE010196B8
:100AF0000E94D404D5CF0F900F900F900F90DF91EC
:100B0000CF911F910F91FF90EF9008958038E1E011
:100B10009E0764F4603A71054CF44138E1E05E07E9
:100B20002CF4213A310514F40C94F90408952F9211
:100B30003F924F925F926F927F928F929F92AF926D
:100B4000BF92CF92DF92EF92FF920F931F93CF93BA
:100B5000DF93CDB7DEB7CD56D1090FB6F894DEBF1F
:100B60000FBECDBF4C01A3967FAF6EAFA3971A0106
:100B70006901F701E430F10514F0E3E0F0E003303F
:100B800011050CF097C0702E102F1295110F110F38
:100B9000107C000F000F000FE45FFD4FA080D1011B
:100BA0000D900020E9F7CD010197821993092C01DE
:100BB0009601225031092230310508F037C1B3E0E7
:100BC000CB16D10409F47BC05CE0E52EF12CE4E007
:100BD000F0E0A196FFAFEEAFA1978E9D90018F9DA3
:100BE000300D9E9D300D1124280D391D21383140C6
:100BF00054F080E891E088199909B7010E94DC0956
:100C00002B0177FD1FC2A196AEADBFADA19724E029
:100C1000AA0FBB1F2A95E1F7A796BFAFAEAFA79764
:100C2000C701049763E070E00E94C8096E5F7F4FC0
:100C3000FB01EE0FFF1FA996FFAFEEAFA9976F96CE
:100C40003FAE2EAE6F97912F902B8A2D8370982BED
:100C5000AA969FAFAA978A2D8F71182BAB961FAFBC
:100C6000AB970729AC960FAFAC976F968EAD9FAD43
:100C70006F9782199309841595055CF190E080E0E7
:100C8000C359DF4F0FB6F894DEBF0FBECDBFDF9163
:100C9000CF911F910F91FF90EF90DF90CF90BF9079
:100CA000AF909F908F907F906F905F904F903F900C
:100CB0002F90089563E0762E0CE110EE6DCF4FE09B
:100CC000E42EF12C25E030E0A1963FAF2EAFA197A6
:100CD00084CF6F96AEADBFAD6F978D916F96BFAF5E
:100CE000AEAF6F978052990BB3E0CB16D10409F0E9
:100CF0006EC0BC0193E0660F771F9A95E1F76D56C1
:100D00007C4F48E050E0CE018B5A9F4F0E94F00983
:100D1000AE014F5F5F4F68E070E0BB24B394F70112
:100D20003697A596FFAFEEAFA5979A01A1960EADA7
:100D30001FADA197040F151FAE961FAF0EAFAE9754
:100D4000FE01EB5AFF4F90E080E0A596AEADBFAD3F
:100D5000A5978A179B070CF047C010811B21AA9604
:100D60000FADAA97111101C00A2D11811B21D1F1DC
:100D70000C7F0729AB961FADAB9762806B2029F0E3
:100D8000107EAC966FACAC971629AE96AEADBFADEB
:100D9000AE970C93D9010C938630910549F0AE962D
:100DA000AEADBFADAE9711961C93D90111961C93B1
:100DB0002E5F3F4F0396AE960EAD1FADAE970E5F02
:100DC0001F4FAE961FAF0EAFAE973396BECF26E045
:100DD000289FB001299F700D11246D5A7E4F46E067
:100DE00050E091CF1A2DC9CFBB0C61507109A99663
:100DF0000EAD1FADA997400F511F6115710509F088
:100E000094CF20E130E0A701A3966EAD7FADA3970C
:100E1000C4010E948605A7966EAD7FADA797CE014F
:100E200001960E94D4048E0C9F1C1FCFCD2809F080
:100E30007BC049E0489F9001499F300D1124280D47
:100E4000391D213831405CF080E891E0881999091A
:100E500069E070E00E94DC092B0177FDF3C07101AD
:100E6000BB24B3948A2D8F71182BC7018219930963
:100E7000841595050CF002CFD7016D917D0160526C
:100E8000770B83E0660F771F8A95E1F76D567C4FED
:100E900048E050E0CE018B5A9F4F0E94F00930E0AD
:100EA00020E0CE0101966C017B2D022E01C0770F50
:100EB0000A94EAF7FE01EB5AFF4FDC0150E040E0F4
:100EC0006081672379F1612F6180672211F0637E71
:100ED000602B4630510529F06280672211F06C7F4B
:100EE00067296D934D5F5F4F33964930510541F748
:100EF00003962F5F3F4F28303105B1F628E030E0F0
:100F000049E050E0A3966EAD7FADA397C4010E9467
:100F10008605B9E08B0E911C68E170E0C6010E9465
:100F2000D404A3CF6A2DD0CF46E0489F9001499FBB
:100F3000300D1124280D391D213831405CF080E836
:100F400091E08819990966E070E00E94DC092B01A4
:100F500077FD78C061018A2D8F71182BC601821927
:100F60009309841595050CF089CED6018D916D01FC
:100F70008052990BB6E0B89FB001B99F700D112453
:100F80006D5A7E4F46E050E0CE018B5A9F4F0E9433
:100F9000F00966967FAD669767966FAD679768961E
:100FA0009FAD68976996AFAD69976A96BFAD6A972E
:100FB0006B966FAC6B97FE01319650E040E07F017D
:100FC00021E030E0042E01C0220F0A94EAF7872FB7
:100FD0008223A1F1812FB62EB22211F0837E802BC5
:100FE000B92EB22211F08C7F872980838A2F822329
:100FF00039F1812FBB2EB22211F0837E802B262166
:1010000011F08C7F8729818332964F5F5F4F483084
:101010005105B1F628E030E046E050E0A3966EAD11
:101020007FADA397C4010E948605E6E08E0E911C59
:1010300060E170E0C7010E94D40490CF8A2DCBCF2D
:101040008A2DD8CF8FEF9FEF1BCEEF92FF920F9399
:101050001F93CF93DF93CDB7DEB7C058D1090FB63A
:10106000F894DEBF0FBECDBFE82E28E830E040E8A0
:1010700051E070E060E090E080E00E94F90408E850
:1010800010E0F12C40E850E0B701CE0101960E943B
:10109000F90960E870E0CE0101960E94D404015085
:1010A000110981F7C058DF4F0FB6F894DEBF0FBEAD
:1010B000CDBFDF91CF911F910F91FF90EF900895D9
:1010C0001F93CF93DF93D82F162FC42F8093120234
:1010D00060931102409310020E94920461E08D2FF0
:1010E0000E94F90361E083ED0E94F90361E08D2F16
:1010F0000E944E0461E0812F0E94F90361E08C2F71
:101100000E94F90361E08C2F0E944E0462E370E0BC
:1011100080E090E00E941C0960E0809110020E9433
:101120004E0465E070E080E090E00E941C0961E000
:10113000809110020E944E0466E970E080E090E029
:101140000E941C090E94420580E00E94250890E050
:1011500080E0DF91CF911F9108951F920F920FB6FB
:101160000F9211242F933F938F939F93AF93BF932D
:101170008091140290911502A0911602B09117026D
:101180003091130223E0230F2D3758F50196A11D4E
:10119000B11D209313028093140290931502A09323
:1011A0001602B09317028091180290911902A09133
:1011B0001A02B0911B020196A11DB11D8093180265
:1011C00090931902A0931A02B0931B02BF91AF91A2
:1011D0009F918F913F912F910F900FBE0F901F9075
:1011E000189526E8230F0296A11DB11DD2CF3FB757
:1011F000F8948091180290911902A0911A02B0916E
:101200001B0226B5A89B05C02F3F19F00196A11D12
:10121000B11D3FBFBA2FA92F982F8827BC01CD0140
:10122000620F711D811D911D42E0660F771F881F9F
:10123000991F4A95D1F708958F929F92AF92BF92CE
:10124000CF92DF92EF92FF926B017C010E94F70830
:101250004B015C01C114D104E104F104E9F00E94E6
:10126000C7090E94F708681979098A099B09683E2D
:1012700073408105910570F321E0C21AD108E1089D
:10128000F10888EE880E83E0981EA11CB11CC114E1
:10129000D104E104F10429F7FF90EF90DF90CF90A3
:1012A000BF90AF909F908F900895789484B582609E
:1012B00084BD84B5816084BD85B5826085BD85B5FA
:1012C000816085BDEEE6F0E0808181608083E1E8A9
:1012D000F0E01082808182608083808181608083E1
:1012E000E0E8F0E0808181608083E1EBF0E08081E4
:1012F00084608083E0EBF0E0808181608083E1E9BD
:10130000F0E0808182608083808181608083E0E979
:10131000F0E0808181608083E1EAF0E0808182609A
:101320008083808181608083E0EAF0E08081816059
:101330008083E1E2F1E0808182608083808181604E
:101340008083E0E2F1E0808181608083EAE7F0E081
:1013500080818460808380818260808380818160DD
:1013600080838081806880831092C10008950895F1
:101370000E9455090E94B7090E946B03C0E0D0E0AB
:101380000E94A8032097E1F30E940000F9CF08957E
:10139000AA1BBB1B51E107C0AA1FBB1FA617B7079B
:1013A00010F0A61BB70B881F991F5A95A9F78095B7
:1013B0009095BC01CD01089597FB072E16F400947B
:1013C00007D077FD09D00E94C80907FC05D03EF47C
:1013D000909581959F4F0895709561957F4F0895E1
:1013E000FB01DC0102C005900D9241505040D8F73E
:1013F0000895DC0101C06D9341505040E0F708951D
:04140000F894FFCF8E
:1014040048656C6C6F20576F726C6400004992FFE2
:00000001FF
