:100000000C94D3000C94FB000C94FB000C94FB00AC
:100010000C94FB000C94FB000C94FB000C94FB0074
:100020000C94FB000C94FB000C94FB000C940E0948
:100030000C94090B0C94FB000C94FB000C94FB003B
:100040000C94AC100C94FB000C94C5110C94FB00A8
:100050000C94FB000C94FB000C94FB000C94FB0034
:100060000C94290D0C94FB0053616D706C6520722B
:1000700061746520746F6F206869676821004D6F37
:100080007265207468616E20313620626974732055
:100090007065722073616D706C6521004E6F742005
:1000A0006D6F6E6F2F73746572656F2100436F6D96
:1000B0007072657373696F6E206E6F7420737570E4
:1000C000706F7274656400436F6D707265737369ED
:1000D0006F6E206E6F7420737570706F72746564CC
:1000E000004E6F7420612076616C69642057415620
:1000F00000436F756C646E2774206F70656E2066A8
:10010000696C65200046696C657320666F756E6466
:100110003A00436F756C646E2774206F70656E20B3
:10012000646972004E6F20706172746974696F6ED9
:1001300021004361726420696E69742E20666169D2
:100140006C6564210000000000240027002A0000E4
:10015000000000250028002B0000000000230026DE
:10016000002900040404040404040402020202023C
:10017000020303030303030102040810204080016B
:1001800002040810200102040810200000000700EB
:10019000020100000304060000000000000000004F
:1001A000400CDC0E4A1311241FBECFEFD8E0DEBF97
:1001B000CDBF11E0A0E0B1E0E0E0F9E202C00590BF
:1001C0000D92A834B107D9F714E0A8E4B1E001C05A
:1001D0001D92AE38B107E1F711E0C6EAD1E004C0E4
:1001E0002297FE010E947A14C03AD107C9F70E94F3
:1001F000A5100C947E140C9400000F931F93CF93C2
:10020000DF93689F8001699F100D789F100D112466
:10021000C8010E941901EC01009729F060E070E02C
:10022000A8010E941B02CE01DF91CF911F910F9177
:100230000895CF93DF93BC018230910510F462E002
:1002400070E0A0918C04B0918D04ED01E0E0F0E04D
:1002500040E050E021C0888199818617970769F4B2
:100260008A819B81309719F09383828304C0909395
:100270008D0480938C04FE0134C06817790738F42C
:100280004115510519F08417950708F4AC01FE01DA
:100290008A819B819C01E9012097E9F6411551056E
:1002A000A9F1CA01861B970B049708F4BA01E0E094
:1002B000F0E02AC08D919C91119784179507F9F46D
:1002C0006417750781F412968D919C91139730975E
:1002D00019F09383828304C090938D0480938C04DF
:1002E000FD0132964CC0CA01861B970BFD01E80F39
:1002F000F91F6193719302978D939C9340C0FD0108
:10030000828193819C01D9011097A1F680918A0482
:1003100090918B04892B41F48091390190913A019D
:1003200090938B0480938A0440913B0150913C014F
:100330004115510541F44DB75EB780913701909159
:100340003801481B590B20918A0430918B04CA0153
:10035000821B930B8617970780F0AB014E5F5F4FB0
:100360008417950750F0420F531F50938B0440930E
:100370008A04F9016193719302C0E0E0F0E0CF01DB
:10038000DF91CF910895CF93DF93009709F450C088
:10039000EC0122971B821A82A0918C04B0918D04EB
:1003A000109709F140E050E0AC17BD0708F1BB839E
:1003B000AA83FE0121913191E20FF31FAE17BF070F
:1003C00079F48D919C911197280F391F2E5F3F4F23
:1003D0003983288312968D919C9113979B838A83EE
:1003E0004115510571F4D0938D04C0938C0420C045
:1003F00012968D919C911397AD01009711F0DC013D
:10040000D3CFFA01D383C28321913191E20FF31F3D
:10041000CE17DF0769F488819981280F391F2E5F75
:100420003F4FFA01318320838A819B8193838283AA
:10043000DF91CF910895DC0101C06D934150504090
:10044000E0F70895FB01DC018D9181341CF08B35C0
:100450000CF4805E619161341CF06B350CF4605ECD
:10046000861B611189F3990B0895FB01DC018D91C5
:10047000019080190110D9F3990B0895FB01DC015B
:100480004150504030F08D910190801919F40020B6
:10049000B9F7881B990B0895CF93DF93EB01DC012B
:1004A00090E020E03EE28C91803269F0283029F41F
:1004B000FE01E90FF11D30839F5FFE01E90FF11D81
:1004C0008C9180839F5F2F5F11962B3061F7C90F4E
:1004D000D11D1882DF91CF910895FC018585968505
:1004E000A785B08985839683A783B08711861286F6
:1004F0001386148608952F923F924F925F926F92C7
:100500007F928F929F92AF92BF92CF92DF92EF92A3
:10051000FF920F931F93DF93CF93CDB7DEB7A597CD
:100520000FB6F894DEBF0FBECDBF2C01FC01748B5B
:10053000638B442321F46624772443013AC0453079
:1005400008F007C1242F30E0A4E0220F331FAA9542
:10055000E1F722553E4FCB0140E050E060E070E013
:100560004E010894811C911C8401F0E1EF2EF12CC6
:100570000E947B07882309F4ECC0898190E08F7783
:100580009070892B09F0E5C0F40184859585A685D6
:10059000B78584369105A105B10508F4DAC06084F9
:1005A000718482849384611471048104910409F438
:1005B000D0C0F20183899489B401A3012BE030E01B
:1005C0001E010894211C311C8101E5E2EE2EF12C64
:1005D0000E947B07882309F4BCC089819A818050DE
:1005E000924009F0B6C0F1015581552309F4B1C01C
:1005F00083819481892B09F4ACC04281442309F49E
:10060000A8C0242F30E0C901019782239323892BAE
:1006100009F09FC0F20155874083F101238534859D
:100620002115310519F040E050E005C0F101218DA0
:10063000328D438D548DF201218332834383548361
:10064000F101E680F780F201F68AE58AF101A380E4
:10065000B480CC24DD24A60CB71CC81CD91CF20124
:10066000A686B786C08AD18AF101658170E080E0F4
:1006700090E00E94F5136A0D7B1D8C1D9D1DF201FB
:10068000678B708F818F928F35E0EE0CFF1C3A954F
:10069000E1F72FEF31E0E20EF31EEF2CFF24E6949A
:1006A00000E010E06E0D7F1D801F911F6187728733
:1006B00083879487F10180859185009721F09C01C3
:1006C00040E050E005C0F101258936894789508D09
:1006D000F201238F348F458F568F81859285A385B4
:1006E000B485681A790A8A0A9B0A620E731E841EF0
:1006F000951EF101228130E040E050E0C401B301D9
:100700000E942714C901DA01F20185839683A78329
:10071000B087853FFFE09F07F0E0AF07F0E0BF073D
:1007200010F48CE006C0855F9F4FA040B04028F4D5
:1007300080E1F201828B81E00DC0F10181A192A1E3
:10074000A3A1B4A1F201878B908FA18FB28F80E219
:10075000F1CF80E0A5960FB6F894DEBF0FBECDBFF7
:10076000CF91DF911F910F91FF90EF90DF90CF908D
:10077000BF90AF909F908F907F906F905F904F90C1
:100780003F902F9008952F923F924F925F926F92D9
:100790007F928F929F92AF92BF92CF92DF92EF9211
:1007A000FF920F931F93CF93DF933C011B01DC015A
:1007B0001996AD90BD90CD90DC901C97F5011FEF80
:1007C000412E11E0512E4A205B2060E072E0641956
:1007D00075094A016417750708F44B01D301119696
:1007E000ED90FD900D911C911497940140E050E024
:1007F000D801C7018A199B09AC09BD098217930763
:10080000A407B50718F447018E1A9F0AF3018081E7
:10081000B9E0D694C794B794A794BA95D1F7C18993
:10082000D289823049F44F89588D698D7A8D4A0D6D
:100830005B1D6C1D7D1D2CC0E8806E2D70E080E07E
:1008400090E0D30115962D913D914D915C911897B3
:1008500022503040404050400E94F513AB01BC0193
:1008600089859A85AB85BC85480F591F6A1F7B1FF8
:10087000FF240894E108F1080027F7FC0095102FE9
:10088000EA20FB200C211D214E0D5F1D601F711FF2
:10089000D3015196ED91FC915297838994899201ED
:1008A000810174010E947B07882319F42FEF3FEF29
:1008B00001C09401C901DF91CF911F910F91FF9069
:1008C000EF90DF90CF90BF90AF909F908F907F90F0
:1008D0006F905F904F903F902F900895EF92FF920E
:1008E0000F931F93DF93CF9300D000D000D0CDB7EC
:1008F000DEB7FC018A019B0142305105610571059B
:1009000008F45AC085819681A781B0850296A11D01
:10091000B11D481759076A077B0708F04DC0828947
:10092000803231F5B7E07695679557954795BA953A
:10093000D1F786859785A089B189480F591F6A1F0D
:100940007B1F9801220F331F220F331F31708389C1
:1009500094898E010D5F1F4FE4E0EE2EF12C0E9472
:100960007B07882349F12B813C814D815E8128C022
:10097000803111F5452F562F672F7727868597856C
:10098000A089B189480F591F6A1F7B1F9801220F48
:10099000331F3170838994898E010F5F1F4FE2E00E
:1009A000EE2EF12C0E947B07882331F089819A81F9
:1009B0009C0140E050E004C020E030E040E050E026
:1009C000B901CA0126960FB6F894DEBF0FBECDBF9F
:1009D000CF91DF911F910F91FF90EF900895AF920B
:1009E000BF92CF92DF92EF92FF920F931F93CF931C
:1009F000DF936C01EE24FF24870110C0F601808193
:100A00005E01880FB82EE501C0E0CE01AA2797FD50
:100A1000A095BA2FE80EF91E0A1F1B1FC6010E94DF
:100A20006E04AB01BC01411551056105710531F73B
:100A3000B701C801DF91CF911F910F91FF90EF9007
:100A4000DF90CF90BF90AF9008950F931F93CF93F7
:100A5000DF93EC018B01FB0182898031B1F482E0EC
:100A600088831D861E861F86188A85899689A0E040
:100A7000B0E025E0880F991FAA1FBB1F2A95D1F768
:100A800089839A83AB83BC8316C0803211F080E0E7
:100A900021C083E08883FB014789508D618D728D71
:100AA0004D875E876F87788BC8010E94EF0469834A
:100AB0007A838B839C831A8B098B8D859E85AF856A
:100AC000B8898D839E83AF83B88719861A861B8663
:100AD0001C8681E0DF91CF911F910F9108950F93B4
:100AE0001F93CF93DF93EC018B01FA01DB01529648
:100AF0008C91803108F446C08081882309F442C07B
:100B0000853E09F43FC084899589A0E0B0E0BC012E
:100B100055274427828D938DA0E0B0E0480F591FE0
:100B20006A1F7B1F4D875E876F87788B838590E078
:100B300088719070009759F481E08883848D958D39
:100B4000A68DB78D89839A83AB83BC830BC04097F6
:100B5000C9F484E08883C8010E94EF0469837A8322
:100B60008B839C831A8B098B8D859E85AF85B88975
:100B70008D839E83AF83B88719861A861B861C8651
:100B800081E001C080E0DF91CF911F910F91089526
:100B90006F927F928F929F92AF92BF92CF92DF928D
:100BA000EF92FF920F931F93CF93DF93EC01698431
:100BB0007A848B849C84460D571D681D791D89811C
:100BC0009A81AB81BC8184179507A607B70708F403
:100BD0004BC0E989FA89E08049875A876B877C870F
:100BE0008881823009F442C0FF2400E010E0E9E08F
:100BF0007695679557954795EA95D1F7CB01BA0158
:100C0000A80197010E94271459016A0149E09694AE
:100C10008794779467944A95D1F7C401B301A801EA
:100C200097010E942714A21AB30AC40AD50A16C053
:100C30004D815E816F81788589899A890E946E04D1
:100C40006D837E838F8398870894A108B108C108BB
:100C5000D108611571058105910531F0A114B10428
:100C6000C104D10429F702C080E001C081E0DF9116
:100C7000CF911F910F91FF90EF90DF90CF90BF9099
:100C8000AF909F908F907F906F900895AF92BF929A
:100C9000CF92DF92EF92FF920F931F93CF93DF9348
:100CA0005C017B016A0100E010E004C0EC0EFD1E57
:100CB0000C0F1D1F0C151D05D8F4A601401B510B70
:100CC000C501B7010E94C303EC01181619061CF0F8
:100CD00097FF0EC00AC0AC01662757FD6095762FBE
:100CE000C5010E94C805882309F72FEF3FEF01C017
:100CF0009801C901DF91CF911F910F91FF90EF9063
:100D0000DF90CF90BF90AF900895EF92FF920F9336
:100D10001F93CF93DF938C01EB01FC018081823024
:100D200010F42FEF1CC07B0108C08B8590E0887108
:100D300090700097A1F0409791F0C801B70140E290
:100D400050E00E944606282F803231F488818823A3
:100D500029F0853E91F3E9CF18160CF420E0822F9C
:100D6000DF91CF911F910F91FF90EF9008958F9297
:100D70009F92AF92BF92CF92DF92EF92FF920F932A
:100D80001F93DF93CF93CDB7DEB7AD970FB6F8942F
:100D9000DEBF0FBECDBF4C018B016A01FB01858513
:100DA0009685A785B08985839683A783B0871186AA
:100DB000128613861486FEE0EF2EF12CEC0EFD1E3B
:100DC0005E010894A11CB11C12C0C701B5010E94AC
:100DD0004C02C501B6010E942202892B41F4F801A0
:100DE00061897289C401A7010E946F0507C0C8010B
:100DF000B7010E948506181644F380E0AD960FB641
:100E0000F894DEBF0FBECDBFCF91DF911F910F9140
:100E1000FF90EF90DF90CF90BF90AF909F908F901A
:100E20000895CF93DF93EC018E818823D9F08FEF63
:100E30008EBD2F8138854FEF04C00DB407FEFDCF66
:100E40004EBD2F5F3F4FC901019781509240A8F3DB
:100E500038872F830DB407FEFDCF8AE061E00E9442
:100E600078111E82DF91CF910895CF92DF92EF9299
:100E7000FF920F931F93162F69017A010E941107A9
:100E80008AE060E00E9478118FEF8EBD0DB407FEFE
:100E9000FDCF8EB510641EBD0DB407FEFDCF28E159
:100EA00030E0D701C601022E04C0B695A7959795EC
:100EB00087950A94D2F78EBD0DB407FEFDCF28505A
:100EC00030408FEF283F380761F70EBD0DB407FEA5
:100ED000FDCF90E02FEF2EBD0DB407FEFDCF8EB5F8
:100EE0008F3F11F49150B9F71F910F91FF90EF9040
:100EF000DF90CF9008956F927F928F929F92AF92E2
:100F0000BF92CF92DF92EF92FF920F931F93CF93F6
:100F1000DF93EC015A016B0149013801E114F1043E
:100F200009F487C0C701820F931F8150924008F0D7
:100F300040C08E81882371F088819981AA81BB810C
:100F4000481759076A077B0729F48F819885881607
:100F50009906A8F5A882B982CA82DB828B85833084
:100F600039F089E0AA0CBB1CCC1CDD1C8A95D1F79A
:100F7000CE0161E1A60195010FEF0E94350788239C
:100F800019F083E08C8315C080E090E03FEF3EBD18
:100F90000DB407FEFDCF2EB52F3F31F447E280316F
:100FA000940721F00196F3CF2E3F29F080E18C8346
:100FB0002D8380E03FC018861F8281E08E838FEFF3
:100FC0008EBD8F8198852FEF05C00DB407FEFDCF34
:100FD0002EBD019688159905C0F398878F83D70198
:100FE000119720E030E09FEF0BC00DB407FEFDCF5E
:100FF0008EB5F301E20FF31F80839EBD2F5F3F4F3D
:101000002A173B0790F30DB407FEFDCF8EB5A60D52
:10101000B71D8C932F8138852E0D3F1D38872F8368
:101020008985882319F02050324018F0CE010E94A3
:10103000110781E0DF91CF911F910F91FF90EF9009
:10104000DF90CF90BF90AF909F908F907F906F90E8
:101050000895BF92CF92DF92EF92FF920F931F936A
:10106000DF93CF9300D000D0CDB7DEB77C01B62E92
:101070008AE061E00E9458118AE061E00E947811E4
:101080008BE061E00E9458118DE061E00E945811F0
:1010900083E58CBD80E09FEF9EBD0DB407FEFDCFC4
:1010A0008F5F8A30C9F760E00E94781180E090E09D
:1010B0002FEF2EBD0DB407FEFDCF3EB5019632E0F9
:1010C00081309307B1F7C70160E020E030E040E0F5
:1010D00050E005E90E943507182F80E090E02FEFDF
:1010E00009C0019711F481E062C02EBD0DB407FE66
:1010F000FDCF1EB51130A9F7C70168E02AEA31E03B
:1011000040E050E007E80E943507982F813071F4E5
:1011100080E09FEF9EBD0DB407FEFDCF2EB58F5F23
:101120008430C1F782E0F701838704C082FF05C0E5
:10113000F7011387CC24DD2406C082E0F701848305
:10114000958380E05DC0C70167E320E030E040E0C8
:1011500050E00FEF0E943507F7018385823029F0B8
:1011600020E030E040E050E004C020E030E040E02B
:1011700050E4C70169E20FEF0E943507882359F058
:10118000F8EECF16F3E0DF0611F486E010C0089405
:10119000C11CD11CD8CFC7016AE320E030E040E099
:1011A00050E00FEF0E943507882321F085E0F7011A
:1011B0008483C7CFFE0131969FEF9E012B5F3F4F87
:1011C0009EBD0DB407FEFDCF8EB58193E217F307E8
:1011D000B9F7F7018385823031F48981807C803CC6
:1011E00011F483E083878CB58C7F8CBDBB2019F410
:1011F0008DB581608DBD8AE061E00E94781181E04B
:101200000F900F900F900F90CF91DF911F910F9142
:10121000FF90EF90DF90CF90BF9008951F920F92B4
:101220000FB60F9211242F933F934F938F939F9359
:10123000AF93BF93EF93FF93E0914801F091490181
:10124000309709F4A8C020914E0330914F0380914C
:101250005003909151032817390709F047C0809136
:1012600053038823B9F180914A0390914B032AE4F8
:1012700032E041E08A34940749F430934B032093E1
:101280004A0390934D0380934C030AC08AE491E093
:1012900090934B0380934A0330934D0320934C0368
:1012A00080914A0390914B0390934F0380934E0398
:1012B00080509F4F9093510380935003109253039B
:1012C00080915203882391F480916F008460809311
:1012D0006F000CC083859485A585B6850196A11DF8
:1012E000B11D83879487A587B68755C05A985C98A7
:1012F0005B9A5B985C9A5B9A5B985B9A5B985B9A4B
:101300005B988581803119F5E0914E03F0914F0390
:101310008181805890E087FF02C05C9A01C05C9890
:101320005B9A5B989F5F983011F0880FF4CF9081A3
:1013300080E097FF02C05C9A01C05C985B9A5B9862
:101340008F5F843011F0990FF4CF32961DC0883032
:10135000F9F4E0914E03F0914F03908180E097FF04
:1013600002C05C9A01C05C985B9A5B988F5F883082
:1013700011F0990FF4CF5B9A5B985B9A5B985B9A3C
:101380005B985B9A5B983196F0934F03E0934E0322
:101390005A9A5D985D9AFF91EF91BF91AF919F919D
:1013A0008F914F913F912F910F900FBE0F901F90F3
:1013B00018950895EFE6F0E080818D7F8083E091BD
:1013C0004801F0914901128610924901109248019A
:1013D00008958F929F92AF92BF92CF92DF92EF9239
:1013E000FF920F931F93DF93CF9300D000D00F9203
:1013F000CDB7DEB77C015B01942E852EFC01868182
:101400009781A085B1850097A105B10599F5870160
:101410000A5F1F4F6E010894C11CD11CF70187851C
:101420009089B60144E050E00E944606049709F016
:1014300055C01D82F70187859089B80144E050E0CE
:101440000E944606049709F049C0C60160E071E0B9
:1014500044E050E00E943E02009761F0F7014681AF
:10146000578160857185878590890E94C80588238A
:10147000A9F634C0892D982D9C018901F2E0213014
:101480003F0710F000E012E0F70126813781408528
:101490005185C801A0E0B0E0281739074A075B076B
:1014A00008F48901F70187859089B501A8010E9498
:1014B0004606BC018017910799F4980140E050E07E
:1014C000F70186819781A085B185821B930BA40BC0
:1014D000B50B86839783A087B18702C060E070E078
:1014E000CB010F900F900F900F900F90CF91DF9145
:1014F0001F910F91FF90EF90DF90CF90BF90AF9032
:101500009F908F900895BF92CF92DF92EF92FF92BB
:101510000F931F93CF93DF93EC01C980DA80EB80A8
:10152000FC80B88090934901809348010AE411E05F
:1015300010934F0300934E03B80142E050E00E9425
:10154000E909181619060CF05AC080914E039091C3
:101550004F0302969093510380935003EF85F889CF
:10156000818540E051E0481B5109809148019091EC
:101570004901B8016E5F7F4F0E94E9099C0118166E
:101580001906ECF58091500390915103820F931F3F
:1015900090935103809350038091480190914901A9
:1015A0006AE472E040E051E00E94E90981E0809342
:1015B00053038A871092800089E0809381006B2D0D
:1015C00070E080E090E0A70196010E94F5139B0176
:1015D000AC0160E074E284EF90E00E942714309345
:1015E00089002093880081E090E090938B008093A5
:1015F0008A0080916F00826080936F007894DF9101
:10160000CF911F910F91FF90EF90DF90CF90BF90FF
:1016100008951F920F920FB60F9211242F933F93AC
:101620004F935F936F937F938F939F93AF93BF93EA
:10163000EF93FF9380916F008B7F80936F00809179
:101640005303882339F581E08093520378946091A5
:101650004C0370914D03809148019091490140E005
:1016600051E00E94E909892B71F480916F008D7F10
:1016700080936F00E0914801F09149011286109229
:10168000490110924801F8941092520381E080932E
:1016900053037894FF91EF91BF91AF919F918F91F8
:1016A0007F916F915F914F913F912F910F900FBE5E
:1016B0000F901F901895AF92BF92CF92DF92EF924A
:1016C000FF920F931F93DF93CF93CDB7DEB762974F
:1016D0000FB6F894DEBF0FBECDBF7C015B016E017B
:1016E0000894C11CD11CCB01B6014CE050E00E9413
:1016F00046060C9709F06EC0C60165E071E044E053
:1017000050E00E943E02009709F064C0CE010996A5
:101710006AE071E044E050E00E943E02009709F068
:1017200059C06AC0C6016FE071E044E050E00E9419
:101730003E02009709F04EC068C00231110519F051
:1017400087EC90E045C0C501B601A8010E9446069D
:101750008017910709F03EC089819A81019739F479
:101760000231110539F489899A89892B19F08DEA9A
:1017700090E02EC03B81F7013083333018F08CE9C4
:1017800090E026C08D819E81AF81B885F70181836D
:101790009283A383B4832F852583213118F08EE7AC
:1017A00090E016C08332F6E59F07F0E0AF07F0E067
:1017B000BF0718F0293050F407C081589E43A0405D
:1017C000B04050F1293040F1323030F188E690E0FD
:1017D0000E942F0C80E062960FB6F894DEBF0FBE19
:1017E000CDBFCF91DF911F910F91FF90EF90DF90D0
:1017F000CF90BF90AF900895C501B60148E050E08A
:101800000E944606089731F78DCF0D811E81003169
:10181000110509F092CF97CFF70116821782108633
:101820001186B08AA78613861486158616861286B8
:1018300081E0D1CF1F93CF93DF93EC0110E005C07F
:1018400087E794E00E94BB131F5FFE01E10FF11DCB
:1018500064916623A9F7DF91CF911F9108950E94AB
:101860001A0C87E794E00E94D313089581E08093D7
:101870005D036093580310925B0310925C0308951C
:101880000895DF93CF930F92CDB7DEB76983809130
:101890005D038823A9F080915C038032B0F48091CD
:1018A0005B03E0915903F0915A03E80FF11D608347
:1018B00080915B038F5F80935B0380935C0305C023
:1018C000CE01019661E00E940C0D0F90CF91DF9147
:1018D0000895EF92FF920F931F93CF93DF937C01B4
:1018E000042F80915D03882359F0EB0110E005C0BF
:1018F000C70169910E94410C1F5F1017C8F304C013
:10190000CB01642F0E940C0DDF91CF911F910F919D
:10191000FF90EF900895DB010D900020E9F71197FB
:10192000A61BB70B4A2F0E94690C089560915903BA
:1019300070915A038091580340915C0321E00E940A
:10194000C70C10925B0310925C0310925D03089524
:1019500080E290E061E070E00E94FD00809354031B
:1019600090935503109256031092570380E290E033
:1019700061E070E00E94FD008093590390935A0348
:1019800010925B0310925C030E94AB0E08951F93AC
:10199000582F122F413210F081E03CC080915F033C
:1019A0008823E1F782E080935F038FEF80937003D9
:1019B0001092670340936803A0916503B09166039A
:1019C000FB0102C081918D938E2F861B8417D0F36B
:1019D000852F90E0880F991F8093600385EE809398
:1019E000BC00112321F080915F038230E1F38091EC
:1019F00070038F3F11F480E00DC08091700380323E
:101A000011F482E007C080917003803311F084E00C
:101A100001C083E01F910895482F613210F081E0EA
:101A2000089580915F03843011F082E008956093FF
:101A30006C03A0916903B0916A03842F9C01F901A2
:101A400002C081918D938E2F841B8617D0F380E086
:101A500008951F920F920FB60F9211242F933F9368
:101A60004F935F936F937F938F939F93AF93BF93A6
:101A7000EF93FF938091B90090E0887F907080365B
:101A8000910509F4E2C081369105CCF588329105C3
:101A900009F47BC089329105B4F48031910509F4D1
:101AA0006FC0813191053CF4009709F438C1089763
:101AB00009F040C165C08831910509F466C080977E
:101AC00009F038C17FC08034910509F4A3C0813486
:101AD000910544F48033910509F47FC0C89709F05B
:101AE00029C186C08035910509F486C088359105E5
:101AF00009F495C08834910509F01CC19EC088394D
:101B0000910509F404C189399105ECF488379105F0
:101B100009F49BC0893791054CF48836910509F486
:101B200094C08037910509F005C18FC088389105B0
:101B300009F4EDC08039910509F48DC08038910514
:101B400009F0F8C088C0803B910509F4B2C0813B20
:101B500091054CF4803A910509F491C0883A9105B9
:101B600009F0E8C0A6C0803C910509F4D4C0883CC7
:101B7000910509F4D0C0883B910509F0DBC0B1C0E4
:101B8000809160038093BB00C0C0909167038091F7
:101B90006803981778F490916703E0916503F091DA
:101BA0006603E90FF11D80818093BB009F5F9093D6
:101BB0006703ABC085ED8093BC008091BC0084FDC1
:101BC000FCCFB6C080E28093700385ED8093BC00AB
:101BD0008091BC0084FDFCCFABC080E38093700398
:101BE00085ED8093BC008091BC0084FDFCCFA0C03B
:101BF00088E3809370038FC0809167039091BB004E
:101C0000E0916503F0916603E80FF11D90838F5F0B
:101C100080936703909167038091680374C08091FB
:101C200067039091BB00E0916503F0916603E80FB4
:101C3000F11D90838F5F8093670385ED8093BC00D7
:101C40008091BC0084FDFCCF73C083E080935F0370
:101C500010926F035AC080916F03803208F057C012
:101C600080916F039091BB00E0916D03F0916E0342
:101C7000E80FF11D90838F5F80936F0346C08091C2
:101C80006F03803248F480916F03E0916D03F0910F
:101C90006E03E80FF11D108260916F03E091630302
:101CA000F091640380916D0390916E0370E009954B
:101CB00032C084E080935F0310926B0310926C0338
:101CC000E0916103F0916203099580916C03882390
:101CD00041F481E080936C03E0916903F0916A0321
:101CE000108290916B03E0916903F0916A03E90F10
:101CF000F11D80818093BB009F5F90936B03909157
:101D00006B0380916C03981710F485EC01C085E893
:101D10008093BC000FC085EC8093BC0009C010927A
:101D2000700385ED8093BC008091BC0084FDFCCFE6
:101D300010925F03FF91EF91BF91AF919F918F91AF
:101D40007F916F915F914F913F912F910F900FBEB7
:101D50000F901F90189510925F03449A459AE9EBF3
:101D6000F0E080818E7F808380818D7F808388E416
:101D70008093B80085E48093BC0080E290E061E04D
:101D800070E00E94FD00809365039093660380E2FB
:101D900090E061E070E00E94FD0080936903909301
:101DA0006A0380E290E061E070E00E94FD008093B1
:101DB0006D0390936E03089510928C0310928E031E
:101DC00010929103109293031092A6031092B30302
:101DD0001092C60389ED93E00E94D9090895CF932C
:101DE000DF93EC018091E303882321F089ED93E0F8
:101DF0000E94DA0986EC93E063EB73E0AE010E9487
:101E0000B706882351F481EF90E00E941A0C87E70F
:101E100094E0BE010E94EA1311C089ED93E066ECE4
:101E200073E00E945B0B882329F481EE90E00E940E
:101E30002F0C04C089ED93E00E94830ADF91CF91BB
:101E400008950E94EF0E8091E303882361F087E7F5
:101E500094E064E171E00E94CB1387E794E061E7CE
:101E600073E00E94EA138091E3038823E1F7089569
:101E7000E0918603F0918703EF58FC4F8EE2808358
:101E800087E5818381E4828386E58383148281E709
:101E900093E00E94210F80E090E0FC01EF58FC4F9E
:101EA00002C01192019684319105DCF310928703F0
:101EB000109286030895EF92FF921F93CF93DF93C2
:101EC0007C01EC0110E08881803261F0183029F447
:101ED00087E794E06EE20E94C31387E794E068818D
:101EE0000E94BB131F5F21961B3069F7F7018385A2
:101EF0008871803129F487E794E06FE20E94C31370
:101F0000DF91CF911F91FF90EF9008950F931F9352
:101F1000DF93CF93CDB7DEB7A0970FB6F894DEBFAF
:101F20000FBECDBF83EB93E00E946D028E010F5F69
:101F30001F4F07C0C8010E945B0F87E794E00E9413
:101F4000D31383EB93E0B8010E948506181694F32F
:101F5000A0960FB6F894DEBF0FBECDBFCF91DF9134
:101F60001F910F91089587E794E00E94FB12882348
:101F700009F48BC045C087E794E00E940F13282F17
:101F800080938503803209F449C08B3391F08C3201
:101F9000A9F18E32D1F18091860390918703FC01E3
:101FA000EF58FC4F2083019690938703809386031C
:101FB0004DC0E0918603F0918703EF58FC4F80837A
:101FC0008EE593E062E070E00E94360C65E070E020
:101FD00080E090E00E94F4108EE593E061E773E00A
:101FE0000E948B0C8EE593E00E94960CE1E7F3E0F3
:101FF000119283E0E538F807D9F721C00E94380F25
:1020000062E370E080E090E006C00E94380F64E672
:1020100070E080E090E00E94F41018C081E793E047
:102020006EE171E00E943502009771F40E94860F04
:10203000E1E7F3E0119283E0E538F807D9F7109271
:1020400087031092860302C00E94380F87E794E04E
:102050000E94FB12882309F08ECF81E793E06EE1A6
:1020600071E00E943502009771F40E94860FE1E74B
:10207000F3E0119283E0E538F807D9F7109287036F
:102080001092860308950E94380F089587E794E020
:1020900040E855E260E070E00E94021287E794E0B9
:1020A00061E271E00E94EA138EE593E00E94A80CC1
:1020B00082E061E00E94581183E061E00E945811C3
:1020C00084E061E00E94581185E061E00E945811AF
:1020D00089E061E00E94581188E893E060E00E9486
:1020E0002908882319F482E391E01FC084E993E072
:1020F00068E873E041E00E947B02882361F484E990
:1021000093E068E873E040E00E947B02882319F4C2
:1021100084E291E00AC083EB93E064E973E00E94FB
:102120002505882329F482E191E00E942F0C08956F
:1021300085E091E00E942F0C0E94860F87E794E0D3
:102140006CE271E00E94EA1308950E941E110E9441
:1021500046100E94B30FFDCF1F920F920FB60F9241
:1021600011242F933F938F939F93AF93BF938091AD
:10217000EE039091EF03A091F003B091F103309141
:10218000F2030196A11DB11D232F2D5F2D3720F0E5
:102190002D570196A11DB11D2093F2038093EE03EC
:1021A0009093EF03A093F003B093F1038091EA03BF
:1021B0009091EB03A091EC03B091ED030196A11D6A
:1021C000B11D8093EA039093EB03A093EC03B093CB
:1021D000ED03BF91AF919F918F913F912F910F9000
:1021E0000FBE0F901F901895EF92FF920F931F93C1
:1021F0007B018C018FB7F8944091EE035091EF036F
:102200006091F0037091F1038FBF2FB7F894809124
:10221000EE039091EF03A091F003B091F1032FBF73
:10222000841B950BA60BB70BE816F9060A071B07CC
:1022300060F71F910F91FF90EF900895789484B507
:10224000826084BD84B5816084BD85B5826085BDB2
:1022500085B5816085BDEEE6F0E080818160808398
:10226000E1E8F0E08081826080838081816080830A
:10227000E0E8F0E0808181608083E1EBF0E0808144
:1022800084608083E0EBF0E0808181608083EAE716
:10229000F0E080818460808380818260808380819F
:1022A000816080838081806880831092C10008955E
:1022B000282F30E0C90189589E4FFC0194912D5977
:1022C0003E4FF9018491882391F0E82FF0E0EE0F62
:1022D000FF1FEB5BFE4FA591B491662329F48C910F
:1022E000909589238C9308958C91892B8C930895D4
:1022F000482F50E0CA0185579E4FFC012491CA0126
:1023000089589E4FFC0194914D595E4FFA013491CA
:102310003323D1F1222331F1233021F48091800045
:102320008F7705C0243031F4809180008F7D8093B9
:10233000800018C0213019F484B58F7704C0223092
:1023400021F484B58F7D84BD0DC0263021F48091A9
:10235000B0008F7705C0273029F48091B0008F7DC1
:102360008093B000E32FF0E0EE0FFF1FE15BFE4F24
:10237000A591B491662329F48C91909589238C932F
:1023800008958C91892B8C9308951F920F920FB60C
:102390000F9211242F933F934F935F936F937F93EB
:1023A0008F939F93AF93BF93EF93FF934091C6009A
:1023B000E0917304F0917404CF01019660E870E03D
:1023C0000E9414149C018091750490917604281742
:1023D000390739F0ED50FC4F40833093740420935B
:1023E0007304FF91EF91BF91AF919F918F917F9176
:1023F0006F915F914F913F912F910F900FBE0F9072
:102400001F9018955F926F927F928F929F92AF92DA
:10241000BF92CF92DF92EF92FF920F931F93CF93D1
:10242000DF93EC013A014B01413482E458078FE01D
:10243000680780E078070CF07FC060E874E88EE100
:1024400090E0A40193010E94491421503040404083
:102450005040CA01B90122E030E040E050E00E9463
:10246000491459016A01A6019501209530954095BE
:10247000509594E0220F331F441F551F9A95D1F7B2
:1024800060E074E284EF90E00E944914CA01B9014F
:102490002FEF30E040E050E00E94F513A4019301DB
:1024A0000E944914C90181509F4F181619061CF447
:1024B000522E5A9403C055245394521A60E079E086
:1024C0008DE390E0A40193010E9449142150304013
:1024D00040405040CA01B90122E030E040E050E005
:1024E0000E944914209530954095509583E0220F25
:1024F000331F441F551F8A95D1F760E074E284EFC3
:1025000090E00E944914CA01B9012FEF30E040E089
:1025100050E00E94F513A40193010E944914C901DF
:1025200081509F4F181619061CF4822F815002C04B
:1025300081E0821B851500F5E885F98581E090E052
:102540000A8802C0880F991F0A94E2F7808360E02E
:1025500079E08DE390E0A40193010E944914215099
:10256000304040405040CA01B90122E030E040E034
:1025700050E00E94491404C0E885F9851082950155
:10258000EC81FD813083EE81FF812083EA85FB852C
:10259000208141E050E0CA010E8402C0880F991FDB
:1025A0000A94E2F7282B2083EA85FB852081CA0163
:1025B0000F8402C0880F991F0A94E2F7282B20830A
:1025C000EA85FB858081088802C0440F551F0A9464
:1025D000E2F7842B8083DF91CF911F910F91FF90C1
:1025E000EF90DF90CF90BF90AF909F908F907F90B3
:1025F0006F905F900895DC011296ED91FC91139716
:10260000E058FF4F8191919180589F4F20813181F7
:10261000821B930B60E870E00E9414140895CF931E
:10262000DF93DC011296ED91FC911397EF01CE57E9
:10263000DF4F48815981E058FF4F80819181E058F8
:10264000F0408417950719F42FEF3FEF0CC0E40F0B
:10265000F51F2081CA01019660E870E00E94141401
:102660009983888330E0C901DF91CF910895FC01FF
:10267000A085B18521898C9190E0022E02C09595AC
:1026800087950A94E2F780FFF6CF0484F585E02D64
:102690006083089581E491E09093780480937704B7
:1026A00083EF93E090937A048093790485EC90E033
:1026B00090937C0480937B0484EC90E090937E0460
:1026C00080937D0480EC90E09093800480937F045D
:1026D00081EC90E0909382048093810486EC90E0FA
:1026E000909384048093830484E08093850483E042
:1026F0008093860487E08093870485E08093880434
:1027000081E08093890408950F931F93CF93DF9303
:102710008C01EB0109C02196D801ED91FC9101904B
:10272000F081E02DC801099568816623A1F7DF914A
:10273000CF911F910F910895EF92FF920F931F93E6
:10274000CF93DF938C017B01EA010CC0D7016D911F
:102750007D01D801ED91FC910190F081E02DC8013F
:1027600009952197209791F7DF91CF911F910F91B4
:10277000FF90EF900895DC01ED91FC910190F081C4
:10278000E02D09950895DC01ED91FC910190F08117
:10279000E02D09950895DC01ED91FC910280F38113
:1027A000E02D099508950F931F938C01DC01ED91A5
:1027B000FC910190F081E02D6DE00995D801ED913B
:1027C000FC910190F081E02DC8016AE009951F910C
:1027D0000F9108950F931F938C010E94CB13C80192
:1027E0000E94D3131F910F910895629FD001739F90
:1027F000F001829FE00DF11D649FE00DF11D929F9D
:10280000F00D839FF00D749FF00D659FF00D9927DB
:10281000729FB00DE11DF91F639FB00DE11DF91FFF
:10282000BD01CF011124089597FB092E07260AD078
:1028300077FD04D049D006D000201AF47095619538
:102840007F4F0895F6F7909581959F4F0895A1E2E7
:102850001A2EAA1BBB1BFD010DC0AA1FBB1FEE1F1A
:10286000FF1FA217B307E407F50720F0A21BB30B65
:10287000E40BF50B661F771F881F991F1A9469F7E1
:1028800060957095809590959B01AC01BD01CF013D
:10289000089597FB092E05260ED057FD04D0D7DFEB
:1028A0000AD0001C38F450954095309521953F4F43
:1028B0004F4F5F4F0895F6F790958095709561950D
:1028C0007F4F8F4F9F4F0895AA1BBB1B51E107C03D
:1028D000AA1FBB1FA617B70710F0A61BB70B881FB0
:1028E000991F5A95A9F780959095BC01CD0108953F
:1028F000EE0FFF1F0590F491E02D0994F894FFCF9F
:10290000646174610052494646005741564500666D
:102910006D742000706C6179696E673A20006C7389
:102920000057617665205465737421005465737493
:1029300020446F6E652E0020008E04000000000011
:0829400000371384139C1300FF
:00000001FF
