:100000000C949A030C94B9030C94B9030C9419073B
:100010000C94B9030C94B9030C94B9030C94B90370
:100020000C94B9030C94B9030C94B9030C94B90360
:100030000C94B9030C94B9030C94B9030C94B90350
:100040000C94B9030C94B9030C94B9030C94B90340
:100050000C94B9030C94B9030C94B9030C94FB0BE6
:100060000C94B9030C94B9030C94B9030C94B90320
:100070000C94B9030C94B9030C94B9030C94B90310
:100080000C94B9030C94B9030C94B9030C94B90300
:100090000C94B9030C94B9030C94B9030C94B903F0
:1000A0000C94B9030C94B9030C94B9030C94B903E0
:1000B0000C94B9030C94B9030C94B9030C94B903D0
:1000C0000C94B9030C94B9030C94B9030C94B903C0
:1000D0000C94B9030C94B9030C94B9030C94B903B0
:1000E0000C94B9030C94B9030C94B9030C94FE045A
:1000F0000C942C050C94B9030C94B9030C94D404FF
:100100000C94B9030C94B9030C94B9030C94B9037F
:100110000C94B9030C94B9030C94B9030C94B9036F
:100120000000000000000000065F0600000703005A
:10013000070300247E247E2400242B6A120000631F
:10014000130864630036495620500000070300007E
:1001500000003E4100000000413E000000083E1C3F
:100160003E080008083E08080000E06000000008A3
:100170000808080800006060000000201008040261
:10018000003E5149453E0000427F40000062514917
:100190004946002249494936001814127F10002FA1
:1001A00049494931003C4A49493000017109050378
:1001B00000364949493600064949291E00006C6C41
:1001C00000000000EC6C0000000814224100002434
:1001D00024242424000041221408000201590906A5
:1001E000003E415D551E007E1111117E007F494980
:1001F0004936003E41414122007F4141413E007F5E
:1002000049494941007F09090901003E4149497AAC
:10021000007F0808087F0000417F41000030404017
:10022000403F007F08142241007F40404040007F53
:100230000204027F007F0204087F003E4141413EEC
:10024000007F09090906003E4151215E007F09092E
:1002500019660026494949320001017F0101003F2A
:100260004040403F001F2040201F003F403C403F97
:1002700000631408146300070870080700714945FB
:10028000430000007F4141000002040810200000EC
:1002900041417F00000402010204008080808080D0
:1002A000000003070000002054545478007F4444A9
:1002B000443800384444442800384444447F0038DB
:1002C0005454540800087E0909000018A4A4A47C12
:1002D000007F040478000000007D4000004080841E
:1002E0007D00007F102844000000007F4000007C5B
:1002F00004180478007C040478000038444444382E
:1003000000FC444444380038444444FC00447844ED
:10031000040800085454542000043E442400003CC7
:1003200040207C00001C2040201C003C6030603CD1
:10033000006C10106C00009CA0603C0000645454E1
:100340004C0000083E414100000000770000000022
:1003500041413E08000201020100003C2623263CE8
:1003600000000000000000000000065F5F060000C3
:100370000007070007070000147F7F147F7F140029
:10038000242E2A6B6B3A1200466630180C66620007
:10039000307A4F5D377A4800000407030000000000
:1003A000001C3E63410000000041633E1C00000051
:1003B000082A3E1C1C3E2A080008083E3E08080089
:1003C000000080E06000000000080808080808003D
:1003D00000000060600000006030180C060301009F
:1003E0003E7F594D477F3E0040427F7F40400000A6
:1003F000627359496F660000226349497F360000E5
:10040000181C16537F7F5000276745457D39000033
:100410003C7E4B4979300000030371790F070000DF
:10042000367F49497F360000064F49693F1E00006C
:100430000000006666000000000080E66600000024
:10044000081C366341000000001414141414140036
:10045000004163361C080000000203595D070200DA
:100460003E7F415D5D5F0E007C7E13137E7C00004D
:10047000417F7F49497F36001C3E63414163220032
:10048000417F7F41633E1C00417F7F495D416300A6
:10049000417F7F491D0103001C3E634151337200BF
:1004A0007F7F08087F7F000000417F7F41000000C0
:1004B000307040417F3F0100417F7F081C7763001F
:1004C000417F7F41406070007F7F0E1C0E7F7F0068
:1004D0007F7F060C187F7F001C3E6341633E1C003B
:1004E000417F7F49090F06001E3F2131617F5E0079
:1004F000417F7F09197F6600266F4D49597332008D
:1005000003417F7F410300007F7F40407F7F0000E9
:100510001F3F60603F1F00003F7F6030607F3F00F3
:1005200063771C081C776300074F78784F0700003B
:10053000476371594D677300007F7F4141000000A0
:100540000103060C183060000041417F7F0000006D
:10055000080C0603060C0800808080808080808064
:100560000000030704000000207454543C7840004D
:10057000417F3F4848783000387C44446C28000074
:10058000307848493F7F4000387C54545C18000064
:10059000487E7F490306000098BCA4A4F87C0400B0
:1005A000417F7F08047C780000447D7D400000008E
:1005B00060E08084FD7D0000417F7F10386C440046
:1005C00000417F7F400000007C7C18781C7C780014
:1005D0007C7804047C780000387C44447C3800003B
:1005E00084FCF8A4243C1800183C24A4F8FC8400E3
:1005F000447C784C040C1800485C5474642400005B
:1006000004043E7F442400003C7C40403C7C40008D
:100610001C3C60603C1C00003C7C6030607C3C000A
:10062000446C3810386C44009CBCA0A0FC7C0000DA
:100630004C64745C4C64000008083E774141000043
:1006400000000077770000004141773E0808000075
:10065000020301030203010070784C464C787000DD
:100660000101637801110128633203C0F80002C35D
:100670000402C40502D01D02B30002B58B0138028A
:100680003A0202360002B09F05F012121212012047
:10069000012900000000090A0B0000030700000008
:1006A0000000000000000200000000000000000048
:1006B0000000000000040501020408102040802012
:1006C0001001040802020101020420040810204065
:1006D00080010204081020408040800505050505C2
:1006E00005050502020202020204040707070704C7
:1006F00004040404040606060606060606020200B2
:10070000000000250000002B002E00310034000006
:1007100000000000000000000000000000240000B5
:10072000002A002D0030003300000000000000000F
:100730000000000011241FBECFEFD1E4DEBFCDBF0B
:1007400012E0A0E0B2E0E0EBF1E200E00BBF02C09B
:1007500007900D92A83FB107D9F723E0A8EFB2E0C8
:1007600001C01D92A03AB207E1F70E946F0E0C94EF
:10077000D6100C940000E8EFF2E0119283E0E83725
:10078000F807D9F710927A03109279031092780340
:100790001092770361E082E20E946A0D60E082E2DB
:1007A0000E94A60D61E083E20E946A0D60E083E290
:1007B0000E94A60D809139018160809339011092C9
:1007C0004E0180914201807E88608093420161E009
:1007D00070E080E090E00E946A0C809141018F718E
:1007E0008830B1F4809144018062809344018CE4AC
:1007F00080934E0180914801807E8B6080934801F8
:1008000080914201807E86608093420181E008955C
:1008100080E008956F927F928F929F92AF92BF92E5
:10082000CF92DF92EF92FF920F931F93CF93DF93BC
:10083000CDB7DEB7CF57D1090FB6F894DEBF0FBEE4
:10084000CDBF5C01FC01D480C5808D2C9C2CCE01D9
:1008500001967C0110E000E03C010815190554F4F4
:10086000B801C5010E946C0EF70181937F010F5FF3
:100870001F4FF3CF80914201807E896080934201B7
:10088000809141018970E1F361E083E20E94A60D4D
:1008900082E08D0D809380014D2D5C2DB30181E8A8
:1008A00091E00E94BF1080913901826080933901EC
:1008B000809139018D7F8093390180914201807E42
:1008C000866080934201C158DF4F0FB6F894DEBFB7
:1008D0000FBECDBFDF91CF911F910F91FF90EF9091
:1008E000DF90CF90BF90AF909F908F907F906F9050
:1008F0000895CF93C82F80914201807E89608093B4
:100900004201809141018970E1F361E083E20E943C
:10091000A60D83E080938001C0938101809139010D
:10092000826080933901809139018D7F80933901F4
:1009300080914201807E866080934201CF9108952C
:1009400080917703909178032091790330917A0315
:1009500081589F4F821B930B6FE770E00E947F0EC0
:1009600008952091770330917803809179039091D5
:100970007A0328173907B1F0E0917903F0917A03EF
:10098000E850FD4F20818091790390917A03019680
:100990006FE770E00E947F0E90937A038093790353
:1009A000822F08952FEFFCCF1F920F920FB60F9258
:1009B00011240BB60F922F933F934F935F936F9336
:1009C0007F938F939F93AF93BF93EF93FF9360E0D9
:1009D00083E20E94A60DFF91EF91BF91AF919F918D
:1009E0008F917F916F915F914F913F912F910F90D8
:1009F0000BBE0F900FBE0F901F9018951F920F9275
:100A00000FB60F9211240BB60F922F933F934F9373
:100A10005F936F937F938F939F93AF93BF93EF9366
:100A2000FF9361E082E20E94A60D809146018093CF
:100A30007B03FF91EF91BF91AF919F918F917F9138
:100A40006F915F914F913F912F910F900BBE0F903F
:100A50000FBE0F901F9018951F920F920FB60F9216
:100A600011240BB60F92CF92DF92EF92FF920F9369
:100A70001F932F933F934F935F936F937F938F9326
:100A80009F93AF93BF93EF93FF93CF93DF93CDB734
:100A9000DEB7CF57D109DEBFCDBF80917B03877012
:100AA000D9F100917B01C02ED12CCE0101967C01A1
:100AB000A60160E871E00E94BF10809177039091D9
:100AC000780301966FE770E00E947F0E9701A2E025
:100AD000CA1AD1080FE710E04091790350917A03C8
:100AE00048175907C9F0A9014E195F094C155D0552
:100AF00098F4E0917703F0917803D9014D919D012D
:100B0000E850FD4F408390937803809377030196DC
:100B1000B8010E947F0EE0CF60E082E20E94A60D45
:100B2000C158DF4F0FB6F894DEBF0FBECDBFDF91C7
:100B3000CF91FF91EF91BF91AF919F918F917F9155
:100B40006F915F914F913F912F911F910F91FF9066
:100B5000EF90DF90CF900F900BBE0F900FBE0F90D5
:100B60001F901895EF92FF920F931F93CF93DF93EF
:100B700000D000D000D0CDB7DEB742EA50E066ED3D
:100B800070E087EE90E00E94F60A8BE00E94BB03C3
:100B90006AEB72E0CE0101960E94460ECE010196EC
:100BA0000E940A04CE0101960E94D40DF12CE12C82
:100BB00003E010E022E030E04CED52E060E670E04F
:100BC00090E080E00E942D0826960FB6F894DEBFD4
:100BD0000FBECDBFDF91CF911F910F91FF90EF908E
:100BE0000895EF92FF920F931F93CF93DF931F927D
:100BF000CDB7DEB70E94AD0B0E9479040E94A0041D
:100C0000892B91F00E94B1048983F12CE12C03E03F
:100C100010E022E030E0AE014F5F5F4F70E060E037
:100C200090E080E00E942D080F90DF91CF911F91FE
:100C30000F91FF90EF900895982FFB01DA018770D4
:100C4000907F903D29F128F4903A41F0903BA1F03B
:100C50000895903E49F1903F99F10895232B49F46E
:100C600024E330E02D933C9323E330E03183208371
:100C7000089522E330E0F6CF232B39F425E230E06B
:100C80002D933C9324E230E0F1CF23E230E0F8CF23
:100C9000232B39F42BE230E02D933C932AE230E011
:100CA000E5CF29E230E0F8CF232B39F42EE230E013
:100CB0002D933C932DE230E0D9CF2CE230E0F8CFF9
:100CC000232B39F421E330E02D933C9320E330E0F3
:100CD000CDCF2FE230E0F8CF1F93CF93DF9300D03A
:100CE00000D0CDB7DEB7162F30E020E0AE014D5F6B
:100CF0005F4FBE016F5F7F4F0E941C061130A9F14C
:100D000050F01230C1F00F900F900F900F90DF91C4
:100D1000CF911F910895E981FA81408121E030E06F
:100D2000B90102C0660F771F8A95E2F7CB01809563
:100D300084238083E8CFE981FA81408121E030E09B
:100D4000B90102C0660F771F8A95E2F7CB01942F95
:100D5000982B9083EB81FC819081982B9083E98183
:100D6000FA81908180958923E4CFE981FA8190818D
:100D700021E030E001C0220F8A95EAF7892F822B0B
:100D8000D8CF1F93CF93DF9300D000D0CDB7DEB77D
:100D9000162F30E020E0AE014D5F5F4FBE016F5F68
:100DA0007F4F0E941C06EB81FC81111115C0408110
:100DB00021E030E0B90102C0660F771F8A95E2F7A3
:100DC000CB018095842380830F900F900F900F901C
:100DD000DF91CF911F910895908121E030E001C013
:100DE000220F8A95EAF7892F822BEDCFCF93DF93DD
:100DF00000D000D0CDB7DEB721E030E0AE014D5FCE
:100E00005F4FBE016F5F7F4F0E941C06EB81FC812C
:100E1000208130E0A90102C0559547958A95E2F7F7
:100E2000CA0181700F900F900F900F90DF91CF91BA
:100E300008951F920F920FB60F9211248F9383B7CC
:100E40008E7F83BF8F910F900FBE0F901F901895CC
:100E500061E080EB0E94C10661E080EB0E946C06BD
:100E600081E58CBD8DB58EB561E081EB0E946C068D
:100E700061E082EB0C946C06CF93DF931F92CDB7A9
:100E8000DEB7898389818EBD0DB407FEFDCF8EB597
:100E90000F90DF91CF9108951F93CF93DF93182F79
:100EA000C0917E0360E08C2F0E94C106D0917D032B
:100EB00060E08D2F0E94C106812F0E943C0761E0F7
:100EC0008D2F0E94C10661E08C2FDF91CF911F9181
:100ED0000C94C106CF92DF92EF92FF921F93CF93B3
:100EE000DF937C016B0110917E0360E0812F0E94F3
:100EF000C106E701CE018E199F098C159D0524F4CA
:100F000089910E943C07F6CF61E0812FDF91CF915C
:100F10001F91FF90EF90DF90CF900C94C106CF927D
:100F2000DF92EF92FF920F931F93CF93DF9300D046
:100F300000D0CDB7DEB78C01E62E6A01F22E8AE230
:100F40000E944C07198223E030E0C801B9010E94D9
:100F5000930E6A831B82C8018C0D9D1D0197B901F8
:100F60000E94930E6C8364E070E0CE0101960E94B3
:100F70006A078BE20E944C071982EA821B82FA946C
:100F8000FE0CFC8264E070E0CE0101960E946A07CC
:100F90008CE20E944C070F900F900F900F90DF9102
:100FA000CF911F910F91FF90EF90DF90CF90089518
:100FB000EF92FF920F931F93CF93DF9300D000D057
:100FC000CDB7DEB780E6E82E86E0F82EC7010196A1
:100FD000F7010491033659F4F2E0EF0EF11CFC0125
:100FE000649170E090E080E00E946A0CEFCF0023F3
:100FF000C1F0F2E0EF0EF11CFC0184910E944C075D
:10100000015021F310E0A801B701CE0101960E9422
:10101000B610E00EF11EB801CE0101960E946A07DB
:10102000D5CF0F900F900F900F90DF91CF911F9120
:101030000F91FF90EF9008958038E1E09E0764F4EF
:10104000603A71054CF44138E1E05E072CF4213A36
:10105000310514F40C948F0708952F923F924F920C
:101060005F926F927F928F929F92AF92BF92CF9238
:10107000DF92EF92FF920F931F93CF93DF93CDB741
:10108000DEB7CD56D1090FB6F894DEBF0FBECDBF87
:101090004C01A3967FAF6EAFA3971A016901F701C8
:1010A000E430F10514F0E3E0F0E0033011050CF05A
:1010B00097C0702E102F1295110F110F107C000F7A
:1010C000000F000FEC51FD4FA080D1010D900020CA
:1010D000E9F7CD010197821993092C01960122505D
:1010E00031092230310508F037C1B3E0CB16D10405
:1010F00009F47BC05CE0E52EF12CE4E0F0E0A19681
:10110000FFAFEEAFA1978E9D90018F9D300D9E9DFC
:10111000300D1124280D391D2138314054F080E85C
:1011200091E088199909B7010E94930E2B0177FD70
:101130001FC2A196AEADBFADA19724E0AA0FBB1F01
:101140002A95E1F7A796BFAFAEAFA797C70104975F
:1011500063E070E00E947F0E6E5F7F4FFB01EE0F39
:10116000FF1FA996FFAFEEAFA9976F963FAE2EAEC9
:101170006F97912F902B8A2D8370982BAA969FAFF3
:10118000AA978A2D8F71182BAB961FAFAB970729A3
:10119000AC960FAFAC976F968EAD9FAD6F978219DF
:1011A0009309841595055CF190E080E0C359DF4F09
:1011B0000FB6F894DEBF0FBECDBFDF91CF911F9168
:1011C0000F91FF90EF90DF90CF90BF90AF909F90E6
:1011D0008F907F906F905F904F903F902F900895E9
:1011E00063E0762E0CE110EE6DCF4FE0E42EF12C93
:1011F00025E030E0A1963FAF2EAFA19784CF6F9648
:10120000AEADBFAD6F978D916F96BFAFAEAF6F971D
:101210008052990BB3E0CB16D10409F06EC0BC012B
:1012200093E0660F771F9A95E1F7605A7C4F48E08C
:1012300050E0CE018B5A9F4F0E94B610AE014F5F17
:101240005F4F68E070E0BB24B394F7013697A59632
:10125000FFAFEEAFA5979A01A1960EAD1FADA19776
:10126000040F151FAE961FAF0EAFAE97FE01EB5ADF
:10127000FF4F90E080E0A596AEADBFADA5978A1771
:101280009B070CF047C010811B21AA960FADAA97AF
:10129000111101C00A2D11811B21D1F10C7F0729E9
:1012A000AB961FADAB9762806B2029F0107EAC9699
:1012B0006FACAC971629AE96AEADBFADAE970C93A2
:1012C000D9010C938630910549F0AE96AEADBFAD15
:1012D000AE9711961C93D90111961C932E5F3F4F28
:1012E0000396AE960EAD1FADAE970E5F1F4FAE9636
:1012F0001FAF0EAFAE973396BECF26E0289FB0014A
:10130000299F700D1124605E7E4F46E050E091CF22
:101310001A2DC9CFBB0C61507109A9960EAD1FAD36
:10132000A997400F511F6115710509F094CF20E175
:1013300030E0A701A3966EAD7FADA397C4010E94D4
:101340001C08A7966EAD7FADA797CE0101960E94AF
:101350006A078E0C9F1C1FCFCD2809F07BC049E087
:10136000489F9001499F300D1124280D391D2138C7
:1013700031405CF080E891E08819990969E070E0FB
:101380000E94930E2B0177FDF3C07101BB24B3942F
:101390008A2D8F71182BC701821993098415950521
:1013A0000CF002CFD7016D917D016052770B83E085
:1013B000660F771F8A95E1F7605A7C4F48E050E04E
:1013C000CE018B5A9F4F0E94B61030E020E0CE0134
:1013D00001966C017B2D022E01C0770F0A94EAF76B
:1013E000FE01EB5AFF4FDC0150E040E060816723D3
:1013F00079F1612F6180672211F0637E602B4630A6
:10140000510529F06280672211F06C7F67296D9386
:101410004D5F5F4F33964930510541F703962F5F7B
:101420003F4F28303105B1F628E030E049E050E088
:10143000A3966EAD7FADA397C4010E941C08B9E0CE
:101440008B0E911C68E170E0C6010E946A07A3CF71
:101450006A2DD0CF46E0489F9001499F300D11245E
:10146000280D391D213831405CF080E891E0881961
:10147000990966E070E00E94930E2B0177FD78C019
:1014800061018A2D8F71182BC60182199309841569
:1014900095050CF089CED6018D916D018052990B86
:1014A000B6E0B89FB001B99F700D1124605E7E4F09
:1014B00046E050E0CE018B5A9F4F0E94B6106696D0
:1014C0007FAD669767966FAD679768969FAD689793
:1014D0006996AFAD69976A96BFAD6A976B966FAC28
:1014E0006B97FE01319650E040E07F0121E030E053
:1014F000042E01C0220F0A94EAF7872F8223A1F15C
:10150000812FB62EB22211F0837E802BB92EB2220B
:1015100011F08C7F872980838A2F822339F1812FD4
:10152000BB2EB22211F0837E802B262111F08C7FFE
:101530008729818332964F5F5F4F48305105B1F65E
:1015400028E030E046E050E0A3966EAD7FADA39773
:10155000C4010E941C08E6E08E0E911C60E170E060
:10156000C7010E946A0790CF8A2DCBCF8A2DD8CF92
:101570008FEF9FEF1BCEEF92FF920F931F93CF93AE
:10158000DF93CDB7DEB7C058D1090FB6F894DEBFF0
:101590000FBECDBFE82E28E830E040E851E070E013
:1015A00060E090E080E00E948F0708E810E0F12CF6
:1015B00040E850E0B701CE0101960E94C81060E8F3
:1015C00070E0CE0101960E946A070150110981F76F
:1015D000C058DF4F0FB6F894DEBF0FBECDBFDF910E
:1015E000CF911F910F91FF90EF9008951F93CF938C
:1015F000DF93D82F162FC42F80937E0360937D0333
:1016000040937C030E94280761E08D2F0E946C06A6
:1016100061E083ED0E946C0661E08D2F0E94C1069F
:1016200061E0812F0E946C0661E08C2F0E946C06A5
:1016300061E08C2F0E94C10662E370E080E090E0E0
:101640000E946A0C60E080917C030E94C10665E004
:1016500070E080E090E00E946A0C61E080917C0381
:101660000E94C10666E970E080E090E00E946A0C8A
:101670000E94D80780E00E94BB0A90E080E0DF91E2
:10168000CF911F9108958F929F92AF92BF92CF9268
:10169000DF92EF92FF921F93CF93DF93C2EFD2E0DE
:1016A00062E089910E946C0682E0C83FD807C1F7CA
:1016B0008AE0E9E8F3E0AFE7B3E001900D928A95A4
:1016C000E1F7C9E8D3E098EEC92E92E0D92E88243C
:1016D0008394912C1882F60111916F0161E0812FA2
:1016E0000E946C0660E0812F0E94C10682EFA82E46
:1016F00082E0B82EF12CE12CF50181915F010E946E
:10170000F606811109C0888194010E2C01C0220FB8
:101710000A94EAF7822B8883FFEFEF1AFF0A86E02C
:10172000E816F10449F761E0812F0E94C10660E0EC
:10173000812F0E946C062196E2EFCE16E2E0DE06D3
:1017400049F6DF91CF911F91FF90EF90DF90CF90FE
:10175000BF90AF909F908F900895EF92FF920F935C
:101760001F93CF93DF930E94430B70918903172F30
:1017700018707071C9E8D3E0AFE7B3E030E020E063
:1017800080E00AE0F99050E040E061E0E22E9F2D19
:10179000962396131DC09C919623D1F4E11004C0AA
:1017A0009DEF940F9230A0F082E492E0111106C0F8
:1017B00086E092E0711102C08EE792E0049FF00192
:1017C000059FF00D1124E80FF91FE20FF31F808130
:1017D000660F4F5F5F4F46305105C9F62F5F3F4F91
:1017E00011962A30310571F6DF91CF911F910F913B
:1017F000FF90EF9008951F920F920FB60F92112451
:101800002F933F938F939F93AF93BF9380919403B4
:1018100090919503A0919603B09197033091930313
:1018200023E0230F2D3758F50196A11DB11D2093FC
:1018300093038093940390939503A0939603B0939E
:1018400097038091980390919903A0919A03B09186
:101850009B030196A11DB11D80939803909399035A
:10186000A0939A03B0939B03BF91AF919F918F91E7
:101870003F912F910F900FBE0F901F90189526E863
:10188000230F0296A11DB11DD2CF3FB7F8948091CE
:10189000980390919903A0919A03B0919B0326B568
:1018A000A89B05C02F3F19F00196A11DB11D3FBF98
:1018B000BA2FA92F982F8827BC01CD01620F711D67
:1018C000811D911D42E0660F771F881F991F4A9561
:1018D000D1F708958F929F92AF92BF92CF92DF92ED
:1018E000EF92FF926B017C010E94450C4B015C0161
:1018F000C114D104E104F104E9F00E947E0E0E94BB
:10190000450C681979098A099B09683E734081056D
:10191000910570F321E0C21AD108E108F10888EEC0
:10192000880E83E0981EA11CB11CC114D104E104EF
:10193000F10429F7FF90EF90DF90CF90BF90AF9028
:101940009F908F900895789484B5826084BD84B50B
:10195000816084BD85B5826085BD85B5816085BDAA
:10196000EEE6F0E0808181608083E1E8F0E01082C3
:10197000808182608083808181608083E0E8F0E004
:10198000808181608083E1EBF0E0808184608083EE
:10199000E0EBF0E0808181608083E1E9F0E080812C
:1019A00082608083808181608083E0E9F0E08081D3
:1019B00081608083E1EAF0E08081826080838081C1
:1019C00081608083E0EAF0E0808181608083E1E2F1
:1019D000F1E0808182608083808181608083E0E2A9
:1019E000F1E0808181608083EAE7F0E080818460BB
:1019F0008083808182608083808181608083808118
:101A0000806880831092C10008958150823108F06F
:101A100058C0E82FF0E0E15FF24F0C94A70E2F0DB5
:101A2000330D210D270D2B0D610D360D3C0D400D95
:101A3000460D4A0D4E0D540D580D610D5C0D620D95
:101A4000660D809180008F7780938000089580914B
:101A500080008F7DF9CF80918000877FF5CF84B59E
:101A60008F7784BD089584B58F7DFBCF8091B000C2
:101A70008F778093B00008958091B0008F7DF9CF6B
:101A8000809190008F7780939000089580919000CE
:101A90008F7DF9CF80919000877FF5CF8091A00056
:101AA0008F778093A00008958091A0008F7DF9CF5B
:101AB0008091A000877FF5CF809120018F77809360
:101AC00020010895809120018F7DF9CF8091200120
:101AD000877FF5CFCF93DF9390E0FC01E954F94F76
:101AE00024918552994FFC0184918823C9F090E09C
:101AF000880F991FFC01E75EF84FA591B491FC0196
:101B0000E150F94FC591D49161110DC09FB7F89480
:101B10008C91209582238C938881282328839FBFD2
:101B2000DF91CF910895623051F49FB7F8943C91C2
:101B3000822F809583238C93E8812E2BEFCF8FB754
:101B4000F894EC912E2B2C938FBFEACF1F93CF9359
:101B5000DF93282F30E0F901ED56F94F8491F90118
:101B6000E954F94FD491F901E552F94FC491CC23CE
:101B7000A9F0162F81110E94050DEC2FF0E0EE0F59
:101B8000FF1FE150F94FA591B4918FB7F894EC91F4
:101B9000111108C0D095DE23DC938FBFDF91CF9168
:101BA0001F910895DE2BF8CFFC0180819181009771
:101BB00011F00C944C0F0895CF93DF93EC018881C2
:101BC0009981009711F00E944C0F198218821D8292
:101BD0001C821B821A82DF91CF9108950F931F936D
:101BE000CF93DF93EC018B016F5F7F4F88819981E9
:101BF0000E94D50F009751F0998388831B830A8335
:101C000081E0DF91CF911F910F91089580E0F9CF8E
:101C1000CF93DF93EC0188819981892B49F08A81E8
:101C20009B818617970720F081E0DF91CF9108957F
:101C3000CE010E94EE0D8823C1F38C819D81892BFA
:101C400099F7E881F9811082EFCFEF92FF920F931D
:101C50001F93CF93DF93EC017B018A01BA010E94AD
:101C6000080E81110BC0CE010E94DC0DCE01DF9168
:101C7000CF911F910F91FF90EF9008951D830C83DA
:101C8000B701888199810E94CF10F0CFFC011182A9
:101C9000108213821282158214826115710551F02F
:101CA000FB0101900020E9F73197AF01461B570B6C
:101CB0000C94250E0895FC01248135816217730769
:101CC00048F480819181009729F0860F971FFC01CD
:101CD0008081089580E008950C945B0E08950E9421
:101CE000A30C0E946E0E0E94B205C0E0D0E00E94DC
:101CF000F1052097E1F30E940000F9CF0895AA1B97
:101D0000BB1B51E107C0AA1FBB1FA617B70710F0E6
:101D1000A61BB70B881F991F5A95A9F78095909518
:101D2000BC01CD01089597FB072E16F4009407D04F
:101D300077FD09D00E947F0E07FC05D03EF49095F8
:101D400081959F4F0895709561957F4F0895EE0F8F
:101D5000FF1F0024001C0BBE0790F691E02D099494
:101D60000F931F93CF93DF938230910510F482E09D
:101D700090E0E0919E03F0919F0330E020E0B0E01E
:101D8000A0E0309799F42115310509F44AC0281BC9
:101D9000390B24303105D8F58A819B816115710595
:101DA00089F1FB0193838283FE0111C0408151813F
:101DB0000281138148175907E0F04817590799F431
:101DC000109761F012960C93129713961C9332960B
:101DD000CF01DF91CF911F910F91089500939E0342
:101DE00010939F03F4CF2115310551F0421753078B
:101DF00038F0A901DB019A01BD01DF01F801C1CF73
:101E0000EF01F9CF90939F0380939E03CDCFFE0106
:101E1000E20FF31F81939193225031093983288374
:101E2000D7CF20919C0330919D03232B41F4209127
:101E300002023091030230939D0320939C03209172
:101E40000002309101022115310541F42DB73EB752
:101E50004091040250910502241B350BE0919C0334
:101E6000F0919D03E217F307A0F42E1B3F0B2817F8
:101E7000390778F0AC014E5F5F4F2417350748F003
:101E80004E0F5F1F50939D0340939C03819391934A
:101E90009FCFF0E0E0E09CCFCF93DF930097E9F095
:101EA000FC01329713821282A0919E03B0919F038E
:101EB000ED0130E020E01097A1F420813181820F04
:101EC000931F20919C0330919D032817390709F037
:101ED00061C0F0939D03E0939C03DF91CF9108953F
:101EE000EA01CE17DF07E8F54A815B819E014115C3
:101EF0005105B1F7E901FB83EA8349915991C40F78
:101F0000D51FEC17FD0761F4808191810296840F43
:101F1000951FE90199838883828193819B838A83BA
:101F2000F0E0E0E012968D919C9113970097B9F53F
:101F30002D913C911197CD010296820F931F209114
:101F40009C0330919D032817390739F6309751F5D6
:101F500010929F0310929E03B0939D03A0939C0345
:101F6000BCCFD383C28340815181840F951FC81792
:101F7000D90761F44E5F5F4F88819981480F591FDF
:101F8000518340838A819B8193838283211531050C
:101F900009F0B0CFF0939F03E0939E039ECFFD0125
:101FA000DC01C0CF13821282D7CF4F925F926F9223
:101FB0007F928F929F92AF92BF92CF92DF92EF92D9
:101FC000FF920F931F93CF93DF938C01009799F4A7
:101FD000CB01DF91CF911F910F91FF90EF90DF9098
:101FE000CF90BF90AF909F908F907F906F905F90B9
:101FF0004F900C94B00EFC01E60FF71F9C0122508D
:102000003109E217F30708F4AEC0D901CD91DC9194
:102010001197C617D70720F1C530D10578F0CE014A
:1020200004978617970750F0C61BD70B2297C193CA
:10203000D1936D937C93CF010E944C0FC801DF9127
:10204000CF911F910F91FF90EF90DF90CF90BF90B5
:10205000AF909F908F907F906F905F904F9008957A
:102060005B01AC1ABD0A4C018C0E9D1EA0919E0313
:10207000B0919F03512C412CF12CE12C109731F59C
:1020800080919C0390919D038815990509F05CC08F
:102090004616570608F058C0809100029091010240
:1020A000009741F48DB79EB740910402509105020C
:1020B000841B950BE817F90708F055C0F0939D03B2
:1020C000E0939C03F90171836083B8CF8D919C915B
:1020D000119712966C90129713967C901397A815EF
:1020E000B90559F56C0142E0C40ED11CCA14DB04D9
:1020F00020F1AC014A195B09DA011296159780F0BC
:102100006282738251834083D9016D937C93E11481
:10211000F10471F0D7011396FC93EE9312978ECFD2
:1021200022968C0F9D1FF90191838083F301EFCFDD
:10213000F0939F03E0939E0381CF4816590608F45D
:102140002C017D01D3019ACFCB010E94B00E7C01FE
:10215000009749F0AE01B8010E94BF10C8010E946B
:102160004C0F87016BCF10E000E068CFFB01DC0172
:1021700002C005900D9241505040D8F70895FB01E0
:10218000DC0102C001900D9241505040D8F70895F3
:10219000DC0101C06D9341505040E0F70895FB0110
:1021A000DC0101900D920020E1F70895F894FFCF33
:1021B0000000A0038000213233242536272228295D
:1021C00071776572747975695B5D3D2B2D66676803
:1021D0006A3A3F08007A786376626E050004000D63
:1021E0000000013C3E6D0203F0F1F2F3F4F5F6F766
:1021F000F8F93132333435363738393051574552A2
:10220000545955494F504153444647484A4B4C084E
:10221000005A584356424E050004000D00005F2C42
:102220002E4D0203F0F1F2F3F4F5F6F7F8F931323E
:10223000333435363738393071776572747975696A
:102240006F706173646667686A6B6C08007A7863A4
:1022500076626E050004000D0000202C2E6D020336
:10226000F0F1F2F3F4F5F6F7F8F941546D656761B2
:10227000313238524641312044657620426F6172D6
:1022800064204F6E6C696E65210D0A004F6E6C699B
:102290006E652100004992FFE4F1F3E2E1D7A0A5C9
:0822A000D5D4E6B7B6B5B4E0F1
:00000001FF
