:100000000C9470030C949A030C949A030C949A0326
:100010000C949A030C949A030C949A030C949A03EC
:100020000C949A030C949A030C949A030C949A03DC
:100030000C949A030C949A030C949A030C949A03CC
:100040000C949A030C949A030C949A030C949A03BC
:100050000C949A030C949A030C949A030C940B0A34
:100060000C949A030C94570D0C948D0D0C949A03D8
:100070000C949A030C949A030C949A030C949A038C
:100080000C949A030C949A030C949A030C949A037C
:100090000C949A030C949A030C949A030C949A036C
:1000A0000C949A030C949A030C949A030C949A035C
:1000B0000C949A030C949A030C949A030C949A034C
:1000C0000C949A030C949A030C949A030C949A033C
:1000D0000C949A030C949A030C949A030C949A032C
:1000E0000C949A030C949A030C949A030C949A031C
:1000F0000C949A030C949A030C949A030C949A030C
:100100000C949A030C949A030C949A030C949A03FB
:100110000C949A030C949A030C949A030C949A03EB
:1001200000000000007CDAF2DA7C7CD6F2D67C3863
:100130007C3E7C38183C7E3C1838EABEEA38387A77
:10014000FE7A3800183C1800FFE7C3E7FF001824C8
:100150001800FFE7DBE7FF0C125C607064949E946C
:100160006402FEA0A0E002FEA0A4FC5A3CE73C5AB8
:10017000FE7C3838101038387CFE2844FE4428FABB
:10018000FA00FAFA6090FE80FE006691A956060613
:100190000606062945FF452910207E201008047E0A
:1001A000040810105438101038541010780808083B
:1001B0000830783078300C1C7C1C0C60707C7060CF
:1001C00000000000000000FA000000E000E000284D
:1001D000FE28FE282454FE5448C4C81026466C92BB
:1001E0006A040A0010E0C000003844820000824423
:1001F00038005438FE385410107C101000010E0CDA
:100200000010101010100000060600040810204016
:100210007C8A92A27C0042FE02004E9292926284FC
:100220008292B2CC182848FE08E4A2A2A29C3C52BA
:1002300092928C82848890E06C9292926C629292FC
:100240009478000028000000022C000000102844D0
:10025000822828282828008244281040809A90600C
:100260007C82BA9A723E4888483EFE9292926C7C9A
:1002700082828244FE8282827CFE92929282FE90F0
:100280009090807C82828ACEFE101010FE0082FE4A
:100290008200040282FC80FE10284482FE020202D8
:1002A00002FE403840FEFE201008FE7C8282827CE6
:1002B000FE909090607C828A847AFE90989462642A
:1002C0009292924CC080FE80C0FC020202FCF804B4
:1002D0000204F8FC021C02FCC6281028C6C0201E1E
:1002E00020C0869A92B2C200FE828282402010080C
:1002F0000400828282FE204080402002020202022C
:1003000000C0E01000042A2A1E02FE1422221C1C37
:10031000222222141C222214FE1C2A2A2A1800102F
:100320007E9040182525391EFE1020201E0022BE7A
:100330000200040202BC00FE081422000082FE0239
:10034000003E201E201E3E1020201E1C2222221CA9
:100350003F18242418182424183F3E10202010127F
:100360002A2A2A242020FC22243C0202043E3804AB
:100370000204383C020C023C2214081422320909FF
:10038000093E22262A322200106C82000000EE0074
:100390000000826C100040804020403C64C4643CFB
:1003A00078858586485C0202045E1C2A2AAA9A8403
:1003B000AAAA9E82842A2A1E8284AA2A1E02042AAB
:1003C000AA9E0230784A4E489CAAAAAA9A9C2A2A37
:1003D0002A9A9CAA2A2A1A0000A23E820040A2BEA3
:1003E000420080A23E020F9424940F0F14A4140F15
:1003F0003E2AAAA200042A2A3E2A3E5090FE924C8F
:100400009292924C4C1212124C4C5212120C5C8270
:1004100082845E5C4202041E00B90505BE9C222255
:10042000229CBC020202BC3C24FF2424127E92C205
:1004300066D4F43FF4D4FF90946F0403117E90C00F
:10044000042A2A9E82000022BE820C1212524C1CE8
:100450000202445E005E50504EBEB0988CBE649462
:1004600094F41464949494640C12B202041C10105A
:100470001010101010101CF40813355DF408142C23
:100480005F0000DE0000102854284444285428103F
:100490005500AA005555AA55AA55AA55AA55AA000D
:1004A0000000FF00080808FF00282828FF000808AF
:1004B000FF00FF08080F080F2828283F002828EF12
:1004C00000FF0000FF00FF28282F203F2828E80811
:1004D000F80808F808F8282828F8000808080F0085
:1004E000000000F808080808F8080808080F0800C5
:1004F0000000FF080808080808080808FF080000AE
:1005000000FF280000FF00FF0000F808E800003F9F
:10051000202F2828E808E828282F202F0000FF0097
:10052000EF28282828282828EF00EF282828E8285E
:100530000808F808F82828282F2808080F080F00AE
:1005400000F808F8000000F8280000003F2800002C
:100550000F080F0808FF08FF282828FF28080808A8
:10056000F8000000000F08FFFFFFFFFF0F0F0F0F45
:100570000FFFFFFF0000000000FFFFF0F0F0F0F0C1
:100580001C22221C223E54547C287E404060604045
:100590007E407E40C6AA9282C61C22223C20027E59
:1005A00004780460407E404099A5E7A599385492AC
:1005B0005438324E804E320C52B2B20C0C121E1213
:1005C0000C3D465A62BC7C929292007E8080807E76
:1005D00054545454542222FA2222028A52220202F1
:1005E00022528A020000FF80C00701FF00001010A5
:1005F000D6D6106C486C246C60F090F06000001847
:10060000180000000808000C02FF808000F88080BD
:10061000780098B8E848003C3C3C3C30F0F0F0F002
:1006200030F8BE9FFFF8C0C0C08000203C3F3F1F95
:10063000191F7BFBFEFE0707070300000000090AE5
:100640000B00000307000000000000000000020093
:100650000000000000000000000000000004050190
:100660000204081020408020100104080202010149
:1006700002042004081020408001020408102040D9
:1006800080408005050505050505050202020202F8
:10069000020404070707070404040404040606060A
:1006A0000606060606020200000000250000002BD8
:1006B000002E0031003400000000000000000000A7
:1006C0000000000000240000002A002D003000334C
:1006D000000000000000000000000000FE09C10D45
:1006E00011241FBECFEFD1E4DEBFCDBF16E0A0E0E6
:1006F000B2E0EAE3F0E200E00BBF02C007900D9227
:10070000AE3CB107D9F727E0AEECB6E001C01D92D0
:10071000A138B207E1F713E0C0E7D3E004C02197A6
:10072000FE010E944C0FCE36D107C9F70E94EF0E92
:100730000C941B100C9400009091D106891710F4B2
:100740008093D1068091D006841710F44093D00690
:100750008091CF06681710F46093CF068091CE0683
:10076000821710F42093CE06089587FD1EC06034D2
:10077000E0F4E62FE695E695E69590E8E99FF0012E
:100780001124E80FF11DEC5FFD4F208170E06095B2
:1007900070956770772781E090E001C0880F6A95B7
:1007A000EAF7442319F0822B8083089580958223F1
:1007B000FBCF2F923F924F925F926F927F928F92D8
:1007C0009F92AF92BF92CF92DF92EF92FF920F93E0
:1007D0001F93CF93DF93D62EF42E5901E40E142FDE
:1007E000802E912C66246394712C812F8F191E15F5
:1007F00041F1982F9695969596958770230102C0A2
:10080000440C551C8A95E2F7D0E0C0E01501909F9A
:10081000200C311C1124C815D90589F0F101EC0F09
:10082000FD1FE491F0E0E421F521EF2B31F04C2D98
:10083000612F8C2F8D0D0E94B5032196ECCF1F5F89
:10084000D4CF402F4D0D212F6F2D8D2DDF91CF91C6
:100850001F910F91FF90EF90DF90CF90BF90AF90DE
:100860009F908F907F906F905F904F903F902F90D0
:100870000C949C03CF93DF93862F90E8499FE0016F
:10088000112495E029029001112470E060E0205EBF
:100890003E4FCC5FDD4FF901E60FF71FE491A82F23
:1008A000A60FAC0FBD2FB11DEC936F5F7F4F65306E
:1008B000710589F74F5F242F220F220F220F4AE084
:1008C000480F68EF620F8B5FDF91CF910C949C0310
:1008D000EF92FF920F931F93CF93DF937C01C62F6C
:1008E000D42F8901F80121918F01222361F04D2F2E
:1008F0006C2FC7010E943A04CA5FCA3710F0DF5F4D
:10090000C0E0D83078F3DF91CF911F910F91FF9025
:10091000EF9008958F929F92AF92BF92CF92DF9205
:10092000EF92FF920F931F93CF93DF93C62FD42F95
:10093000122F202F241B330B690137FF03C0D194E2
:10094000C194D108812F8C1B990B5C0197FF03C0C8
:10095000B194A194B108AC14BD0434F4812F102FCC
:10096000082F8C2FCD2FD82F1C1730F48D2FD02F80
:10097000082F8C2FC12F182F202F412F6D2F8C2F38
:100980000E949C03812E8C1A202F2D1B330BC90132
:1009900037FF03C0919581959109F82E982C969474
:1009A000D017A0F00FEF1C1798F04E2D6C2F8D2F45
:1009B000AC14BD0414F06D2F8C2F0E94B5039F184A
:1009C00097FE02C0D00F980CCF5FEDCF01E0EBCFC8
:1009D000DF91CF911F910F91FF90EF90DF90CF901B
:1009E000BF90AF909F908F9008959F92AF92BF92CB
:1009F000CF92DF92EF92FF920F931F93CF93DF93EB
:100A0000C62FD42F122FF62E862F820F9927991FCB
:100A10006C01842F800F9927991F5C01FC141D0421
:100A20006CF49D2E9A141B043CF44E2D692D8F2DD1
:100A30000E94B5039394F6CFF394F0CF2D2F200F9F
:100A40004C2F410F6D2F8C2FDF91CF911F910F9164
:100A5000FF90EF90DF90CF90BF90AF909F900C945D
:100A60009C03AF92BF92DF92EF92FF920F931F937E
:100A7000CF93DF93C62FD42F122FF62E862F820FFF
:100A80009927991F5C01DD24DA94D00ED40EFA1454
:100A90001B0464F44E2D6D2F8F2D0E94B5034E2D37
:100AA0006D2D8F2D0E94B503F394F1CFFD2E8D2F68
:100AB000800F9927991F5C01DD24DA94D10EDC0E9A
:100AC000FA141B0464F44E2D6F2D8C2F0E94B50375
:100AD0004E2D6F2D8D2D0E94B503F394F1CF2D2F48
:100AE000200F4C2F410F6D2F8C2FDF91CF911F9135
:100AF0000F91FF90EF90DF90BF90AF900C949C030C
:100B00009F92AF92BF92CF92DF92EF92FF920F939C
:100B10001F93CF93DF93F62E142FD22F942E920E85
:100B2000B22EB60EA42EA21AC62EC21A292D4B2DF5
:100B30006A2D8C2D0E949C0381E0E82EED1ADD2E9B
:100B4000D194DD0C402F692D8F2D0E94B503402FCD
:100B50006A2D8F2D0E94B503402F612F8B2D0E948F
:100B6000B503402F612F8C2D0E94B503C0E0CD1737
:100B70000CF044C0E7FC04C0D150D394D394ED0CE6
:100B8000CF5F8C2F880F8F5FE80EAF2CAC0E402FFD
:100B9000CD2EC10E6C2D8A2D0E94B503BF2CBC1A20
:100BA000402F6C2D8B2D0E94B503402FC12ECD1AE6
:100BB0006C2D8A2D0E94B503402F6C2D8B2D0E9429
:100BC000B503C12ECC0E402F6C2DBD2EBF0C8B2D2E
:100BD0000E94B503402F6C2DCF2CCD1A8C2D0E9476
:100BE000B503A12EAC1A402F6A2D8B2D0E94B503A0
:100BF000402F6A2D8C2D0E94B503B9CFDF91CF9184
:100C00001F910F91FF90EF90DF90CF90BF90AF902A
:100C10009F9008954F925F926F927F928F929F92D2
:100C2000AF92BF92CF92DF92EF92FF920F931F93FA
:100C3000CF93DF93162F842EC22FB42EB21A242FF7
:100C40002C0F4C2F460F6B2D812F8C1B0E949C0369
:100C5000D1E0DC1B9C2E9194990CC82CD12C7601F0
:100C6000EC0EF11CBE141F0409F03CF4402F6B2D58
:100C7000812F0E94B503B394F5CF66246394610E6F
:100C800077247A94710EF12CFC160CF040C0D7FD3D
:100C900004C0C15093949394D90DF3948F2D880F71
:100CA0008F5FD80FE82CEC1A5601AC0EB11CC7FDB3
:100CB000BA94EA141B0409F064F4402F6E2D862DBB
:100CC0000E94B503402F6E2D872D0E94B503E3943B
:100CD000F0CFE82CEF185601AF0CB11CF7FCBA941A
:100CE0004C2E410E512E5C1AEA141B0421F01CF00C
:100CF00063947A94C9CF402F6E2D842D0E94B50342
:100D0000402F6E2D852D0E94B503E394EDCFDF912A
:100D1000CF911F910F91FF90EF90DF90CF90BF90F8
:100D2000AF909F908F907F906F905F904F900895BD
:100D3000862F642F87FD26C0403420F5E42FE695EA
:100D4000E695E69590E8E99FF0011124E80FF11D82
:100D5000EC5FFD4F9081A42FB0E0A095B095A770F7
:100D6000BB2741E050E001C0440FAA95EAF72223D7
:100D700031F0492B4083262F482F0C949C0340953B
:100D80004923F8CF08951F93CF93DF93EC01162FDB
:100D900060E08A810E94B60B212F41E06981888141
:100DA000DF91CF911F910C94E40BCF93DF93EC0173
:100DB00061E088810E947A0B61E089810E947A0B50
:100DC00061E08A810E947A0B61E08B810E947A0B3C
:100DD00061E08C810E947A0B8C8118161CF460E013
:100DE0000E94B60B60E08B810E94B60B64EF71E04D
:100DF00080E090E00E947A0A61E08B810E94B60B4D
:100E000063EACE010E94C30660EACE010E94C306D7
:100E100060ECCE010E94C30660E4CE010E94C306CE
:100E20006CE2CE010E94C30662E370E080E090E0D5
:100E30000E947A0A6EE2CE010E94C30662E370E06D
:100E400080E090E00E947A0A6FE2CE010E94C30621
:100E50006AE070E080E090E00E947A0A66E2CE01EB
:100E60000E94C3062FE34FE760E080E0DF91CF915F
:100E70000C949C031F93CF93DF93EC01162F61E03A
:100E80008A810E94B60B212F41E069818881DF9120
:100E9000CF911F910C94E40B0F931F93CF938C0170
:100EA000C62F61E80E94C3066C2F6F73C801CF91F3
:100EB0001F910F910C94C3061F93CF93DF93EC0106
:100EC000162F0E94D5066FEACE010E94C30664EA7F
:100ED000CE010E94C306612FCE01DF91CF911F91F9
:100EE0000C944C07AF92BF92CF92DF92EF92FF9299
:100EF0000F931F93CF93DF938C0124E0E22E26E023
:100F0000F22ED0E0C0E06E0188E0C80ED11C8091C6
:100F1000CF068C151D04CCF58091CE068C171D06CE
:100F2000E4F1F7016081606BC8010E94C306B090D4
:100F3000D106A090D00661E06B0D6F70C8010E94D1
:100F4000C3066B2D70E06F5F7F4F84E075956795EA
:100F50008A95E1F76F706061C8010E94C30660EE78
:100F6000C8010E94C30694E0CC0FDD1F9A95E1F7FB
:100F7000CC5FDD4FAB1448F0FE01EB0DF11D60813D
:100F8000C8010E943A07B394F5CFFFEFEF1AFF0AAA
:100F9000E601C034D10509F0B6CF8FE78093D106C2
:100FA0001092D0068FE38093CF061092CE06DF9189
:100FB000CF911F910F91FF90EF90DF90CF90BF9056
:100FC000AF900895E4E0F2E080E094E0DF019C015E
:100FD0001D9221503040E1F72FE34FE760E080E0C1
:100FE0000C949C030895CF93DF9300D0CDB7DEB768
:100FF00020917D0730917E07CE01019621153105A4
:1010000059F4815897409A83898389819A810F90F6
:101010000F90DF91CF910895821B930BF4CFCF9364
:10102000DF93CDB7DEB76E970FB6F894DEBF0FBE75
:10103000CDBFF62ED42E6AE972E080E090E00E94E7
:10104000CC0E5E018FE1A80EB11CFE0131964F015E
:1010500060E870E080E090E00E94D40EF4016083CC
:10106000118265E070E080E090E00E94D40E6F5F36
:10107000F4016283F3E08F0E911C8A149B0441F704
:10108000CE0101963C01CC24C394ED2C0F2D2BE115
:1010900036E0F3014181608182ED96E00E94D90340
:1010A000F3E06F0E711C6814790469F782ED96E025
:1010B0000E94720768EC70E080E090E00E947A0A7B
:1010C000CE0101965C01F5011181C12CED2C0F2D93
:1010D0002BE136E0412F608182ED96E00E94D9033A
:1010E000F5018281180F1183113490F060E870E0EF
:1010F00080E090E00E94D40EF5016083118265E0EB
:1011000070E080E090E00E94D40E6F5FF501628392
:10111000F3E0AF0EB11CA614B704A9F6B1CFCF937C
:10112000DF93C0E0D5E18C2F6D2F0E94FF0E692F59
:10113000660F690F660F2C2F482F82ED96E00E94F4
:101140003A04CF5FC83A79F7DF91CF9108950F93B2
:10115000CF93C0E001E02C2F4FE16FE382ED96E0EA
:101160000E948005CE5FC034A9F7CF910F910895FA
:10117000EF920F931F93CF93DF93C0E010E4D0E87A
:10118000012F0C1B2D2F2C1BEE24E3944C2F6C2FC6
:1011900082ED96E00E943105CE5FC03489F7DF9181
:1011A000CF911F910F91EF900895EF920F931F939E
:1011B000CF93DF93C0E010E4D0E88C2F8170E82E4D
:1011C000012F0C1B2D2F2C1B4C2F6C2F82ED96E02A
:1011D0000E94F504CF5FC03481F7DF91CF911F915A
:1011E0000F91EF900895EF920F93CF93C0E0EE240C
:1011F000E3940FE32C2F40E060E082ED96E00E9444
:101200008A04CC5FC03899F7C0E0EE24E3940C2F39
:101210002FE740E060E082ED96E00E948A04CC5F18
:10122000C03499F782ED96E00E94720768EE73E091
:1012300080E090E00E947A0AC0E0E12C00E020E02B
:101240004FE36C2F82ED96E00E948A04CC5FC03899
:10125000A1F7C0E0E12C00E020E04C2F6FE782ED29
:1012600096E00E948A04CC5FC034A1F7CF910F9121
:10127000EF90089526E040E855E260E070E080EEEF
:1012800096E00E94F50C0E94F3074AE050E0BC0192
:1012900080EE96E00E94C50E61E084E00E947A0B29
:1012A00060E084E00E94B60B68E182ED96E00E9467
:1012B0005C0782ED96E00E94720760ED77E080E0C7
:1012C00090E00E947A0A82ED96E00E94E20721E017
:1012D0004AE06AE082ED96E00E94980682ED96E090
:1012E0000E94720760ED77E080E090E00E947A0A49
:1012F00082ED96E00E94E2070E94F30882ED96E0FC
:101300000E94720760ED77E080E090E00E947A0A28
:1013100082ED96E00E94E2070E94B80882ED96E016
:101320000E94720760ED77E080E090E00E947A0A08
:1013300082ED96E00E94E2070E94D50882ED96E0D9
:101340000E94720760ED77E080E090E00E947A0AE8
:1013500082ED96E00E94E2070E94A70882ED96E0E7
:101360000E94720760ED77E080E090E00E947A0AC8
:1013700082ED96E00E94E20701E02AE040E260E2AE
:1013800082ED96E00E940A0682ED96E00E947207C6
:1013900060ED77E080E090E00E947A0A82ED96E0CE
:1013A0000E94E2070E948F0882ED96E00E94720779
:1013B00060ED77E080E090E00E947A0A82ED96E0AE
:1013C0000E94E2072CE036E040E060E082ED96E02B
:1013D0000E94680482ED96E00E94720760ED77E05B
:1013E00080E090E00E947A0A82ED96E00E94E20797
:1013F00040E160E18BE196E00E940F08E2EDF6E04B
:101400008BE080838DE0818388E1828382E1838326
:1014100087E0848308951F920F920FB60F921124D4
:101420002F933F938F939F93AF93BF938091D80651
:101430009091D906A091DA06B091DB063091D706DB
:1014400023E0230F2D3758F50196A11DB11D2093E0
:10145000D7068093D8069093D906A093DA06B09366
:10146000DB068091DC069091DD06A091DE06B0914E
:10147000DF060196A11DB11D8093DC069093DD0669
:10148000A093DE06B093DF06BF91AF919F918F913D
:101490003F912F910F900FBE0F901F90189526E847
:1014A000230F0296A11DB11DD2CF3FB7F8948091B2
:1014B000DC069091DD06A091DE06B091DF0626B530
:1014C000A89B05C02F3F19F00196A11DB11D3FBF7C
:1014D000BA2FA92F982F8827BC01CD01620F711D4B
:1014E000811D911D42E0660F771F881F991F4A9545
:1014F000D1F708958F929F92AF92BF92CF92DF92D1
:10150000EF92FF926B017C010E94550A4B015C0136
:10151000C114D104E104F104E9F00E94FE0E0E941E
:10152000550A681979098A099B09683E7340810543
:10153000910570F321E0C21AD108E108F10888EEA4
:10154000880E83E0981EA11CB11CC114D104E104D3
:10155000F10429F7FF90EF90DF90CF90BF90AF900C
:101560009F908F900895789484B5826084BD84B5EF
:10157000816084BD85B5826085BD85B5816085BD8E
:10158000EEE6F0E0808181608083E1E8F0E01082A7
:10159000808182608083808181608083E0E8F0E0E8
:1015A000808181608083E1EBF0E0808184608083D2
:1015B000E0EBF0E0808181608083E1E9F0E0808110
:1015C00082608083808181608083E0E9F0E08081B7
:1015D00081608083E1EAF0E08081826080838081A5
:1015E00081608083E0EAF0E0808181608083E1E2D5
:1015F000F1E0808182608083808181608083E0E28D
:10160000F1E0808181608083EAE7F0E0808184609E
:1016100080838081826080838081816080838081FB
:10162000806880831092C10008958150823108F053
:1016300058C0E82FF0E0E15EF44F0C944C0F3F0BE4
:10164000430B310B370B3B0B710B460B4C0B500B09
:10165000560B5A0B5E0B640B680B710B6C0B720B09
:10166000760B809180008F77809380000895809121
:1016700080008F7DF9CF80918000877FF5CF84B582
:101680008F7784BD089584B58F7DFBCF8091B000A6
:101690008F778093B00008958091B0008F7DF9CF4F
:1016A000809190008F7780939000089580919000B2
:1016B0008F7DF9CF80919000877FF5CF8091A0003A
:1016C0008F778093A00008958091A0008F7DF9CF3F
:1016D0008091A000877FF5CF809120018F77809344
:1016E00020010895809120018F7DF9CF8091200104
:1016F000877FF5CFCF93DF9390E0FC01E15AF94F5C
:1017000024918D57994FFC0184918823C9F090E072
:10171000880F991FFC01EF53F94FA591B491FC017B
:10172000E955F94FC591D49161110DC09FB7F89457
:101730008C91209582238C938881282328839FBFB6
:10174000DF91CF910895623051F49FB7F8943C91A6
:10175000822F809583238C93E8812E2BEFCF8FB738
:10176000F894EC912E2B2C938FBFEACF1F93CF933D
:10177000DF93282F30E0F901E55CF94F8491F901FE
:10178000E15AF94FD491F901ED57F94FC491CC23A7
:10179000A9F0162F81110E94150BEC2FF0E0EE0F2F
:1017A000FF1FE955F94FA591B4918FB7F894EC91CB
:1017B000111108C0D095DE23DC938FBFDF91CF914C
:1017C0001F910895DE2BF8CFFF920F931F93CF93B5
:1017D000DF93082F162FF42EC22FD8E06C2FF110B4
:1017E00015C06170802F0E94B60BC69561E0812FF5
:1017F0000E94B60B60E0812F0E94B60BD15071F7AA
:10180000DF91CF911F910F91FF900895661F66277A
:10181000661F802F0E94B60BCC0FE8CFFC01918D84
:10182000228D892F90E0805C9F4F821B91098F73DE
:1018300099270895FC01918D828D981731F0828D42
:10184000E80FF11D858D90E008958FEF9FEF0895CB
:10185000FC01918D828D981761F0A28DAE0FBF2F84
:10186000B11D5D968C91928D9F5F9F73928F90E0DA
:1018700008958FEF9FEF0895FC01538D448D252F20
:1018800030E0842F90E0821B930B541710F0CF961A
:1018900008950197089587EB9DE0892B49F080E03A
:1018A00090E0892B29F00E94B70D81110E94000061
:1018B00080E090E0892B49F080E090E0892B29F0CE
:1018C0000E94000081110C9400000895FC01A48D79
:1018D000A80FB92FB11DA35ABF4F2C91848D90E052
:1018E00001968F739927848FA689B7892C93A08935
:1018F000B1898C91837080648C93938D848D9813BF
:1019000006C00288F389E02D80818F7D8083089551
:10191000CF93DF93EC01888D8823B9F0AA89BB8926
:10192000E889F9898C9185FD03C0808186FD0DC011
:101930000FB607FCF7CF8C9185FFF2CF808185FF32
:10194000EDCFCE010E94660CE9CFDF91CF910895D3
:10195000EF92FF920F931F93CF93DF93EC0181E0FF
:10196000888F9B8D8C8D98131AC0E889F9898081A6
:1019700085FF15C09FB7F894EE89FF896083E889D9
:10198000F98980818370806480839FBF81E090E0CB
:10199000DF91CF911F910F91FF90EF900895F62E58
:1019A0000B8D10E00F5F1F4F0F731127E02E8C8DF2
:1019B0008E110CC00FB607FCFACFE889F989808137
:1019C00085FFF5CFCE010E94660CF1CFEB8DEC0FB9
:1019D000FD2FF11DE35AFF4FF0829FB7F8940B8F54
:1019E000EA89FB8980818062CFCFCF92DF92EF922C
:1019F000FF921F93CF93DF93EC016A017B01122FBB
:101A0000E889F98982E08083C11481EED806E10477
:101A1000F104A1F060E079E08DE390E0A701960188
:101A20000E940B0F215031094109510956954795E4
:101A300037952795211580E1380798F0E889F989CD
:101A4000108260E874E88EE190E0A70196010E94A0
:101A50000B0F21503109410951095695479537958A
:101A60002795EC85FD853083EE85FF852083188ED4
:101A7000EC89FD891083EA89FB89808180618083FC
:101A8000EA89FB89808188608083EA89FB8980817B
:101A900080688083EA89FB8980818F7D8083DF91E4
:101AA000CF911F91FF90EF90DF90CF9008951F92FC
:101AB0000F920FB60F9211240BB60F922F938F93A4
:101AC0009F93EF93FF93E091F006F091F1068081F0
:101AD000E091F606F091F70682FD1DC0908180919D
:101AE000F9068F5F8F732091FA06821741F0E0911B
:101AF000F906F0E0E052F94F958F8093F906FF91D7
:101B0000EF919F918F912F910F900BBE0F900FBE71
:101B10000F901F9018958081F2CF1F920F920FB6F1
:101B20000F9211240BB60F922F933F934F935F9315
:101B30006F937F938F939F93AF93BF93EF93FF9395
:101B400080EE96E00E94660CFF91EF91BF91AF91FD
:101B50009F918F917F916F915F914F913F912F91C5
:101B60000F900BBE0F900FBE0F901F90189580EE38
:101B700096E00E940E0C21E0892B09F420E0822FD0
:101B80000895E0EEF6E01382128288EE93E0A0E082
:101B9000B0E084839583A683B78380EC96E091833D
:101BA000808385EC90E09587848784EC90E097872C
:101BB000868780EC90E0918B808B81EC90E0938B1A
:101BC000828B82EC90E0958B848B86EC90E0978BF7
:101BD000868B118E128E138E148E0895AF92BF9243
:101BE000CF92DF92EF92FF920F931F93CF93DF93E9
:101BF0006C017B018B01040F151FEB015E01AE1818
:101C0000BF08C017D10759F06991D601ED91FC9139
:101C10000190F081E02DC6010995892B79F7C50166
:101C2000DF91CF911F910F91FF90EF90DF90CF90B8
:101C3000BF90AF900895FB0101900020E9F7319724
:101C4000AF01461B570BDC01ED91FC910280F38143
:101C5000E02D0994DC01ED91FC910190F081E02DE3
:101C600009948F929F92AF92BF92EF92FF920F933F
:101C70001F93CF93DF93CDB7DEB7A1970FB6F8943C
:101C8000DEBF0FBECDBF7C01FA01CB0119A222300D
:101C900008F42AE08E010F5D1F4F822E912CB12C8B
:101CA000A12CBF01A50194010E940B0FF901CA01EB
:101CB0006A300CF5605DD8016E938D01232B242BC7
:101CC000252B79F790E080E0109721F0BD01C70146
:101CD0000E941B0EA1960FB6F894DEBF0FBECDBFBB
:101CE000DF91CF911F910F91FF90EF90BF90AF9038
:101CF0009F908F900895695CDECFCF92DF92EF9234
:101D0000FF920F931F93CF93DF932115310581F439
:101D1000DC01ED91FC910190F081E02D642FDF91C9
:101D2000CF911F910F91FF90EF90DF90CF9009948A
:101D30002A30310501F52AE077FF1DC06A017B01D9
:101D4000EC016DE20E942A0E8C0144275527BA014E
:101D50004C195D096E097F092AE0CE010E94310EFF
:101D6000800F911FDF91CF911F910F91FF90EF9006
:101D7000DF90CF900895DF91CF911F910F91FF9049
:101D8000EF90DF90CF900C94310E9A01AB01770F5A
:101D9000660B770B0C947D0E61157105810591051D
:101DA00011F00C940A100895CF92DF92EF92FF92F7
:101DB0006B017C01C114D104E104F10441F00E94E3
:101DC000BB0FA70196010E942D0F6B017C01C7017B
:101DD000B601FF90EF90DF90CF90089508950E9494
:101DE000B30A0E94EE0E0E943A09CBE4DCE00E94A6
:101DF000F2072097E1F30E944B0CF9CF0895991B4D
:101E000079E004C0991F961708F0961B881F7A95F1
:101E1000C9F780950895A1E21A2EAA1BBB1BFD01EC
:101E20000DC0AA1FBB1FEE1FFF1FA217B307E407B9
:101E3000F50720F0A21BB30BE40BF50B661F771F11
:101E4000881F991F1A9469F76095709580959095F1
:101E50009B01AC01BD01CF010895052E97FB1EF437
:101E600000940E94440F57FD07D00E940B0F07FCFF
:101E700003D04EF40C94440F509540953095219525
:101E80003F4F4F4F5F4F08959095809570956195A6
:101E90007F4F8F4F9F4F0895EE0FFF1F0024001CB0
:101EA0000BBE0790F691E02D09940E94600FA59F4C
:101EB000900DB49F900DA49F800D911D1124089545
:101EC000A29FB001B39FC001A39F700D811D11247B
:101ED000911DB29F700D811D1124911D08958F9247
:101EE0009F92AF92BF92CF92DF92EF92FF92CF93E9
:101EF000DF93EC01688179818A819B81611571058D
:101F00008105910521F464E279ED8BE597E02DE1FF
:101F100033EF41E050E00E942D0F49015A019B012F
:101F2000AC01A7EAB1E40E94550F6B017C01ACEE55
:101F3000B4EFA50194010E941610C60ED71EE81E2C
:101F4000F91EF7FE06C081E0C81AD108E10880E852
:101F5000F80AC882D982EA82FB82C701B6019F775C
:101F6000DF91CF91FF90EF90DF90CF90BF90AF9037
:101F70009F908F9008958F929F92AF92BF92CF9231
:101F8000DF92EF92FF9260910002709101028091C6
:101F9000020290910302611571058105910521F4FA
:101FA00064E279ED8BE597E02DE133EF41E050E01D
:101FB0000E942D0F49015A019B01AC01A7EAB1E42F
:101FC0000E94550F6B017C01ACEEB4EFA5019401AA
:101FD0000E941610C60ED71EE81EF91EF7FE06C098
:101FE00081E0C81AD108E10880E8F80AC09200022E
:101FF000D0920102E0920202F0920302C701B60100
:102000009F77FF90EF90DF90CF90BF90AF909F9021
:102010008F900895609300027093010280930202F2
:10202000909303020895B7FF0C94550F0E94550F2B
:0A203000821B930B0895F894FFCF74
:10203A000100000000000000000000000000000095
:10204A000000000000000000000000000000000086
:10205A000000000000000000000000000000000076
:10206A000000000000000000000000000000000066
:10207A000000000000000000000000000000000056
:10208A000000000000000000000000000000000046
:10209A000000000000000000000000000000000036
:1020AA000000000000000000000000000000000026
:1020BA000000000000000000000000000000000016
:1020CA000000000000000003070F1F1F3F3F3F3FB3
:1020DA0007000000000000000000000000000000EF
:1020EA0000000000000000000000000000000000E6
:1020FA000000000000007F3F000000000000000018
:10210A000000000000001F3F707000000000000087
:10211A0000000000000000000000000000060600A9
:10212A00000003030000000000000000000000009F
:10213A00000000001F1F1F1F1F1F1F1F1F1F1F1F21
:10214A001F0F0707073FFFFFFFFFFFFEFFFFFFFF0E
:10215A00FF3E000000000000000000000000000038
:10216A0000000F3F7060606060307F3F00001F3FDB
:10217A00706060606039FFFF00061F396060606050
:10218A00303F7F000060FFFF6060007F7F7060600B
:10219A0040007F7F000000007F7F0000007F7F00FB
:1021AA000060FFFF60600000000000000000000007
:1021BA000000000080F8FCFEFEFFFFFFFFFFFFFFAC
:1021CA00EFE7E7E3F3F9FFFFFFF7071FFFFFFFFF63
:1021DA00FFFF7FFF7F7F7F7F7F7F3F3F1F0F0703C9
:1021EA00000000C0E060202060E0E0E0000080C065
:1021FA00E060206060E0E0E0000080C06060206095
:10220A0060E0E0000000E0E0000000E0E000000024
:10221A00000080E060606060E080000000E0E000B4
:10222A000000E0E0000000000000000000000000E4
:10223A000000000000000003071F9FFFFFFFFFFFD1
:10224A00FFFDF1E3E3CFFFFFFFFFF0FC7F3F3F3FDE
:10225A003F7FFFFFFFFFFFFFFFFFFFFEFCF0E08075
:10226A000000000C1C00000000000000000000003C
:10227A00000000000000000000007F7F0000000056
:10228A000000000000000000000000000000000044
:10229A00000707000000000000000000001C0C00FE
:1022AA000000000000000000000000000000000024
:1022BA00000000000007FFFFFFFFFFFFFFFFFEFE19
:1022CA00FEFEFCF8F8F0FEFFFFFF7F3FFFFFFFFF77
:1022DA00FFFFFF1F000000000000000000000000D8
:1022EA00000000FFFF000000FFFFE0C0C0C0FF7F4A
:1022FA0000001E7FE1C0C0C0C061FFFF0000FEFFFA
:10230A0001000000FFFF000021F9F8DCCCCF070034
:10231A00C0FFFFC08000FFFFC0C0800000FFFF00B9
:10232A00001F7FF9C8C8C8C87939000071F9D8CC2C
:10233A00CE4703000000000080800000000000007B
:10234A000000000000000080C0E0F0F8F8FCFCFC8F
:10235A00FCF8F0C0000000000000000000000000CF
:10236A00000000C0C0000000C0C000000000C0C0E3
:10237A0000000080C0C0C0C0C080C0C00000008093
:10238A00C0C0C0C0C080000080C0C0C0C0C00000C3
:10239A0000C0C0000000C0800000000000C0C000F3
:1023AA00000080C0C0C0C0C08080000080C0C0C023
:1023BA00C0800000000000000000000000000000D3
:1023CA000000000000000000000000000000000003
:1023DA0000000000000000000000000000000000F3
:1023EA0000000000000000000000000000000000E3
:1023FA0000000000000000000000000000000000D3
:10240A0000000000000000000000000000000000C2
:10241A0000000000000000000000000000000000B2
:10242A0000000000000000000000000000000000A2
:10243A000000000003020100070605044C6F7265E4
:10244A006D20697073756D20646F6C6F722073698B
:10245A007420616D65742C20636F6E736563746597
:10246A00747572206164697069736963696E672043
:10247A00656C69742C2073656420646F20656975C6
:10248A00736D6F642074656D706F7220696E636915
:10249A00646964756E74207574206C61626F72650C
:1024AA0020657420646F6C6F7265206D61676E6160
:1024BA0020616C697175612E20557420656E696D95
:1024CA00206164206D696E696D2076656E69616D43
:1024DA002C2071756973206E6F7374727564206530
:1024EA007865726369746174696F6E000000000038
:0E24FA00A80CEE0D3C0C880C0E0C280C1A0CD5
:00000001FF
