:100000000C94D2000C94FA000C94FA000C94FA00B0
:100010000C94FA000C94FA000C94FA000C94FA0078
:100020000C94FA000C94FA000C94FA000C94E80773
:100030000C94E3090C94FA000C94FA000C94FA0066
:100040000C94BD0C0C94FA000C94D60D0C94FA0090
:100050000C94FA000C94FA000C94FA000C94FA0038
:100060000C94FA000C94FA0053616D706C65207268
:1000700061746520746F6F206869676821004D6F37
:100080007265207468616E20313620626974732055
:100090007065722073616D706C6521004E6F742005
:1000A0006D6F6E6F2F73746572656F2100436F6D96
:1000B0007072657373696F6E206E6F7420737570E4
:1000C000706F7274656400436F6D707265737369ED
:1000D0006F6E206E6F7420737570706F72746564CC
:1000E000004E6F7420612076616C69642057415620
:1000F00000436F756C646E2774206F70656E2066A8
:10010000696C65200046696C657320666F756E6466
:100110003A00436F756C646E2774206F70656E20B3
:10012000646972004E6F20706172746974696F6ED9
:1001300021004361726420696E69742E20666169D2
:100140006C6564210000000000240027002A0000E4
:10015000000000250028002B0000000000230026DE
:10016000002900040404040404040402020202023C
:10017000020303030303030102040810204080016B
:1001800002040810200102040810200000000700EB
:10019000020100000304060000000000000000004F
:1001A000100B5B0F11241FBECFEFD8E0DEBFCDBF19
:1001B00011E0A0E0B1E0E2E2F1E202C005900D92B0
:1001C000A234B107D9F714E0A2E4B1E001C01D9256
:1001D000A736B107E1F711E0C4EAD1E004C02297E5
:1001E000FE010E948B10C03AD107C9F70E94B60CDD
:1001F0000C948F100C940000FB01DC018D91813474
:100200001CF08B350CF4805E619161341CF06B3511
:100210000CF4605E861B611189F3990B0895FB0154
:10022000DC018D91019080190110D9F3990B08958B
:10023000FB01DC014150504030F08D91019080195C
:1002400019F40020B9F7881B990B0895CF93DF9319
:10025000EB01DC0190E020E03EE28C91803269F01D
:10026000283029F4FE01E90FF11D30839F5FFE0164
:10027000E90FF11D8C9180839F5F2F5F11962B30CA
:1002800061F7C90FD11D1882DF91CF910895FC014C
:1002900085859685A785B08985839683A783B08752
:1002A000118612861386148608952F923F924F92DC
:1002B0005F926F927F928F929F92AF92BF92CF92F6
:1002C000DF92EF92FF920F931F93DF93CF93CDB7FF
:1002D000DEB7A5970FB6F894DEBF0FBECDBF2C01D9
:1002E000FC01748B638B442321F46624772443013F
:1002F0003AC0453008F007C1242F30E0A4E0220FB7
:10030000331FAA95E1F722553E4FCB0140E050E064
:1003100060E070E04E010894811C911C8401F0E1C2
:10032000EF2EF12C0E945506882309F4ECC0898138
:1003300090E08F779070892B09F0E5C0F4018485F7
:100340009585A685B78584369105A105B10508F484
:10035000DAC060847184828493846114710481049E
:10036000910409F4D0C0F20183899489B401A301F6
:100370002BE030E01E010894211C311C8101E5E2D4
:10038000EE2EF12C0E945506882309F4BCC0898109
:100390009A818050924009F0B6C0F10155815523F1
:1003A00009F4B1C083819481892B09F4ACC04281E6
:1003B000442309F4A8C0242F30E0C9010197822307
:1003C0009323892B09F09FC0F20155874083F101E7
:1003D000238534852115310519F040E050E005C032
:1003E000F101218D328D438D548DF20121833283B1
:1003F00043835483F101E680F780F201F68AE58AAF
:10040000F101A380B480CC24DD24A60CB71CC81C49
:10041000D91CF201A686B786C08AD18AF10165810E
:1004200070E080E090E00E9406106A0D7B1D8C1D3C
:100430009D1DF201678B708F818F928F35E0EE0CDE
:10044000FF1C3A95E1F72FEF31E0E20EF31EEF2C9F
:10045000FF24E69400E010E06E0D7F1D801F911FC9
:100460006187728783879487F101808591850097E2
:1004700021F09C0140E050E005C0F101258936895A
:100480004789508DF201238F348F458F568F818598
:100490009285A385B485681A790A8A0A9B0A620E36
:1004A000731E841E951EF101228130E040E050E071
:1004B000C401B3010E943810C901DA01F201858339
:1004C0009683A783B087853FFFE09F07F0E0AF07E3
:1004D000F0E0BF0710F48CE006C0855F9F4FA0409E
:1004E000B04028F480E1F201828B81E00DC0F1017F
:1004F00081A192A1A3A1B4A1F201878B908FA18FBA
:10050000B28F80E2F1CF80E0A5960FB6F894DEBFFF
:100510000FBECDBFCF91DF911F910F91FF90EF9054
:10052000DF90CF90BF90AF909F908F907F906F9013
:100530005F904F903F902F9008952F923F924F924F
:100540005F926F927F928F929F92AF92BF92CF9263
:10055000DF92EF92FF920F931F93CF93DF933C01B3
:100560001B01DC011996AD90BD90CD90DC901C97DD
:10057000F5011FEF412E11E0512E4A205B2060E073
:1005800072E0641975094A016417750708F44B0194
:10059000D3011196ED90FD900D911C91149794014B
:1005A00040E050E0D801C7018A199B09AC09BD0998
:1005B00082179307A407B50718F447018E1A9F0AFC
:1005C000F3018081B9E0D694C794B794A794BA9503
:1005D000D1F7C189D289823049F44F89588D698D0C
:1005E0007A8D4A0D5B1D6C1D7D1D2CC0E8806E2D23
:1005F00070E080E090E0D30115962D913D914D91F2
:100600005C91189722503040404050400E940610A4
:10061000AB01BC0189859A85AB85BC85480F591F04
:100620006A1F7B1FFF240894E108F1080027F7FCEC
:100630000095102FEA20FB200C211D214E0D5F1D7F
:10064000601F711FD3015196ED91FC9152978389E0
:1006500094899201810174010E945506882319F43E
:100660002FEF3FEF01C09401C901DF91CF911F919E
:100670000F91FF90EF90DF90CF90BF90AF909F9041
:100680008F907F906F905F904F903F902F90089544
:10069000EF92FF920F931F93DF93CF9300D000D080
:1006A00000D0CDB7DEB7FC018A019B014230510575
:1006B0006105710508F45AC085819681A781B085CE
:1006C0000296A11DB11D481759076A077B0708F05C
:1006D0004DC08289803231F5B7E0769567955795A0
:1006E0004795BA95D1F786859785A089B189480F36
:1006F000591F6A1F7B1F9801220F331F220F331FC0
:100700003170838994898E010D5F1F4FE4E0EE2ED6
:10071000F12C0E945506882349F12B813C814D81A3
:100720005E8128C0803111F5452F562F672F77271E
:1007300086859785A089B189480F591F6A1F7B1F3D
:100740009801220F331F3170838994898E010F5FC6
:100750001F4FE2E0EE2EF12C0E945506882331F067
:1007600089819A819C0140E050E004C020E030E0A3
:1007700040E050E0B901CA0126960FB6F894DEBFFA
:100780000FBECDBFCF91DF911F910F91FF90EF90E2
:100790000895AF92BF92CF92DF92EF92FF920F93A4
:1007A0001F93CF93DF936C01EE24FF24870110C0C9
:1007B000F60180815E01880FB82EE501C0E0CE0110
:1007C000AA2797FDA095BA2FE80EF91E0A1F1B1F36
:1007D000C6010E944803AB01BC01411551056105EA
:1007E000710531F7B701C801DF91CF911F910F91CA
:1007F000FF90EF90DF90CF90BF90AF9008950F9350
:100800001F93CF93DF93EC018B01FB018289803131
:10081000B1F482E088831D861E861F86188A85892A
:100820009689A0E0B0E025E0880F991FAA1FBB1FA2
:100830002A95D1F789839A83AB83BC8316C0803213
:1008400011F080E021C083E08883FB014789508D4F
:10085000618D728D4D875E876F87788BC8010E948E
:10086000C90369837A838B839C831A8B098B8D855B
:100870009E85AF85B8898D839E83AF83B88719869F
:100880001A861B861C8681E0DF91CF911F910F9104
:1008900008950F931F93CF93DF93EC018B01FA011F
:1008A000DB0152968C91803108F446C08081882308
:1008B00009F442C0853E09F43FC084899589A0E0CF
:1008C000B0E0BC0155274427828D938DA0E0B0E0B5
:1008D000480F591F6A1F7B1F4D875E876F87788B74
:1008E000838590E088719070009759F481E0888347
:1008F000848D958DA68DB78D89839A83AB83BC83B8
:100900000BC04097C9F484E08883C8010E94C903E2
:1009100069837A838B839C831A8B098B8D859E8553
:10092000AF85B8898D839E83AF83B88719861A8671
:100930001B861C8681E001C080E0DF91CF911F9172
:100940000F9108956F927F928F929F92AF92BF9274
:10095000CF92DF92EF92FF920F931F93CF93DF938B
:10096000EC0169847A848B849C84460D571D681D34
:10097000791D89819A81AB81BC8184179507A6076F
:10098000B70708F44BC0E989FA89E08049875A879C
:100990006B877C878881823009F442C0FF2400E0A5
:1009A00010E0E9E07695679557954795EA95D1F778
:1009B000CB01BA01A80197010E94381059016A01C0
:1009C00049E096948794779467944A95D1F7C40147
:1009D000B301A80197010E943810A21AB30AC40AF1
:1009E000D50A16C04D815E816F81788589899A8983
:1009F0000E9448036D837E838F8398870894A108A3
:100A0000B108C108D108611571058105910531F062
:100A1000A114B104C104D10429F702C080E001C0CF
:100A200081E0DF91CF911F910F91FF90EF90DF90C8
:100A3000CF90BF90AF909F908F907F906F900895D0
:100A4000AF92BF92CF92DF92EF92FF920F931F93DC
:100A5000CF93DF935C017B016A0100E010E004C0EA
:100A6000EC0EFD1E0C0F1D1F0C151D05D8F4A60164
:100A7000401B510BC501B7010E949D02EC011816E5
:100A800019061CF097FF0EC00AC0AC01662757FD7F
:100A90006095762FC5010E94A204882309F72FEFE5
:100AA0003FEF01C09801C901DF91CF911F910F91D4
:100AB000FF90EF90DF90CF90BF90AF900895EF92AE
:100AC000FF920F931F93CF93DF938C01EB01FC01F7
:100AD0008081823010F42FEF1CC07B0108C08B8511
:100AE00090E0887190700097A1F0409791F0C80154
:100AF000B70140E250E00E942005282F803231F4F7
:100B00008881882329F0853E91F3E9CF18160CF4EB
:100B100020E0822FDF91CF911F910F91FF90EF90F6
:100B200008958F929F92AF92BF92CF92DF92EF92F1
:100B3000FF920F931F93DF93CF93CDB7DEB7AD979F
:100B40000FB6F894DEBF0FBECDBF4C018B016A011A
:100B5000FB0185859685A785B08985839683A783C4
:100B6000B0871186128613861486FEE0EF2EF12CD4
:100B7000EC0EFD1E5E010894A11CB11C12C0C70141
:100B8000B5010E942601C501B6010E94FC00892B17
:100B900041F4F80161897289C401A7010E944904E6
:100BA00007C0C801B7010E945F05181644F380E032
:100BB000AD960FB6F894DEBF0FBECDBFCF91DF91DB
:100BC0001F910F91FF90EF90DF90CF90BF90AF906B
:100BD0009F908F900895CF93DF93EC018E818823AF
:100BE000D9F08FEF8EBD2F8138854FEF04C00DB443
:100BF00007FEFDCF4EBD2F5F3F4FC90101978150CA
:100C00009240A8F338872F830DB407FEFDCF8AE00A
:100C100061E00E94890D1E82DF91CF910895CF92ED
:100C2000DF92EF92FF920F931F93162F69017A01C3
:100C30000E94EB058AE060E00E94890D8FEF8EBD77
:100C40000DB407FEFDCF8EB510641EBD0DB407FEBA
:100C5000FDCF28E130E0D701C601022E04C0B695D1
:100C6000A795979587950A94D2F78EBD0DB407FE88
:100C7000FDCF285030408FEF283F380761F70EBD79
:100C80000DB407FEFDCF90E02FEF2EBD0DB407FE93
:100C9000FDCF8EB58F3F11F49150B9F71F910F9191
:100CA000FF90EF90DF90CF9008956F927F928F9298
:100CB0009F92AF92BF92CF92DF92EF92FF920F93EB
:100CC0001F93CF93DF93EC015A016B014901380167
:100CD000E114F10409F487C0C701820F931F81500A
:100CE000924008F040C08E81882371F088819981FC
:100CF000AA81BB81481759076A077B0729F48F81AE
:100D0000988588169906A8F5A882B982CA82DB82DE
:100D10008B85833039F089E0AA0CBB1CCC1CDD1C10
:100D20008A95D1F7CE0161E1A60195010FEF0E94EE
:100D30000F06882319F083E08C8315C080E090E0D3
:100D40003FEF3EBD0DB407FEFDCF2EB52F3F31F472
:100D500047E28031940721F00196F3CF2E3F29F02E
:100D600080E18C832D8380E03FC018861F8281E064
:100D70008E838FEF8EBD8F8198852FEF05C00DB4C8
:100D800007FEFDCF2EBD019688159905C0F3988703
:100D90008F83D701119720E030E09FEF0BC00DB497
:100DA00007FEFDCF8EB5F301E20FF31F80839EBDDA
:100DB0002F5F3F4F2A173B0790F30DB407FEFDCF7F
:100DC0008EB5A60DB71D8C932F8138852E0D3F1D36
:100DD00038872F838985882319F02050324018F0F6
:100DE000CE010E94EB0581E0DF91CF911F910F9121
:100DF000FF90EF90DF90CF90BF90AF909F908F903B
:100E00007F906F900895BF92CF92DF92EF92FF9202
:100E10000F931F93DF93CF9300D000D0CDB7DEB7F1
:100E20007C01B62E8AE061E00E94690D8AE061E0F3
:100E30000E94890D8BE061E00E94690D8DE061E008
:100E40000E94690D83E58CBD80E09FEF9EBD0DB4CF
:100E500007FEFDCF8F5F8A30C9F760E00E94890DE1
:100E600080E090E02FEF2EBD0DB407FEFDCF3EB524
:100E7000019632E081309307B1F7C70160E020E0CE
:100E800030E040E050E005E90E940F06182F80E0B6
:100E900090E02FEF09C0019711F481E062C02EBDF0
:100EA0000DB407FEFDCF1EB51130A9F7C70168E0EC
:100EB0002AEA31E040E050E007E80E940F06982F50
:100EC000813071F480E09FEF9EBD0DB407FEFDCF31
:100ED0002EB58F5F8430C1F782E0F701838704C0AD
:100EE00082FF05C0F7011387CC24DD2406C082E011
:100EF000F7018483958380E05DC0C70167E320E04C
:100F000030E040E050E00FEF0E940F06F7018385CC
:100F1000823029F020E030E040E050E004C020E0E2
:100F200030E040E050E4C70169E20FEF0E940F0695
:100F3000882359F0F8EECF16F3E0DF0611F486E0CF
:100F400010C00894C11CD11CD8CFC7016AE320E0AF
:100F500030E040E050E00FEF0E940F06882321F0C0
:100F600085E0F7018483C7CFFE0131969FEF9E0194
:100F70002B5F3F4F9EBD0DB407FEFDCF8EB5819315
:100F8000E217F307B9F7F7018385823031F48981DD
:100F9000807C803C11F483E083878CB58C7F8CBD92
:100FA000BB2019F48DB581608DBD8AE061E00E949F
:100FB000890D81E00F900F900F900F90CF91DF91EE
:100FC0001F910F91FF90EF90DF90CF90BF90089509
:100FD0001F920F920FB60F9211242F933F934F93AE
:100FE0008F939F93AF93BF93EF93FF93E091420151
:100FF000F0914301309709F4A8C020914803309143
:10100000490380914A0390914B032817390709F04F
:1010100047C080914D038823B9F18091440390919A
:10102000450324E432E041E08434940749F43093EA
:1010300045032093440390934703809346030AC0DB
:1010400084E491E0909345038093440330934703F5
:101050002093460380914403909145039093490364
:101060008093480380509F4F90934B0380934A0393
:1010700010924D0380914C03882391F480916F006E
:10108000846080936F000CC083859485A585B685A8
:101090000196A11DB11D83879487A587B68755C08A
:1010A0005A985C985B9A5B985C9A5B9A5B985B9A9F
:1010B0005B985B9A5B988581803119F5E0914803D4
:1010C000F09149038181805890E087FF02C05C9ACB
:1010D00001C05C985B9A5B989F5F983011F0880F15
:1010E000F4CF908180E097FF02C05C9A01C05C98C9
:1010F0005B9A5B988F5F843011F0990FF4CF329632
:101100001DC08830F9F4E0914803F09149039081C3
:1011100080E097FF02C05C9A01C05C985B9A5B9884
:101120008F5F883011F0990FF4CF5B9A5B985B9AD0
:101130005B985B9A5B985B9A5B983196F093490356
:10114000E09348035A9A5D985D9AFF91EF91BF91A1
:10115000AF919F918F914F913F912F910F900FBE23
:101160000F901F9018950895EFE6F0E080818D7F35
:101170008083E0914201F091430112861092430175
:101180001092420108958F929F92AF92BF92CF9298
:10119000DF92EF92FF920F931F93DF93CF9300D0D4
:1011A00000D00F92CDB7DEB77C015B01942E852E67
:1011B000FC0186819781A085B1850097A105B105C5
:1011C00099F587010A5F1F4F6E010894C11CD11C5D
:1011D000F70187859089B60144E050E00E94200520
:1011E000049709F055C01D82F70187859089B801E1
:1011F00044E050E00E942005049709F049C0C60170
:1012000060E071E044E050E00E941801009761F056
:10121000F7014681578160857185878590890E9495
:10122000A2048823A9F634C0892D982D9C01890138
:10123000F2E021303F0710F000E012E0F7012681D4
:10124000378140855185C801A0E0B0E028173907F3
:101250004A075B0708F48901F70187859089B50182
:10126000A8010E942005BC018017910799F49801FC
:1012700040E050E0F70186819781A085B185821B0F
:10128000930BA40BB50B86839783A087B18702C00D
:1012900060E070E0CB010F900F900F900F900F90D7
:1012A000CF91DF911F910F91FF90EF90DF90CF9042
:1012B000BF90AF909F908F900895BF92CF92DF9292
:1012C000EF92FF920F931F93CF93DF93EC01C980AE
:1012D000DA80EB80FC80B8809093430180934201D8
:1012E00004E411E01093490300934803B80142E07D
:1012F00050E00E94C308181619060CF05AC08091DD
:10130000480390914903029690934B0380934A03BC
:10131000EF85F889818540E051E0481B51098091B3
:10132000420190914301B8016E5F7F4F0E94C30854
:101330009C0118161906ECF580914A0390914B0315
:10134000820F931F90934B0380934A038091420135
:101350009091430164E472E040E051E00E94C308D0
:1013600081E080934D038A871092800089E080930A
:1013700081006B2D70E080E090E0A70196010E9453
:1013800006109B01AC0160E074E284EF90E00E94E3
:101390003810309389002093880081E090E090938A
:1013A0008B0080938A0080916F00826080936F0031
:1013B0007894DF91CF911F910F91FF90EF90DF9084
:1013C000CF90BF9008951F920F920FB60F921124E5
:1013D0002F933F934F935F936F937F938F939F933D
:1013E000AF93BF93EF93FF9380916F008B7F8093B8
:1013F0006F0080914D03882339F581E080934C0381
:1014000078946091460370914703809142019091D6
:10141000430140E051E00E94C308892B71F48091A0
:101420006F008D7F80936F00E0914201F091430146
:1014300012861092430110924201F89410924C03CC
:1014400081E080934D037894FF91EF91BF91AF912C
:101450009F918F917F916F915F914F913F912F91CC
:101460000F900FBE0F901F901895AF92BF92CF9222
:10147000DF92EF92FF920F931F93DF93CF93CDB73D
:10148000DEB762970FB6F894DEBF0FBECDBF7C010A
:101490005B016E010894C11CD11CCB01B6014CE06C
:1014A00050E00E9420050C9709F06EC0C60165E06F
:1014B00071E044E050E00E941801009709F064C018
:1014C000CE0109966AE071E044E050E00E94180104
:1014D000009709F059C06AC0C6016FE071E044E0AE
:1014E00050E00E941801009709F04EC068C0023118
:1014F000110519F087EC90E045C0C501B601A801BF
:101500000E9420058017910709F03EC089819A81C9
:10151000019739F40231110539F489899A89892BA7
:1015200019F08DEA90E02EC03B81F7013083333013
:1015300018F08CE990E026C08D819E81AF81B8853E
:10154000F70181839283A383B4832F85258321317F
:1015500018F08EE790E016C08332F6E59F07F0E0C2
:10156000AF07F0E0BF0718F0293050F407C08158EA
:101570009E43A040B04050F1293040F1323030F16C
:1015800088E690E00E94090B80E062960FB6F8941E
:10159000DEBF0FBECDBFCF91DF911F910F91FF90A6
:1015A000EF90DF90CF90BF90AF900895C501B60146
:1015B00048E050E00E942005089731F78DCF0D815B
:1015C0001E810031110509F092CF97CFF7011682E5
:1015D000178210861186B08AA78613861486158610
:1015E0001686128681E0D1CF1F93CF93DF93EC0153
:1015F00010E005C084E594E00E94CC0F1F5FFE015F
:10160000E10FF11D64916623A9F7DF91CF911F913E
:1016100008950E94F40A84E594E00E94E40F08957E
:101620001092690310926B0310926E031092700374
:1016300010928303109290031092A30386EB93E021
:101640000E94B3080895CF93DF93EC018091C0030B
:10165000882321F086EB93E00E94B40883EA93E0AC
:1016600060E973E0AE010E949105882351F481EF97
:1016700090E00E94F40A84E594E0BE010E94FB0F12
:1016800011C086EB93E063EA73E00E94350A882379
:1016900029F481EE90E00E94090B04C086EB93E0F0
:1016A0000E945D09DF91CF9108950E94230B8091E4
:1016B000C003882361F084E594E064E171E00E9456
:1016C000DC0F84E594E06EE473E00E94FB0F8091F0
:1016D000C0038823E1F70895EF92FF921F93CF9301
:1016E000DF937C01EC0110E08881803261F01830DA
:1016F00029F484E594E06EE20E94D40F84E594E03E
:1017000068810E94CC0F1F5F21961B3069F7F7019B
:1017100083858871803129F484E594E06FE20E942A
:10172000D40FDF91CF911F91FF90EF9008950F9309
:101730001F93DF93CF93CDB7DEB7A0970FB6F89482
:10174000DEBF0FBECDBF80E993E00E9447018E014E
:101750000F5F1F4F07C0C8010E946C0B84E594E027
:101760000E94E40F80E993E0B8010E945F0518161B
:1017700094F3A0960FB6F894DEBF0FBECDBFCF9105
:10178000DF911F910F910895EF92FF920F931F9396
:1017900084E594E00E940C0F882309F487C062E37B
:1017A00070E080E090E00E94050D9EE2E92E87E562
:1017B000F82E01E416E543C084E594E00E94200F72
:1017C000282F80936203803271F08091630390919F
:1017D0006403FC01E25BFC4F208301969093640359
:1017E000809363032CC08EE493E06EE171E00E946D
:1017F0000F01009751F40E94970BEEE4F3E0119271
:1018000083E0E236F807D9F716C0E0916303F09160
:101810006403E25BFC4FE082F18202831383148253
:101820008EE493E00E94550BEEE4F3E0119283E026
:10183000E236F807D9F7109264031092630384E547
:1018400094E00E940C0F882309F0B6CF8EE493E059
:101850006EE171E00E940F01009751F40E94970B16
:10186000EEE4F3E0119283E0E236F807D9F71AC00C
:10187000E0916303F0916403E25BFC4F8EE28083AE
:1018800087E5818381E4828386E5838314828EE405
:1018900093E00E94550BEEE4F3E0119283E0E23610
:1018A000F807D9F710926403109263031F910F9108
:1018B000FF90EF90089584E594E040E855E260E001
:1018C00070E00E94130E84E594E061E271E00E94F2
:1018D000FB0F82E061E00E94690D83E061E00E94FD
:1018E000690D84E061E00E94690D85E061E00E947D
:1018F000690D89E061E00E94690D85E693E060E092
:101900000E940307882319F482E391E01FC081E756
:1019100093E065E673E041E00E945501882361F49D
:1019200081E793E065E673E040E00E94550188237B
:1019300019F484E291E00AC080E993E061E773E082
:101940000E94FF03882329F482E191E00E94090BA1
:10195000089585E091E00E94090B0E94970B84E5B1
:1019600094E06CE271E00E94FB0F08950E942F0D3D
:101970000E945B0C0E94C40BFDCF1F920F920FB60A
:101980000F9211242F933F938F939F93AF93BF9305
:101990008091CB039091CC03A091CD03B091CE0365
:1019A0003091CF030196A11DB11D232F2D5F2D373F
:1019B00020F02D570196A11DB11D2093CF038093D8
:1019C000CB039093CC03A093CD03B093CE0380912F
:1019D000C7039091C803A091C903B091CA030196AF
:1019E000A11DB11D8093C7039093C803A093C903A1
:1019F000B093CA03BF91AF919F918F913F912F9167
:101A00000F900FBE0F901F901895EF92FF920F93BB
:101A10001F937B018C018FB7F8944091CB035091B9
:101A2000CC036091CD037091CE038FBF2FB7F89494
:101A30008091CB039091CC03A091CD03B091CE03C4
:101A40002FBF841B950BA60BB70BE816F9060A07E8
:101A50001B0760F71F910F91FF90EF900895789406
:101A600084B5826084BD84B5816084BD85B58260A3
:101A700085BD85B5816085BDEEE6F0E08081816041
:101A80008083E1E8F0E080818260808380818160F2
:101A90008083E0E8F0E0808181608083E1EBF0E02A
:101AA000808184608083E0EBF0E0808181608083CE
:101AB000EAE7F0E0808184608083808182608083B7
:101AC0008081816080838081806880831092C100E2
:101AD0000895282F30E0C90189589E4FFC01949148
:101AE0002D593E4FF9018491882391F0E82FF0E0C1
:101AF000EE0FFF1FEB5BFE4FA591B491662329F417
:101B00008C91909589238C9308958C91892B8C933B
:101B10000895482F50E0CA0185579E4FFC0124913B
:101B2000CA0189589E4FFC0194914D595E4FFA01AC
:101B300034913323D1F1222331F1233021F48091E8
:101B400080008F7705C0243031F4809180008F7D34
:101B50008093800018C0213019F484B58F7704C0B9
:101B6000223021F484B58F7D84BD0DC0263021F450
:101B70008091B0008F7705C0273029F48091B000A4
:101B80008F7D8093B000E32FF0E0EE0FFF1FE15B4D
:101B9000FE4FA591B491662329F48C9190958923E9
:101BA0008C9308958C91892B8C9308951F920F929A
:101BB0000FB60F9211242F933F934F935F936F9320
:101BC0007F938F939F93AF93BF93EF93FF93409136
:101BD000C600E0915004F0915104CF01019660E8F5
:101BE00070E00E9425109C01809152049091530452
:101BF0002817390739F0E053FC4F408330935104E4
:101C000020935004FF91EF91BF91AF919F918F91DD
:101C10007F916F915F914F913F912F910F900FBEE8
:101C20000F901F9018955F926F927F928F929F9264
:101C3000AF92BF92CF92DF92EF92FF920F931F93DA
:101C4000CF93DF93EC013A014B01413482E4580712
:101C50008FE0680780E078070CF07FC060E874E8E8
:101C60008EE190E0A40193010E945A10215030406F
:101C700040405040CA01B90122E030E040E050E06D
:101C80000E945A1059016A01A601950120953095CC
:101C90004095509594E0220F331F441F551F9A958D
:101CA000D1F760E074E284EF90E00E945A10CA011C
:101CB000B9012FEF30E040E050E00E940610A4018F
:101CC00093010E945A10C90181509F4F181619069E
:101CD0001CF4522E5A9403C055245394521A60E0B7
:101CE00079E08DE390E0A40193010E945A10215005
:101CF000304040405040CA01B90122E030E040E0AD
:101D000050E00E945A10209530954095509583E000
:101D1000220F331F441F551F8A95D1F760E074E2EC
:101D200084EF90E00E945A10CA01B9012FEF30E011
:101D300040E050E00E940610A40193010E945A1056
:101D4000C90181509F4F181619061CF4822F81502B
:101D500002C081E0821B851500F5E885F98581E0E8
:101D600090E00A8802C0880F991F0A94E2F78083E6
:101D700060E079E08DE390E0A40193010E945A10A5
:101D80002150304040405040CA01B90122E030E0CB
:101D900040E050E00E945A1004C0E885F9851082A6
:101DA0009501EC81FD813083EE81FF812083EA85FE
:101DB000FB85208141E050E0CA010E8402C0880FFB
:101DC000991F0A94E2F7282B2083EA85FB8520815E
:101DD000CA010F8402C0880F991F0A94E2F7282BCA
:101DE0002083EA85FB858081088802C0440F551F47
:101DF0000A94E2F7842B8083DF91CF911F910F919A
:101E0000FF90EF90DF90CF90BF90AF909F908F901A
:101E10007F906F905F900895DC011296ED91FC9198
:101E20001397E058FF4F8191919180589F4F2081E7
:101E30003181821B930B60E870E00E9425100895A9
:101E4000CF93DF93DC011296ED91FC911397EF0194
:101E5000CE57DF4F48815981E058FF4F80819181F3
:101E6000E058F0408417950719F42FEF3FEF0CC0AE
:101E7000E40FF51F2081CA01019660E870E00E941E
:101E800025109983888330E0C901DF91CF910895AF
:101E9000FC01A085B18521898C9190E0022E02C0C1
:101EA000959587950A94E2F780FFF6CF0484F5852F
:101EB000E02D608308958BE391E090935504809327
:101EC000540480ED93E0909357048093560485EC7E
:101ED00090E0909359048093580484EC90E09093A0
:101EE0005B0480935A0480EC90E090935D048093AF
:101EF0005C0481EC90E090935F0480935E0486EC38
:101F000090E0909361048093600484E08093620485
:101F100083E08093630487E08093640485E080938A
:101F2000650481E08093660408950F931F93CF9317
:101F3000DF938C01EB0109C02196D801ED91FC9152
:101F40000190F081E02DC801099568816623A1F711
:101F5000DF91CF911F910F910895EF92FF920F9310
:101F60001F93CF93DF938C017B01EA010CC0D70153
:101F70006D917D01D801ED91FC910190F081E02DF2
:101F8000C80109952197209791F7DF91CF911F9173
:101F90000F91FF90EF900895DC01ED91FC9101907D
:101FA000F081E02D09950895DC01ED91FC910190FF
:101FB000F081E02D09950895DC01ED91FC910280FE
:101FC000F381E02D099508950F931F938C01DC0197
:101FD000ED91FC910190F081E02D6DE00995D80123
:101FE000ED91FC910190F081E02DC8016AE0099526
:101FF0001F910F9108950F931F938C010E94DC0F86
:10200000C8010E94E40F1F910F910895629FD001B3
:10201000739FF001829FE00DF11D649FE00DF11DA3
:10202000929FF00D839FF00D749FF00D659FF00D52
:102030009927729FB00DE11DF91F639FB00DE11D3F
:10204000F91FBD01CF011124089597FB092E072622
:102050000AD077FD04D049D006D000201AF470953C
:1020600061957F4F0895F6F7909581959F4F08955C
:10207000A1E21A2EAA1BBB1BFD010DC0AA1FBB1F8C
:10208000EE1FFF1FA217B307E407F50720F0A21BFE
:10209000B30BE40BF50B661F771F881F991F1A946B
:1020A00069F760957095809590959B01AC01BD0195
:1020B000CF01089597FB092E05260ED057FD04D0B9
:1020C000D7DF0AD0001C38F4509540953095219503
:1020D0003F4F4F4F5F4F0895F6F79095809570955D
:1020E00061957F4F8F4F9F4F0895AA1BBB1B51E1F6
:1020F00007C0AA1FBB1FA617B70710F0A61BB70B78
:10210000881F991F5A95A9F780959095BC01CD011C
:102110000895EE0FFF1F0590F491E02D0994F894B7
:02212000FFCFEF
:102122006461746100524946460057415645006653
:102132006D742000706C6179696E673A20006C736F
:102142000057617665205465737421005465737479
:1021520020446F6E652E0000000000480F950FAD01
:022162000F006C
:00000001FF
