:100000000D94FA000D9418010D9418010D94180127
:100010000D9418010D9418010D9418010D941801F8
:100020000D9418010D9418010D9418010D941801E8
:100030000D9418010D9418010D9418010D941801D8
:100040000D9418010D9418010D9418010D941801C8
:100050000D9418010D9418010D9418010D941801B8
:100060000D9418010D9418010D9418010D941801A8
:100070000D9418010D9418010D9418010D94180198
:100080000D9418010D9418010D9418010D94180188
:100090000D9418010D9418010D9418010D94180178
:1000A0000D9418010D9418010D9418010D94180168
:1000B0000D9418010D9418010D9418010D94180158
:1000C0000D9418010D9418010D9418010D94180148
:1000D0000D9418010D9418010D9418010D94180138
:1000E0000D9418010D9418010D9418010D94180128
:1000F0000D9418010D9418010D9418010D94180118
:100100000D9418010D9418010D9418010D94180107
:100110000D9418010D9418010D9418010D941801F7
:100120000D9418010D9418010D9418010D941801E7
:100130000D9418010D9418010D9418010D941801D7
:100140000D9418010D9418010D9418010D941801C7
:100150000D9418010D9418010D9418010D941801B7
:100160000D9418010D9418010D9418010D941801A7
:100170000D9418010D9418010D9418010D94180197
:100180000D9418010D9418010D9418010D94180187
:100190000D9418010D9418010D9418010D94180177
:1001A0000D9418010D9418010D9418010D94180167
:1001B0000D9418010D9418010D9418010D94180157
:1001C0000D9418010D9418010D9418010D94180147
:1001D0000D9418010D9418010D9418010D94180137
:1001E0000D9418010D9418010D9418010D94180127
:1001F0000D94180111241FBECFEFDFE3DEBFCDBF8A
:1002000001E00CBF18BE19BE1ABE1BBE10E2A0E072
:10021000B0E2EAECFBE002E00BBF02C007900D92F7
:10022000A030B107D9F71BBE0F9471030D94E305FD
:100230000D940000982F8091CF0187FDFCCF809115
:10024000CF0181FF12C086E3E0ECF1E08287EF93FB
:10025000FF930F932F93EBECF1E008ED21E004BF47
:1002600020832F910F91FF91EF91E0ECF1E083E378
:100270008287262F30E02F713070892F90E055E073
:10028000880F991F5A95E1F7282B392B2093C0012D
:10029000832F8F7181831282448385E38287EF935A
:1002A000FF930F932F93EBECF1E008ED21E004BFF7
:1002B00020832F910F91FF91EF910895982FE0ECFB
:1002C000F1E08091CF0187FDFACF262F30E02F712A
:1002D0003070892F90E065E0880F991F6A95E1F7EB
:1002E000282B392B2093C001832F8F718183128299
:1002F00086E08287EF93FF930F932F93EBECF1E06F
:1003000008ED21E004BF20832F910F91FF91EF9121
:100310008091C40108958091CF0187FDFCCF08959D
:100320008091CF0187FDFCCF8091CF0181FF12C06A
:1003300086E3E0ECF1E08287EF93FF930F932F9336
:10034000EBECF1E008ED21E004BF20832F910F9149
:10035000FF91EF910895982FE0ECF1E08091CF01AB
:1003600087FDFACF83E382879093C00111821282C6
:1003700064830895DC01E0ECF1E08091CF0187FD1A
:10038000FACF83E382871182128290E09093C001BA
:100390008D9184839F5F9032C9F70895982FE0EC88
:1003A000F1E08091CF0187FDFACF892F90E075E0D1
:1003B000880F991F7A95E1F78093C001892F8F717B
:1003C0008183128285E38287EF93FF930F932F93AC
:1003D000EBECF1E008ED21E004BF20832F910F91B9
:1003E000FF91EF910895982FE0ECF1E08091CF011B
:1003F00087FDFACF892F90E0A5E0880F991FAA9575
:10040000E1F78093C001892F8F718183128282E38B
:100410008287EF93FF930F932F93EBECF1E008EDBE
:1004200021E004BF20832F910F91FF91EF91089558
:10043000982FE0ECF1E08091CF0187FDFACF892F72
:1004400090E0B5E0880F991FBA95E1F78093C0015D
:10045000892F8F718183128284E38287EF93FF93C8
:100460000F932F93EBECF1E008ED21E004BF208324
:100470002F910F91FF91EF9108958091CF0187FD0A
:10048000FCCF80E3E0ECF1E08287EF93FF930F93E2
:100490002F93EBECF1E008ED21E004BF20832F91D6
:1004A0000F91FF91EF9108950F931F93CF93DF93D7
:1004B0008C01EA01653441F58091CC01877FE0EC45
:1004C000F1E084870F94900188819981AA81BB8192
:1004D000682F6F7145E0B695A795979587954A95D2
:1004E000D1F70F945E010F943A0588819981AA8112
:1004F000BB810196A11DB11D88839983AA83BB830B
:100500000150104009F738C06634B1F588819981EF
:10051000AA81BB81880F991FAA1FBB1F888399835B
:10052000AA83BB83688179818A819B810F944E0560
:100530000F943A05688179818A819B816F5F7F4F33
:100540008F4F9F4F0F944E050F943A0588819981E4
:10055000AA81BB810296A11DB11D88839983AA83BC
:10056000BB8302501040F1F6B695A79597958795F5
:1005700088839983AA83BB83DF91CF911F910F91C9
:1005800008956F927F928F929F92AF92BF92CF9277
:10059000DF92EF92FF920F931F93DF93CF93CDB72C
:1005A000DEB7C050D240CDBFDEBF3C014A0165344A
:1005B000E9F50F9490018091CC01877FE0ECF1E0A8
:1005C00084877E010894E11CF11C67015701A60C89
:1005D000B71C05C00F944705F60181936F01CA143B
:1005E000DB04C1F71FC0F40180819181A281B38136
:1005F000682F6F7175E0B695A795979587957A9551
:10060000D1F7F70141917F010F941A01F401808124
:100610009181A281B3810196A11DB11D8083918337
:10062000A283B383EC14FD04F1F647C0663411F0E5
:100630008FE344C0FA01C080D180E280F380CC0C0B
:10064000DD1CEE1CFF1CC082D182E282F3820F947B
:100650004705082F10E00F944705B82EAA240A2951
:100660001B29F40180819181B8010F948305F40165
:1006700080819181A281B3810296A11DB11D8083E9
:100680009183A283B3838EEF9FEF680E791E61146E
:100690007104E9F6C701B6010F9499050F94C605D8
:1006A000F40180819181A281B381B695A795979538
:1006B000879580839183A283B3838DE0C050DE4F02
:1006C000CDBFDEBFCF91DF911F910F91FF90EF90D3
:1006D000DF90CF90BF90AF909F908F907F906F9062
:1006E00008952F923F924F925F926F927F928F92D6
:1006F0009F92AF92BF92CF92DF92EF92FF920F93B1
:100700001F93DF93CF93CDB7DEB72597CDBFDEBF65
:100710001A821B821C821D8219820F949001809183
:10072000CC01877FE0ECF1E084878091A4068260B1
:10073000E0EAF6E084830F942B058091A80681FD02
:100740006AC1CC24DD2482E0282E312C2C0E3D1EE3
:100750000F944705982F8983813611F489E558C194
:10076000813479F40F944705182F0F944705B12E63
:10077000AA2490E08A299B29AA2797FDA095BA2F41
:100780009CC0853649F51A821B821C821D8214C0CA
:100790000F94C6056A817B818C819D810F947D05B4
:1007A0008A819B81AC81BD8180509E4FAF4FBF4FEE
:1007B0008A839B83AC83BD838A819B81AC81BD810D
:1007C00080509040A240B04018F3CE0101960F94A3
:1007D000BA010F943D02EFC0823629F489E50F94E7
:1007E0003A0582E0DDC08234A1F40F944705182F4A
:1007F0000F944705912E8824C82EDD24C828D928B7
:100800000F944705682F8983C601A1010F94C10287
:10081000FFC08736A1F40F944705182F0F944705A2
:10082000712E6624C82EDD24C628D7280F944705CC
:10083000682F8983C601A1010F94540289CF8235A4
:10084000E9F40F94C6056A817B818C819D81660FD6
:10085000771F881F991F6F5F7F4F8F4F9F4F0F9498
:100860004E050F943A056A817B818C819D81660FCC
:10087000771F881F991F0F944E0564C0833629F493
:100880000F944705C82EDD2496C08334D9F40F9405
:100890004705582E4424C428D5280F94C6058A81BC
:1008A0009B81880F991FB6010F9483058A819B81D4
:1008B000AC81BD810196A11DB11D8A839B83AC8350
:1008C000BD8379C08D36B9F48A819B81AC81BD81AD
:1008D00080509040A140B04008F099C00F94C605E8
:1008E0006A817B818C819D81660F771F881F991F8C
:1008F0000F94990560C08434A1F4EA80FB800C81D8
:100900001D810F944705482F6E2D6F71F5E01695E8
:100910000795F794E794FA95D1F78E2D0F941A0165
:1009200013C08436E9F48A819B81AC81BD81682F34
:100930006F71E5E0B695A79597958795EA95D1F7FC
:100940000F945E010F943A058A819B81AC81BD8131
:100950000196A11DB11D8A839B83AC83BD83F8CE14
:100960008C3639F40F94C6050F9447050F946A0529
:1009700022C0803501F18C34F1F0853451F40F94AC
:10098000C6058DE00F943A051CBEE0E0F0E0199535
:10099000DFCE803711F483E53BC0843729F48AEF3A
:1009A0000F943A0580E034C08857823010F09435B7
:1009B00021F40F9447058DE02BC09335A1F481E419
:1009C0000F943A0586E50F943A0582E50F943A05AF
:1009D00082E40F943A058FE40F943A058FE40F9464
:1009E0003A0584E515C0963529F481E30F943A055C
:1009F00086E30EC0933741F48CE40F943A0587E9FF
:100A00000F943A058EE104C09B3109F4A1CE8FE327
:100A10000F943A059DCE0F94C6050F94BF051CBEDA
:100A2000E0E0F0E0199580E090E02596CDBFDEBFD4
:100A3000CF91DF911F910F91FF90EF90DF90CF90BA
:100A4000BF90AF909F908F907F906F905F904F90EE
:100A50003F902F900895E0EAF6E0818180688183DD
:100A6000E0EAF9E093E0968380EB878388E1848372
:100A7000958308958093B00B8091B10B86FFFCCFD6
:100A80008091B10B8064E0EBFBE08183089580915D
:100A9000B10B87FFFCCF8091B00B08953BB78BBFA4
:100AA000FB0186913BBF08953BB78BBFFB0187914C
:100AB00096913BBF089542E081C041E07FC08093A2
:100AC000C00188278093C1018093C20147E066D0AE
:100AD000CB0108958093C40148E060C08091D001AB
:100AE00008953BB748E10D94F8053BB74AE10D94F2
:100AF000F8053BB740E20D94F8053BB78BBFCB013F
:100B000042E20D94F8053BB70B0143E20D94F80562
:100B10003BB76BBFFA0119BEDC0140E04093CA014C
:100B200050E0879197918D939D935A95D1F73BBF54
:100B300008953BB78BBFCB0144E20D94F8053BB75A
:100B40008BBFCB0145E20D94F8053BB746E20D940F
:100B5000F8053BB78BBFCB014AE20D94F8053BB7D4
:100B60008BBFCB014CE20D94F8053BB78BBFCB019B
:100B70004DE20D94F80548E311C049E30FC028ED9C
:100B80002093340021E02093CC0108952091CF01DF
:100B900027FDFCCF22272093CA0108954093CA0164
:100BA00028ED31E0209334003093CB016091C401F3
:100BB0007091C5018091C60199270895FC01409369
:0A0BC000CA0184910895F894FFCF54
:100BCA00EE27FF2719BEDC0143E24093CA0150E039
:100BDA002DE90D901D9020933400E89532965A9590
:100BEA00C1F711240895FC014093CA012DE920930D
:0A0BFA003400E89511243BBF089574
:0400000320000000D9
:00000001FF
