:100000000C9435000C945D000C945D000C945D0024
:100010000C945D000C945D000C945D000C945D00EC
:100020000C945D000C945D000C945D000C945D00DC
:100030000C945D000C945D000C945D000C945D00CC
:100040000C9463040C945D000C945D000C945D00B2
:100050000C945D000C945D000C945D000C945D00AC
:100060000C9477020C945D008E0111241FBECFEF1B
:10007000D8E0DEBFCDBF11E0A0E0B1E0EEE2FAE0F3
:1000800002C005900D92A431B107D9F711E0A4E1A7
:10009000B1E001C01D92AE33B107E1F710E0CAE64E
:1000A000D0E004C02297FE010E941105C836D10796
:1000B000C9F70E945C040C9415050C9400000F9382
:1000C0001F93CF93DF93689F8001699F100D789FE6
:1000D000100D1124C8010E947B00EC01009729F04B
:1000E00060E070E0A8010E947D01CE01DF91CF9118
:1000F0001F910F910895CF93DF93BC01823091053A
:1001000010F462E070E0A0913C01B0913D01ED017E
:10011000E0E0F0E040E050E021C08881998186175E
:10012000970769F48A819B81309719F093838283C2
:1001300004C090933D0180933C01FE0134C06817D8
:10014000790738F44115510519F08417950708F41B
:10015000AC01FE018A819B819C01E9012097E9F6AF
:1001600041155105A9F1CA01861B970B049708F4A4
:10017000BA01E0E0F0E02AC08D919C9111978417BC
:100180009507F9F46417750781F412968D919C9187
:100190001397309719F09383828304C090933D01A5
:1001A00080933C01FD0132964CC0CA01861B970B1F
:1001B000FD01E80FF91F6193719302978D939C9352
:1001C00040C0FD01828193819C01D9011097A1F665
:1001D00080913A0190913B01892B41F4809110016B
:1001E0009091110190933B0180933A01409112014B
:1001F000509113014115510541F44DB75EB78091FF
:100200000E0190910F01481B590B20913A0130913A
:100210003B01CA01821B930B8617970780F0AB0145
:100220004E5F5F4F8417950750F0420F531F509356
:100230003B0140933A01F9016193719302C0E0E000
:10024000F0E0CF01DF91CF910895CF93DF93009736
:1002500009F450C0EC0122971B821A82A0913C0144
:10026000B0913D01109709F140E050E0AC17BD0797
:1002700008F1BB83AA83FE0121913191E20FF31FA4
:10028000AE17BF0779F48D919C911197280F391FF4
:100290002E5F3F4F3983288312968D919C9113973F
:1002A0009B838A834115510571F4D0933D01C0931E
:1002B0003C0120C012968D919C911397AD0100973F
:1002C00011F0DC01D3CFFA01D383C28321913191A4
:1002D000E20FF31FCE17DF0769F488819981280F99
:1002E000391F2E5F3F4FFA01318320838A819B8122
:1002F00093838283DF91CF910895DC0101C06D93D8
:1003000041505040E0F7089581E080931D016093D3
:10031000180110921B0110921C0108950895DF939B
:10032000CF930F92CDB7DEB7698380911D018823EB
:10033000A9F080911C018032B0F480911B01E09102
:100340001901F0911A01E80FF11D608380911B01E2
:100350008F5F80931B0180931C0105C0CE01019625
:1003600061E00E945A020F90CF91DF910895EF92C1
:10037000FF920F931F93CF93DF937C01042F809103
:100380001D01882359F0EB0110E005C0C7016991F8
:100390000E948F011F5F1017C8F304C0CB01642FA8
:1003A0000E945A02DF91CF911F910F91FF90EF9021
:1003B0000895DB010D900020E9F71197A61BB70BFC
:1003C0004A2F0E94B70108956091190170911A0196
:1003D0008091180140911C0121E00E9415021092A9
:1003E0001B0110921C0110921D01089580E290E003
:1003F00061E070E00E945F0080931401909315010A
:10040000109216011092170180E290E061E070E016
:100410000E945F008093190190931A0110921B01B2
:1004200010921C010E94F90308951F93582F122F58
:10043000413210F081E03CC080911F018823E1F738
:1004400082E080931F018FEF80933001109227018B
:1004500040932801A0912501B0912601FB0102C023
:1004600081918D938E2F861B8417D0F3852F90E07A
:10047000880F991F8093200185EE8093BC00112383
:1004800021F080911F018230E1F3809130018F3F94
:1004900011F480E00DC080913001803211F482E0CF
:1004A00007C080913001803311F084E001C083E007
:1004B0001F910895482F613210F081E008958091D6
:1004C0001F01843011F082E0089560932C01A09107
:1004D0002901B0912A01842F9C01F90102C0819168
:1004E0008D938E2F841B8617D0F380E008951F9282
:1004F0000F920FB60F9211242F933F934F935F9358
:100500006F937F938F939F93AF93BF93EF93FF93DB
:100510008091B90090E0887F90708036910509F451
:10052000E2C081369105CCF58832910509F47BC093
:1005300089329105B4F48031910509F46FC081319D
:1005400091053CF4009709F438C1089709F040C1BF
:1005500065C08831910509F466C0809709F038C1FB
:100560007FC08034910509F4A3C08134910544F41F
:100570008033910509F47FC0C89709F029C186C06E
:100580008035910509F486C08835910509F495C038
:100590008834910509F01CC19EC08839910509F481
:1005A00004C189399105ECF48837910509F49BC0A1
:1005B000893791054CF48836910509F494C0803749
:1005C000910509F005C18FC08838910509F4EDC087
:1005D0008039910509F48DC08038910509F0F8C083
:1005E00088C0803B910509F4B2C0813B91054CF471
:1005F000803A910509F491C0883A910509F0E8C064
:10060000A6C0803C910509F4D4C0883C910509F44A
:10061000D0C0883B910509F0DBC0B1C080912001BA
:100620008093BB00C0C0909127018091280198174A
:1006300078F490912701E0912501F0912601E90FCE
:10064000F11D80818093BB009F5F90932701ABC019
:1006500085ED8093BC008091BC0084FDFCCFB6C0CA
:1006600080E28093300185ED8093BC008091BC00D6
:1006700084FDFCCFABC080E38093300185ED809397
:10068000BC008091BC0084FDFCCFA0C088E38093B7
:1006900030018FC0809127019091BB00E09125012E
:1006A000F0912601E80FF11D90838F5F8093270161
:1006B000909127018091280174C080912701909129
:1006C000BB00E0912501F0912601E80FF11D908318
:1006D0008F5F8093270185ED8093BC008091BC00E3
:1006E00084FDFCCF73C083E080931F0110922F0123
:1006F0005AC080912F01803208F057C080912F019D
:100700009091BB00E0912D01F0912E01E80FF11DB9
:1007100090838F5F80932F0146C080912F0180329C
:1007200048F480912F01E0912D01F0912E01E80F06
:10073000F11D108260912F01E0912301F0912401BD
:1007400080912D0190912E0170E0099532C084E0D6
:1007500080931F0110922B0110922C01E091210136
:10076000F0912201099580912C01882341F481E0C8
:1007700080932C01E0912901F0912A01108290913F
:100780002B01E0912901F0912A01E90FF11D8081EF
:100790008093BB009F5F90932B0190912B018091E0
:1007A0002C01981710F485EC01C085E88093BC00FB
:1007B0000FC085EC8093BC0009C01092300185ED1C
:1007C0008093BC008091BC0084FDFCCF10921F017F
:1007D000FF91EF91BF91AF919F918F917F916F9119
:1007E0005F914F913F912F910F900FBE0F901F90EF
:1007F000189510921F01449A459AE9EBF0E0808128
:100800008E7F808380818D7F808388E48093B80091
:1008100085E48093BC0080E290E061E070E00E949B
:100820005F00809325019093260180E290E061E0D3
:1008300070E00E945F008093290190932A0180E27A
:1008400090E061E070E00E945F0080932D01909342
:100850002E0108950F931F930EE111E0C80162E08D
:1008600070E00E948401C80160E071E00E94D9013B
:10087000C8010E94E40160ED77E080E090E00E9412
:10088000AB04C80162E070E00E948401C80168E026
:1008900071E00E94D901C8010E94E40160ED77E097
:1008A00080E090E00E94AB041F910F9108958EE1CB
:1008B00091E00E94F60108950E94D5040E94570419
:1008C0000E942A04FDCF1F920F920FB60F9211249F
:1008D0002F933F938F939F93AF93BF938091350155
:1008E00090913601A0913701B091380130913901D2
:1008F0000196A11DB11D232F2D5F2D3720F02D57FF
:100900000196A11DB11D209339018093350190936B
:100910003601A0933701B093380180913101909155
:100920003201A0913301B09134010196A11DB11D96
:100930008093310190933201A0933301B09334013D
:10094000BF91AF919F918F913F912F910F900FBECB
:100950000F901F901895EF92FF920F931F937B01BA
:100960008C018FB7F8944091350150913601609118
:100970003701709138018FBF2FB7F89480913501FE
:1009800090913601A0913701B09138012FBF841B9F
:10099000950BA60BB70BE816F9060A071B0760F7BD
:1009A0001F910F91FF90EF900895789484B5826025
:1009B00084BD84B5816084BD85B5826085BD85B503
:1009C000816085BDEEE6F0E0808181608083E1E8B2
:1009D000F0E0808182608083808181608083E0E8B4
:1009E000F0E0808181608083E1EBF0E080818460D1
:1009F0008083E0EBF0E0808181608083EAE7F0E0D3
:100A00008081846080838081826080838081816036
:100A100080838081806880831092C1000895EE0FEA
:0E0A2000FF1F0590F491E02D0994F894FFCF8C
:100A2E0062656861707079006265736164002000B0
:040A3E003E01000075
:00000001FF
