:100000000C9471020C949B020C949B020C949D0224
:100010000C949B020C949B020C949B020C949B02EC
:100020000C949B020C949B020C949B020C949B02DC
:100030000C949B020C949B020C949B020C949B02CC
:100040000C949B020C949B020C949B020C949B02BC
:100050000C949B020C949B020C949B020C94CF0A70
:100060000C949B020C949B020C949B020C949B029C
:100070000C949B020C949B020C949B020C949B028C
:100080000C949B020C949B020C949B020C949B027C
:100090000C949B020C949B020C949B020C94AA0956
:1000A0000C949B020C949B020C949B020C949B025C
:1000B0000C949B020C949B020C949B020C949B024C
:1000C0000C949B020C949B020C949B020C949B023C
:1000D0000C949B020C949B020C949B020C949B022C
:1000E0000C949B020C949B020C949B020C949B021C
:1000F0000C949B020C949B020C949B020C949B020C
:100100000C949B020C949B020C949B020C949B02FB
:100110000C949B020C949B020C949B020C949B02EB
:10012000207F010100000000000000000000005ED0
:1001300000000000000006000006000000247E24ED
:10014000247E240000246B2A2A6B1200004626100D
:100150000864620000344A4A542050000000000045
:10016000060000000000003C4200000000000042C9
:100170003C000000002A1C3E1C2A00000008083E2B
:1001800008080000000040300000000000080808D7
:100190000808080000000040000000000040201097
:1001A00008040200003C62524A463C000040447E83
:1001B000404000000064525252524C000024424A17
:1001C0004A4A340000382422227E2000002E4A4A67
:1001D0004A4A3200003C4A4A4A4A3000000202625F
:1001E000120A060000344A4A4A4A3400000C5252AD
:1001F00052523C0000000024000000000000402497
:100200000000000000000814220000000014141474
:10021000141414000000002214080000000402520C
:100220000A0400000018245A5A241800007C1212F4
:1002300012127C00007E4A4A4A4A3400003C424284
:1002400042422400007E424242423C00007E4A4A32
:100250004A424200007E0A0A0A020200003C424270
:1002600052523400007E080808087E000000427EDA
:10027000420000000020404040403E00007E080850
:1002800008146200007E404040404000007E0408A8
:1002900008047E00007E040810207E00003C4242DC
:1002A00042423C00007E121212120C00003C4252EC
:1002B00062423C00007E121212324C0000244A4A74
:1002C0004A4A30000002027E02020000003E404026
:1002D00040403E00001E204040201E00007E2010B6
:1002E00010207E00004224181824420000020478E6
:1002F00004020000004262524A46420000007E4270
:1003000042000000000204081020400000000042EB
:10031000427E000000000004020400008080808013
:1003200080808080000000020400000000205454FF
:1003300054780000007E48484830000000384444AB
:100340004428000000304848487E000000385454DB
:10035000544800000000087C0A0200000018A4A411
:10036000A47C0000007E0808087000000000487AA5
:100370004000000000408080887A0000007E10105D
:10038000284400000000427E40000000007C047809
:1003900004780000007C0404047800000038444421
:1003A0004438000000FC4444443800000038444411
:1003B00044FC0000007C080404040000004854547D
:1003C000542400000000043E44000000003C404073
:1003D000207C0000001C2040201C0000001C601C31
:1003E000601C00000044281028440000001CA0A04D
:1003F000A07C0000004464544C4400000000083617
:1004000041000000000000FF000000000000413635
:100410000800000008040408101008000000000094
:1004200000000000000000090A0B000003070000A4
:1004300000000000000000020000000000000000BA
:1004400000000000000004050102040810204080A4
:1004500020100104080202010102042004081020F7
:1004600040800102040810204080408005050505F9
:100470000505050502020202020204040707070738
:100480000404040404040606060606060606020220
:10049000000000000000260029002C002F00320080
:1004A0000000000000000000000000000000250027
:1004B00000002B002E00310034000000000000007E
:1004C0000000000000000000240000002A002D00B1
:1004D0003000330000000000000000000000FE02B9
:1004E000F30811241FBECFEFD1E4DEBFCDBF12E071
:1004F000A0E0B2E0EEEEF9E100E00BBF02C0079031
:100500000D92A438B107D9F723E0A4E8B2E001C006
:100510001D92A039B207E1F712E0C1E7D2E004C0B2
:100520002197FE010E94EC0CCF36D107C9F70E943B
:10053000DD0C0C94F50C0C9400001F920F920FB67A
:100540000F9211248F9383B78E7F83BF8F910F906B
:100550000FBE0F901F90189590E080E008950895C9
:10056000CF92DF92EF92FF920F931F93CF93DF937F
:100570006C01EB017B01E40EF51E10E000E0CE15EE
:10058000DF0561F06991D601ED91FC910190F08158
:10059000E02DC6010995080F191FF1CFC801DF91A1
:1005A000CF911F910F91FF90EF90DF90CF90089522
:1005B00088E892E00E94F80588E892E00E944106EF
:1005C00060E088E892E00E94010660E088E892E03E
:1005D0000C94010660E271E088E892E00E947603E4
:1005E00020E032E041E060E088E892E00E94100400
:1005F00060ED77E080E090E00C943E0B0F931F934A
:10060000E4E8F2E01382128210AE11AE81E192E0D2
:10061000918380830BE217E027E937E041EB54E058
:100620006BE875E088E892E00E94850622E148E1E7
:1006300067E088E892E01F910F910C943208CF9305
:10064000DF93EC01A889B989FD0134913196949129
:10065000319684911396FD01A4916317A8F1961722
:1006600098F1631B770B8A9FE02D1124E69FC00150
:10067000E79F900D1124280F392F311D83E0220FA1
:10068000331F8A95E1F7C9010496DA01245F3F4FD1
:10069000E889F989E80FF91FE491ED930196821733
:1006A0009307B1F78D89882361F0FA019A01285FD9
:1006B0003F4F8191DF01119780958C932E173F0753
:1006C000C1F7DF91CF910895FA01CA0108961192FE
:1006D000E817F907E1F7E6CF662329F06A3019F049
:1006E000862F90E008958FEF9FEF0895FC01718BA6
:1006F000608B08955F926F927F928F929F92AF92DC
:10070000BF92CF92DF92EF92FF920F931F93CF93FE
:10071000DF93CDB7DEB728970FB6F894DEBF0FBED4
:10072000CDBF6C01A62EB42E922EFC01808991893A
:10073000FC013296E4903196F4905E2C560EF40E45
:1007400081E0860F581610F4EE24E394712C672C88
:100750008A2C262DAE014F5F5F4F692DC6010E9486
:100760001F038E010F5F1F4F21E04B2D682DC60127
:100770000E94CD0563948394851458F3B3947E0C42
:10078000BF1428F328960FB6F894DEBF0FBECDBF76
:10079000DF91CF911F910F91FF90EF90DF90CF905D
:1007A000BF90AF909F908F907F906F905F900895D3
:1007B000CF92DF92EF92FF920F931F93CF93DF932D
:1007C0008C01D62EC42EDC015096ED91FC91329610
:1007D000C491FC01108E7901D0E0D7016D917D01AB
:1007E000D8011296ED91FC91C80109958F3F9807A9
:1007F00069F08E3FEFEF9E0781F3282F4C2D6D2D72
:10080000C8010E947A03DC0EDF5FE7CF8D2FDF91F6
:10081000CF911F910F91FF90EF90DF90CF900895AF
:10082000ECE6F3E0DC011396FC93EE9312970C9444
:10083000D803462FDC011896ED91FC9130E020E0C2
:1008400060E209949A01DC011896ED91FC91462F23
:1008500067E10994CF93DF931F92CDB7DEB7698329
:10086000AE014F5F5F4F61E00E9422040F90DF9165
:10087000CF910895462FDC011696ED91FC9130E062
:1008800020E065E10994462FDC011696ED91FC917C
:1008900030E020E066E109949A01DC011696ED91C2
:1008A000FC91462F67E10994DC011696ED91FC91CD
:1008B00030E020E040E068E10994DC011696ED911B
:1008C000FC9130E020E040E069E10994EF92FF9272
:1008D0000F931F93CF93DF931F92CDB7DEB77C01A9
:1008E0008B01D8016C91673129F150F46531A0F486
:1008F0000F90DF91CF911F910F91FF90EF9008958E
:100900006A3118F16E3FA1F7F8014181498369E22C
:10091000C7010E945E060BC0F80141814983D701DF
:100920001696ED91FC9130E020E0C70109950E5F2D
:100930001F4FD7CFF80181818983AE014F5F5F4F91
:1009400061E0C7010E944C04F2CF0F5F1F4FD70137
:100950001696ED91FC9130E020E040E0C70109954A
:10096000C0CFEF92FF920F931F93CF93DF938C0131
:10097000C62FD42F7901673130F46531B8F4643172
:1009800031F080E01BC0673101F16A31D0F7D80146
:100990001896ED91FC9197014D2F6C2FC801DF91B6
:1009A000CF911F910F91FF90EF90099460E00E940A
:1009B00019046D2FC8010E942A0481E0DF91CF91B4
:1009C0001F910F91FF90EF90089561E00E9419042C
:1009D000DECFCF92DF92FF920F931F93CF93DF93DF
:1009E000EC01042F69016E3009F44EC06F30A9F09C
:1009F00080E06B3051F467E672E0442311F060E66A
:100A000072E0CE010E94660481E0DF91CF911F91D8
:100A10000F91FF90DF90CF9008950E945404F6014B
:100A20001381110F110F110F8C89180F612F62950F
:100A30006F706061CE010E943A04612F6F70CE0129
:100A40000E943A04F6016481606BCE010E943A0470
:100A5000F601F280FF0CFF0CFF0CC080D1802F2D1F
:100A6000210F3327331F253831051CF084E8F82E79
:100A7000F11AA6016F2DCE010E944C040150C9F756
:100A8000CE010E945D04C0CF0E94540461E8CE01F3
:100A90000E943A04602F66956695CE010E94430439
:100AA000EFCF0F931F93CF93DF93EC01162F042FFB
:100AB0000E94E90481110BC01A3079F01D30B1F0A9
:100AC000193031F46AE372E0CE010E948D0581E0B5
:100AD000DF91CF911F910F910895CE010E9495054E
:100AE00069E172E0CE010E946604F1CF01110AC0F3
:100AF00069E572E0CE010E946604E881F98182898D
:100B00008C8BE5CF62E572E0CE010E946604E8813D
:100B1000F9818389F5CF0C945105FC0171836083C1
:100B2000FB012289FC01248B0895CF93DF93EC0114
:100B3000EA85FB8530E020E040E068E20995EE813F
:100B4000FF8130E020E040E064E1CE01099541E022
:100B50006BE4CE010E945E06E881F981448169E27E
:100B6000CE010E945E0640E06BE4CE010E945E066C
:100B7000E881F981448169E2CE010E945E0641E08C
:100B80006BE4CE010E945E06E881F981458169E24D
:100B9000CE01DF91CF910C945E060F931F93CF93FC
:100BA000DF9300D000D01F92CDB7DEB76C834D83AA
:100BB0002B831A830983DC011496ED91FC919E012D
:100BC0002F5F3F4F41E06FE009950F900F900F901E
:100BD0000F900F90DF91CF911F910F910895DC013D
:100BE0001496ED91FC9130E020E040E069E009943A
:100BF000DC011496ED91FC9130E020E040E06AE0E9
:100C00000994462FDC011496ED91FC9130E020E030
:100C10006BE00994CF92DF92FF920F931F93CF93D3
:100C2000DF9300D000D01F92CDB7DEB78C011C82BD
:100C300081E08B837A836983D801ED91FC91F188FF
:100C40001D82F801A081B181C480D5809E012F5FF3
:100C50003F4F50964C916FE0C801F60109958D8188
:100C60008F5F8D838F1568F30F900F900F900F900B
:100C70000F90DF91CF911F910F91FF90DF90CF9058
:100C80000895CF93DF93CDB7DEB728970FB6F894CA
:100C9000DEBF0FBECDBFBE016F5F7F4F28E0FB01FF
:100CA00011922A95E9F70E940A0628960FB6F89441
:100CB000DEBF0FBECDBFDF91CF910895DC011A9644
:100CC000ED91FC9130E020E0099480E00895FC0172
:100CD0001182108285E696E09583848397838683CC
:100CE0009187808793878287158A108E1486158650
:100CF000168617868FEF868B828FDF015E96F496BD
:100D00008D93AE17BF07E1F70895AF92BF92CF92D0
:100D1000DF92EF92FF920F931F93CF93DF93EC013B
:100D20005B016A0179010E946706BD82AC82DF82A5
:100D3000CE82F986E8861B870A87CE01DF91CF91A4
:100D40001F910F91FF90EF90DF90CF90BF90AF90E9
:100D50000C94EF051F93CF93DF93EC01EC89FD8991
:100D600049AD6A3059F43396E491E40FE9AF18AE17
:100D700081E090E0DF91CF911F910895262F329668
:100D8000149168AD04960E947A03E8ADE10FE8AFD4
:100D9000EFCFCF92DF92EF92FF920F93FC01C12C25
:100DA00092E1D92E9AE7E92EF12C90E04C155D05E1
:100DB0006E057F0540F4F694E794D794C7949F5F3F
:100DC0009630A1F797E031E0392780E5211101C085
:100DD00080E7202F2C70032F0695022B082B008311
:100DE0009095917091830F91FF90EF90DF90CF904D
:100DF00008952091C002222381F03FB7F8942091FA
:100E0000C002213069F42DB32093BE024DB320916E
:100E1000BF02209524232DBB3FBF8CBD9DBD0895EF
:100E20003093BE02FACF8EBD00000DB407FEFDCF99
:100E30008EB508958091C002882361F09FB7F89421
:100E40002091C0028091BE02213019F48DBB9FBF5A
:100E500008958FBF08950F931F93CF93DF938C0155
:100E6000C62F642FCC32A8F4CA32D0F5C83239F17B
:100E7000C932E1F180E0C034A0F1CF73F801EC0F8A
:100E8000F11DD68DDF3F61F1C03108F042C08D2FDA
:100E900013C0CD3289F170F384EB8C0F823050F7A0
:100EA000CF73C00FD12FD11D8E8D41112EC061E0A7
:100EB0000E94490C60E08E8D0E94850C11C0025E7C
:100EC0001F4FD0E0F80181918F018F3F31F061E039
:100ED000D03108F062E00E94490CDF5FD63191F713
:100EE00081E0DF91CF911F910F91089570E090E024
:100EF00080E00E943E0BF4CF85E090E0433010F09C
:100F000082E090E00E94770BEBCF62E00E94490CF8
:100F1000E7CFC03111F40E94CE0A8D2F0E94B30C8E
:100F200021E0892B09F420E0F801218FD9CFCF925D
:100F3000DF92EF92FF920F931F93CF93DF9300D036
:100F4000CDB7DEB77C01142F6901683109F443C0C5
:100F500080F4643101F16731A9F080E00F900F90C7
:100F6000DF91CF911F910F91FF90EF90DF90CF9085
:100F70000895693109F45FC0603279F76AE40E942C
:100F80005E0627C0112329F1D6018D916D010E94C3
:100F900013071150F7CFFC0120813181848595859D
:100FA000A685B785892B8A2B8B2B51F4F901808577
:100FB0009185A285B385F70184879587A687B78732
:100FC000D90111964C9169E4C7010E945E060E9406
:100FD000370881E0C3CFDC01ED91FC91E485E1505D
:100FE00000E0E33020F4F0E0E259FD4F0081F7012A
:100FF000448555856685778521E0CE0101960E945E
:10100000C90689819A810E94F906D701ED91FC9168
:10101000408169E4C7010E945E06F701A081B181A9
:101020000285138530E020E012964C916CE2C701F6
:10103000F8010995CECFFC01A081B181028513850D
:1010400030E020E013964C916CE2F8010995D7014D
:10105000ED91FC91418169E4C7010E945E060E9406
:101060001A07B7CFFC0167A340A721A70895CF9324
:10107000CFB7F8948091C102811127C0E6E7F4E070
:101080008491E2E5F4E09491E82FF0E0EE0FFF1F89
:10109000EC53FB4FA591B491EC91E92321F461E06D
:1010A0008AE00E94850C61E08AE00E94490C8CB5C0
:1010B00080618CBD8CB580648CBD61E08DE00E9448
:1010C000490C61E08BE00E94490C8091C1028F5F66
:1010D0008093C102CFBFCF9108958091F10290918A
:1010E000F202891B990B08959091F2028091F1020E
:1010F0002FEF3FEF981748F4E92FF0E0ED50FD4F48
:10110000208130E09F5F9093F202C9010895E09141
:10111000F2028091F102E81730F4F0E0ED50FD4F5B
:10112000808190E008958FEF9FEF08950895CF9309
:10113000DF931F92CDB7DEB769832091CE022223C1
:10114000F9F02091CF02203258F021E030E0FC018C
:101150003383228390E080E00F90DF91CF91089558
:101160008091D002E82FF0E0EF52FD4F99819083FB
:101170008F5F8093D0028093CF0281E090E0ECCF2C
:1011800061E0CE0101960E942F09F7CFCF92DF9246
:10119000EF92FF920F931F93CF93DF937C01CB01CC
:1011A0008A012091CE02222389F0EB016B01C40E4B
:1011B000D51ECC15DD0569F06991D701ED91FC9143
:1011C0000190F081E02DC7010995F3CF642F0E94B3
:1011D0002F09C801DF91CF911F910F91FF90EF90E0
:1011E000DF90CF900895E2ECF2E01382128288EE55
:1011F00093E0A0E0B0E084839583A683B78385E77E
:1012000092E09183808308951092860381E0809319
:1012100084031092830361E08EE00E94850C61E0FC
:101220008FE00E94850CE9EBF0E080818E7F808367
:1012300080818D7F808388E48093B80085E48093EB
:10124000BC000895ECEBF0E080818A7B808360E055
:101250008EE00E94850C60E08FE00C94850C20915C
:101260003503260F3327331F21323105ECF420914B
:101270008603FC0190E080E0243069F082E008956C
:10128000A09135032191AC01495C5C4FA40FB52FAF
:10129000B11D2C930196861798F380913503680F42
:1012A0006093350380E0089581E0089585EC809394
:1012B000BC00109286030895CF93DF9391E0909342
:1012C0007E03882361F0C091B800D091BA000E94DB
:1012D00022090E940409D093BA00C093B800DF919C
:1012E000CF91089585ED8093BC0080917F0390910C
:1012F0008003A0918103B09182030796A11DB11DC7
:1013000023E0B695A795979587952A95D1F72091D3
:10131000BC0024FD03C010928603089540917F0312
:10132000509180036091810370918203452B462B7D
:10133000472B69F30097A105B10541F025E32A95F4
:10134000F1F700000197A109B109E1CF80917D0378
:101350000C945C091F920F920FB60F9211240BB6DA
:101360000F922F933F934F935F936F937F938F933E
:101370009F93AF93BF93EF93FF938091B900887FC2
:10138000803609F44EC008F041C0883209F4AAC082
:1013900028F5803109F49EC0C8F4882309F4FBC005
:1013A000883009F497C0FF91EF91BF91AF919F9161
:1013B0008F917F916F915F914F913F912F910F90FE
:1013C0000BBE0F900FBE0F901F901895883109F437
:1013D00089C0803241F78093130315C0803409F42B
:1013E0009EC048F48033B9F38833E9F68093130341
:1013F0000E945609D8CF803509F485C0883509F494
:1014000096C0883481F60E947209CDCF883909F4DC
:101410008CC038F5883729F050F4883611F08037C1
:1014200011F683E0809386031092140357C0883826
:1014300009F47BC0803919F0803809F0B4CF80916D
:101440001403803208F071C0E091140381E08E0F24
:10145000809314038091BB00F0E0EB5EFC4F80832F
:101460003DC0803B39F0E0F4803A09F479C0883A15
:1014700009F099CF84E0809386031092360310928E
:101480003503E0917B03F0917C030995809135034E
:1014900081110FC081E0809335031092370309C09A
:1014A000803C09F476C0883C09F473C0883B09F09D
:1014B0007ACFE091360381E08E0F80933603F0E01F
:1014C000E95CFC4F80818093BB0090913603809152
:1014D000350329C0809185038093BB0085EC809300
:1014E000BC0061CF9091580380915703981758F52D
:1014F000E091580381E08E0F80935803F0E0E75AA3
:10150000FC4F8081E9CFE091580381E08E0F8093FA
:1015100058038091BB00F0E0E75AFC4F8083909124
:101520005803809157039817C8F285E8D8CFE09107
:10153000580381E08E0F809358038091BB00F0E048
:10154000E75AFC4F80838091840381115CCF81E056
:101550008093830384EA8093BC001092860323CF98
:101560000E94560980911403803230F4E0911403F4
:10157000F0E0EB5EFC4F10826091140370E0E091AC
:101580007903F0917A0385E193E0099510921403B1
:101590000ACF85ECE0CF1092130335CF08951F9248
:1015A0000F920FB60F9211242F933F938F939F9317
:1015B000AF93BF938091880390918903A0918A0390
:1015C000B0918B033091870323E0230F2D3758F51B
:1015D0000196A11DB11D20938703809388039093EA
:1015E0008903A0938A03B0938B0380918C0390911D
:1015F0008D03A0918E03B0918F030196A11DB11DA3
:1016000080938C0390938D03A0938E03B0938F03EC
:10161000BF91AF919F918F913F912F910F900FBEEE
:101620000F901F90189526E8230F0296A11DB11D5B
:10163000D2CF3FB7F89480918C0390918D03A09105
:101640008E03B0918F0326B5A89B05C02F3F19F0DC
:101650000196A11DB11D3FBFBA2FA92F982F882732
:10166000BC01CD01620F711D811D911D42E0660F0D
:10167000771F881F991F4A95D1F708958F929F92DF
:10168000AF92BF92CF92DF92EF92FF926B017C01FB
:101690000E94190B4B015C01C114D104E104F10457
:1016A000E9F00E94CE0A0E94190B681979098A098B
:1016B0009B09683E73408105910570F321E0C21AD1
:1016C000D108E108F10888EE880E83E0981EA11C7D
:1016D000B11CC114D104E104F10429F7FF90EF908B
:1016E000DF90CF90BF90AF909F908F900895823001
:1016F000910538F0880F991F880F991F059701975A
:10170000F1F70895789484B5826084BD84B58160D2
:1017100084BD85B5826085BD85B5816085BDEEE6F9
:10172000F0E0808181608083E1E8F0E010828081D8
:1017300082608083808181608083E0E8F0E0808146
:1017400081608083E1EBF0E0808184608083E0EB66
:10175000F0E0808181608083E1E9F0E08081826057
:101760008083808181608083E0E9F0E08081816016
:101770008083E1EAF0E08081826080838081816003
:101780008083E0EAF0E0808181608083E1E2F1E043
:10179000808182608083808181608083E0E2F1E0EB
:1017A000808181608083EAE7F0E0808184608083CB
:1017B0008081826080838081816080838081806875
:1017C00080831092C10008958150823108F058C082
:1017D000E82FF0E0E251F44F0C94EC0C0E0C120CDC
:1017E000000C060C0A0C400C150C1B0C1F0C250CD5
:1017F000290C2D0C330C370C400C3B0C410C450CC8
:10180000809180008F778093800008958091800080
:101810008F7DF9CF80918000877FF5CF84B58F775A
:1018200084BD089584B58F7DFBCF8091B0008F7704
:101830008093B00008958091B0008F7DF9CF8091A2
:1018400090008F77809390000895809190008F7D15
:10185000F9CF80919000877FF5CF8091A0008F779E
:101860008093A00008958091A0008F7DF9CF809192
:10187000A000877FF5CF809120018F778093200192
:101880000895809120018F7DF9CF80912001877F7D
:10189000F5CFCF93DF9390E0FC01E85BFB4F249101
:1018A00084599B4FFC0184918823C9F090E0880FF4
:1018B000991FFC01EC53FB4FA591B491FC01E65537
:1018C000FB4FC591D49161110DC09FB7F8948C91D5
:1018D000209582238C938881282328839FBFDF91C2
:1018E000CF910895623051F49FB7F8943C91822FC4
:1018F000809583238C93E8812E2BEFCF8FB7F894BC
:10190000EC912E2B2C938FBFEACF1F93CF93DF93B5
:10191000282F30E0F901EC5DFB4F8491F901E85B81
:10192000FB4FD491F901E459FB4FC491CC23A9F0AA
:10193000162F81110E94E40BEC2FF0E0EE0FFF1F39
:10194000E655FB4FA591B4918FB7F894EC91111126
:1019500008C0D095DE23DC938FBFDF91CF911F911C
:101960000895DE2BF8CFCF93DF93282F30E0F901D5
:10197000EC5DFB4F8491F901E85BFB4FD491F901D9
:10198000E459FB4FC491CC23A1F081110E94E40BD8
:10199000EC2FF0E0EE0FFF1FE057FB4FA591B49145
:1019A000EC91ED2381E090E009F480E0DF91CF91AC
:1019B000089580E090E0FACF08950E94820B0E9483
:1019C000DC0C0E94D802C0E0D0E00E94EA0220971E
:1019D000E1F30E940000F9CFEE0FFF1F0024001C6E
:0E19E0000BBE0790F691E02D0994F894FFCF0E
:1019EE0048656C6C6F20576F726C642100000000AC
:1019FE0000AA06B002AC02AF021815E215AE1540F1
:101A0E0015A115C015A615A2152F15F8160015232C
:101A1E00158116B415AE15A519FF000196320101F8
:101A2E00327800093D0000042850100804008000A0
:101A3E0040001815A015C819FF1815A115C019FFDB
:101A4E001815AE15A519FF1815A415AF19FF040822
:101A5E000C000000009708C608AC0296086D0874CA
:041A6E0008870800DD
:00000001FF
